{
  "contractName": "BulkExecutor",
  "abi": [
    {
      "constant": false,
      "inputs": [],
      "name": "renounceOwnership",
      "outputs": [],
      "payable": false,
      "stateMutability": "nonpayable",
      "type": "function"
    },
    {
      "constant": true,
      "inputs": [],
      "name": "owner",
      "outputs": [
        {
          "name": "",
          "type": "address"
        }
      ],
      "payable": false,
      "stateMutability": "view",
      "type": "function"
    },
    {
      "constant": true,
      "inputs": [],
      "name": "isOwner",
      "outputs": [
        {
          "name": "",
          "type": "bool"
        }
      ],
      "payable": false,
      "stateMutability": "view",
      "type": "function"
    },
    {
      "constant": false,
      "inputs": [
        {
          "name": "newOwner",
          "type": "address"
        }
      ],
      "name": "transferOwnership",
      "outputs": [],
      "payable": false,
      "stateMutability": "nonpayable",
      "type": "function"
    },
    {
      "anonymous": false,
      "inputs": [
        {
          "indexed": false,
          "name": "merchantModule",
          "type": "address"
        }
      ],
      "name": "SuccessSplit",
      "type": "event"
    },
    {
      "anonymous": false,
      "inputs": [
        {
          "indexed": true,
          "name": "previousOwner",
          "type": "address"
        },
        {
          "indexed": true,
          "name": "newOwner",
          "type": "address"
        }
      ],
      "name": "OwnershipTransferred",
      "type": "event"
    },
    {
      "constant": false,
      "inputs": [
        {
          "name": "customers",
          "type": "address[]"
        },
        {
          "name": "to",
          "type": "address[]"
        },
        {
          "name": "value",
          "type": "uint256[]"
        },
        {
          "name": "data",
          "type": "bytes[]"
        },
        {
          "name": "period",
          "type": "uint8[]"
        },
        {
          "name": "startDate",
          "type": "uint256[]"
        },
        {
          "name": "endDate",
          "type": "uint256[]"
        },
        {
          "name": "uniqId",
          "type": "uint256[]"
        },
        {
          "name": "sig",
          "type": "bytes[]"
        }
      ],
      "name": "execute",
      "outputs": [
        {
          "name": "i",
          "type": "uint256"
        }
      ],
      "payable": false,
      "stateMutability": "nonpayable",
      "type": "function"
    },
    {
      "constant": false,
      "inputs": [
        {
          "name": "merchant",
          "type": "address"
        },
        {
          "name": "asset",
          "type": "address"
        }
      ],
      "name": "manualSplit",
      "outputs": [
        {
          "name": "success",
          "type": "bool"
        }
      ],
      "payable": false,
      "stateMutability": "nonpayable",
      "type": "function"
    }
  ],
  "bytecode": "0x6080604081905260008054600160a060020a0319163317808255600160a060020a0316917f8be0079c531659141344cd1fd0a4f28419497f9722a3daafe3b4186f6b6457e0908290a3610f15806100576000396000f3fe608060405234801561001057600080fd5b506004361061007e577c01000000000000000000000000000000000000000000000000000000006000350463715018a681146100835780638da5cb5b1461008d5780638f32d59b146100ab578063b37c3c9e146100c0578063d8e1d3fc146100e0578063f2fde38b146100f3575b600080fd5b61008b610106565b005b610095610170565b6040516100a29190610d1f565b60405180910390f35b6100b361017f565b6040516100a29190610dbf565b6100d36100ce366004610ace565b610190565b6040516100a29190610ddd565b6100b36100ee366004610a94565b610669565b61008b610101366004610a6e565b61070c565b61010e61017f565b151561011957600080fd5b60008054604051600160a060020a03909116907f8be0079c531659141344cd1fd0a4f28419497f9722a3daafe3b4186f6b6457e0908390a36000805473ffffffffffffffffffffffffffffffffffffffff19169055565b600054600160a060020a031690565b600054600160a060020a0316331490565b600080905060608a516040519080825280602002602001820160405280156101c2578160200160208202803883390190505b5090506101cd6107a8565b8b518310156104ab57600082848151811015156101e657fe5b9115156020928302909101909101528060006020020151600160a060020a03168c8481518110151561021457fe5b60209081029091010151600160a060020a03161015610268576040517f08c379a000000000000000000000000000000000000000000000000000000000815260040161025f90610dcd565b60405180910390fd5b80518c51600160a060020a03909116908d908590811061028457fe5b90602001906020020151600160a060020a031611156102a557600160208201525b8b838151811015156102b357fe5b90602001906020020151600160a060020a031663d82574008c858151811015156102d957fe5b906020019060200201518c868151811015156102f157fe5b906020019060200201518c8781518110151561030957fe5b906020019060200201518c8881518110151561032157fe5b906020019060200201518c8981518110151561033957fe5b906020019060200201518c8a81518110151561035157fe5b906020019060200201518c8b81518110151561036957fe5b906020019060200201518c8c81518110151561038157fe5b906020019060200201516040518963ffffffff167c01000000000000000000000000000000000000000000000000000000000281526004016103ca989796959493929190610d3b565b602060405180830381600087803b1580156103e457600080fd5b505af11580156103f8573d6000803e3d6000fd5b505050506040513d601f19601f8201168201806040525061041c9190810190610c69565b15610478578060016020020151600160a060020a03168b8481518110151561044057fe5b60209081029091010151600160a060020a031614610478576001828481518110151561046857fe5b9115156020928302909101909101525b8a8381518110151561048657fe5b602090810291909101810151600160a060020a031690820152600192909201916101cd565b60009250825b82518110156106595782818151811015156104c857fe5b90602001906020020151156106515760008b828151811015156104e757fe5b90602001906020020151905060008060008314156105545760608d8581518110151561050f57fe5b9060200190602002015190506c0100000000000000000000000060106020830101510492508f8581518110151561054257fe5b90602001906020020151915050610573565b8e8481518110151561056257fe5b906020019060200201519150600090505b6040517f56fa47f0000000000000000000000000000000000000000000000000000000008152600160a060020a038316906356fa47f0906105b8908490600401610d1f565b602060405180830381600087803b1580156105d257600080fd5b505af11580156105e6573d6000803e3d6000fd5b505050506040513d601f19601f8201168201806040525061060a9190810190610c69565b1561064d577ff1853781786ad6b328ff47981ee5d014e4e5e2a95f3b04a1d5a0e857837df4138260405161063e9190610d2d565b60405180910390a16001909601955b5050505b6001016104b1565b5050509998505050505050505050565b6040517f56fa47f0000000000000000000000000000000000000000000000000000000008152600090600160a060020a038416906356fa47f0906106b1908590600401610d1f565b602060405180830381600087803b1580156106cb57600080fd5b505af11580156106df573d6000803e3d6000fd5b505050506040513d601f19601f820116820180604052506107039190810190610c69565b90505b92915050565b61071461017f565b151561071f57600080fd5b6107288161072b565b50565b600160a060020a038116151561074057600080fd5b60008054604051600160a060020a03808516939216917f8be0079c531659141344cd1fd0a4f28419497f9722a3daafe3b4186f6b6457e091a36000805473ffffffffffffffffffffffffffffffffffffffff1916600160a060020a0392909216919091179055565b60408051808201825290600290829080388339509192915050565b60006107038235610e5f565b6000601f820183136107e057600080fd5b81356107f36107ee82610e12565b610deb565b9150818183526020840193506020810190508385602084028201111561081857600080fd5b60005b83811015610844578161082e88826107c3565b845250602092830192919091019060010161081b565b5050505092915050565b6000601f8201831361085f57600080fd5b813561086d6107ee82610e12565b9150818183526020840193506020810190508385602084028201111561089257600080fd5b60005b8381101561084457816108a888826107c3565b8452506020928301929190910190600101610895565b6000601f820183136108cf57600080fd5b81356108dd6107ee82610e12565b81815260209384019390925082018360005b8381101561084457813586016109058882610a07565b84525060209283019291909101906001016108ef565b6000601f8201831361092c57600080fd5b813561093a6107ee82610e12565b9150818183526020840193506020810190508385602084028201111561095f57600080fd5b60005b8381101561084457816109758882610a56565b8452506020928301929190910190600101610962565b6000601f8201831361099c57600080fd5b81356109aa6107ee82610e12565b915081818352602084019350602081019050838560208402820111156109cf57600080fd5b60005b8381101561084457816109e58882610a62565b84525060209283019291909101906001016109d2565b60006107038251610e6a565b6000601f82018313610a1857600080fd5b8135610a266107ee82610e33565b91508082526020830160208301858383011115610a4257600080fd5b610a4d838284610e95565b50505092915050565b60006107038235610e7b565b60006107038235610e7e565b600060208284031215610a8057600080fd5b6000610a8c84846107c3565b949350505050565b60008060408385031215610aa757600080fd5b6000610ab385856107c3565b9250506020610ac4858286016107c3565b9150509250929050565b60008060008060008060008060006101208a8c031215610aed57600080fd5b893567ffffffffffffffff811115610b0457600080fd5b610b108c828d016107cf565b99505060208a013567ffffffffffffffff811115610b2d57600080fd5b610b398c828d0161084e565b98505060408a013567ffffffffffffffff811115610b5657600080fd5b610b628c828d0161091b565b97505060608a013567ffffffffffffffff811115610b7f57600080fd5b610b8b8c828d016108be565b96505060808a013567ffffffffffffffff811115610ba857600080fd5b610bb48c828d0161098b565b95505060a08a013567ffffffffffffffff811115610bd157600080fd5b610bdd8c828d0161091b565b94505060c08a013567ffffffffffffffff811115610bfa57600080fd5b610c068c828d0161091b565b93505060e08a013567ffffffffffffffff811115610c2357600080fd5b610c2f8c828d0161091b565b9250506101008a013567ffffffffffffffff811115610c4d57600080fd5b610c598c828d016108be565b9150509295985092959850929598565b600060208284031215610c7b57600080fd5b6000610a8c84846109fb565b610c9081610e84565b82525050565b610c9081610e5f565b610c9081610e6a565b6000610cb382610e5b565b808452610cc7816020860160208601610ea1565b610cd081610ed1565b9093016020019392505050565b601281527f534f525420435553544f4d455253204153430000000000000000000000000000602082015260400190565b610c9081610e7b565b610c9081610e7e565b602081016107068284610c96565b602081016107068284610c87565b6101008101610d4a828b610c87565b610d57602083018a610d0d565b8181036040830152610d698189610ca8565b9050610d786060830188610d16565b610d856080830187610d0d565b610d9260a0830186610d0d565b610d9f60c0830185610d0d565b81810360e0830152610db18184610ca8565b9a9950505050505050505050565b602081016107068284610c9f565b6020808252810161070681610cdd565b602081016107068284610d0d565b60405181810167ffffffffffffffff81118282101715610e0a57600080fd5b604052919050565b600067ffffffffffffffff821115610e2957600080fd5b5060209081020190565b600067ffffffffffffffff821115610e4a57600080fd5b506020601f91909101601f19160190565b5190565b600061070682610e6f565b151590565b600160a060020a031690565b90565b60ff1690565b600061070682600061070682610e5f565b82818337506000910152565b60005b83811015610ebc578181015183820152602001610ea4565b83811115610ecb576000848401525b50505050565b601f01601f19169056fea265627a7a72305820e138f9987a429650b0c72ec985a09f7d49d49bcbfdf36877d5fa3cfc8cfd491b6c6578706572696d656e74616cf50037",
  "source": "pragma solidity ^0.5.0;\npragma experimental ABIEncoderV2;\n\nimport \"openzeppelin-solidity/contracts/ownership/Ownable.sol\";\nimport \"./common/Enum.sol\";\nimport \"./modules/interfaces/MerchantModule.sol\";\nimport \"./modules/interfaces/SubscriptionModule.sol\";\n\ncontract BulkExecutor is Ownable {\n\n\n    event SuccessSplit(address merchantModule);\n\n    function execute(\n        address[] memory customers,\n        address payable[] memory to,\n        uint256[] memory value,\n        bytes[] memory data,\n        uint8[] memory period,\n        uint256[] memory startDate,\n        uint256[] memory endDate,\n        uint256[] memory uniqId,\n        bytes[] memory sig\n    )\n    public\n    returns (\n        uint256 i\n    )\n    {\n        i = 0;\n        bool[] memory toSplit = new bool[](customers.length);\n        address[2] memory holder;\n        while (i < customers.length) {\n            toSplit[i] = false;\n            require(customers[i] >= holder[0], \"SORT CUSTOMERS ASC\");\n            if (customers[i] > holder[0]) {\n                holder[1] = address(0x1);\n                //SENTINEL_RESET\n            }\n            if (SM(customers[i]).execSubscription(\n                    to[i],\n                    value[i],\n                    data[i],\n                    period[i],\n                    startDate[i],\n                    endDate[i],\n                    uniqId[i],\n                    sig[i]\n                )\n            ) {\n                if (to[i] != holder[1]) {\n                    toSplit[i] = true;\n                }\n            }\n\n            holder[1] = to[i];\n            i++;\n\n        }\n\n        i = 0;\n        for (uint t = 0; t < toSplit.length; t++) {\n\n            if (toSplit[t]) {\n\n                uint256 _value = value[t];\n\n                address payable merchant;\n                address asset;\n\n                //value of 0 means its paying via some smart contract(erc20 token, etc)\n                if (_value == uint(0)) {\n                    bytes memory _data = data[t];\n\n                    // extract the merchant from the data payload\n\n                    // solium-disable-next-line security/no-inline-assembly\n                    assembly {\n                        merchant := div(mload(add(add(_data, 0x20), 16)), 0x1000000000000000000000000)\n                    }\n\n                    //smart contract for the token\n                    asset = to[t];\n\n                } else {\n\n                    merchant = to[t];\n                    asset = address(0);\n                    //the split is eth, so the _to address is the actual receiving contract\n                }\n\n                if (MMInterface(merchant).split(asset)) {\n                    emit SuccessSplit(merchant);\n                    i++;\n                }\n            }\n        }\n    }\n\n\n    /// @dev fail safe to execute the split, great for non workflow txns that place ether or tokens at merchant contract\n    function manualSplit(\n        address merchant,\n        address asset\n    )\n    public\n    returns (\n        bool success\n    ) {\n        return MMInterface(merchant).split(asset);\n    }\n}\n",
  "sourcePath": "/Users/andrewredden/Development/gh/safe-contracts/contracts/BulkExecutor.sol",
  "compiler": {
    "name": "solc",
    "version": "0.5.3+commit.10d17f24.Emscripten.clang"
  },
  "schemaVersion": "3.0.0-beta.2",
  "updatedAt": "2019-02-24T21:08:44.189Z",
  "devdoc": {
    "methods": {
      "isOwner()": {
        "return": "true if `msg.sender` is the owner of the contract."
      },
      "manualSplit(address,address)": {
        "details": "fail safe to execute the split, great for non workflow txns that place ether or tokens at merchant contract"
      },
      "owner()": {
        "return": "the address of the owner."
      },
      "renounceOwnership()": {
        "details": "Allows the current owner to relinquish control of the contract."
      },
      "transferOwnership(address)": {
        "details": "Allows the current owner to transfer control of the contract to a newOwner.",
        "params": {
          "newOwner": "The address to transfer ownership to."
        }
      }
    }
  },
  "userdoc": {
    "methods": {
      "renounceOwnership()": {
        "notice": "Renouncing to ownership will leave the contract without an owner. It will not be possible to call the functions with the `onlyOwner` modifier anymore."
      }
    }
  }
}