{
  "contractName": "BulkExecutor",
  "abi": [
    {
      "constant": false,
      "inputs": [],
      "name": "renounceOwnership",
      "outputs": [],
      "payable": false,
      "stateMutability": "nonpayable",
      "type": "function"
    },
    {
      "constant": true,
      "inputs": [],
      "name": "owner",
      "outputs": [
        {
          "name": "",
          "type": "address"
        }
      ],
      "payable": false,
      "stateMutability": "view",
      "type": "function"
    },
    {
      "constant": true,
      "inputs": [],
      "name": "isOwner",
      "outputs": [
        {
          "name": "",
          "type": "bool"
        }
      ],
      "payable": false,
      "stateMutability": "view",
      "type": "function"
    },
    {
      "constant": false,
      "inputs": [
        {
          "name": "newOwner",
          "type": "address"
        }
      ],
      "name": "transferOwnership",
      "outputs": [],
      "payable": false,
      "stateMutability": "nonpayable",
      "type": "function"
    },
    {
      "anonymous": false,
      "inputs": [
        {
          "indexed": true,
          "name": "subscriptionModule",
          "type": "address"
        },
        {
          "indexed": true,
          "name": "merchantModule",
          "type": "address"
        },
        {
          "indexed": true,
          "name": "asset",
          "type": "address"
        }
      ],
      "name": "SuccessSplit",
      "type": "event"
    },
    {
      "anonymous": false,
      "inputs": [
        {
          "indexed": true,
          "name": "previousOwner",
          "type": "address"
        },
        {
          "indexed": true,
          "name": "newOwner",
          "type": "address"
        }
      ],
      "name": "OwnershipTransferred",
      "type": "event"
    },
    {
      "constant": false,
      "inputs": [
        {
          "name": "customers",
          "type": "address[]"
        },
        {
          "name": "to",
          "type": "address[]"
        },
        {
          "name": "value",
          "type": "uint256[]"
        },
        {
          "name": "data",
          "type": "bytes[]"
        },
        {
          "name": "period",
          "type": "uint8[]"
        },
        {
          "name": "startDate",
          "type": "uint256[]"
        },
        {
          "name": "endDate",
          "type": "uint256[]"
        },
        {
          "name": "uniqId",
          "type": "uint256[]"
        },
        {
          "name": "sig",
          "type": "bytes[]"
        }
      ],
      "name": "bulkExecute",
      "outputs": [
        {
          "name": "i",
          "type": "uint256"
        }
      ],
      "payable": false,
      "stateMutability": "nonpayable",
      "type": "function"
    },
    {
      "constant": false,
      "inputs": [
        {
          "name": "merchant",
          "type": "address"
        },
        {
          "name": "asset",
          "type": "address"
        }
      ],
      "name": "manualSplit",
      "outputs": [
        {
          "name": "success",
          "type": "bool"
        }
      ],
      "payable": false,
      "stateMutability": "nonpayable",
      "type": "function"
    }
  ],
  "bytecode": "0x6080604052336000806101000a81548173ffffffffffffffffffffffffffffffffffffffff021916908373ffffffffffffffffffffffffffffffffffffffff1602179055506000809054906101000a900473ffffffffffffffffffffffffffffffffffffffff1673ffffffffffffffffffffffffffffffffffffffff16600073ffffffffffffffffffffffffffffffffffffffff167f8be0079c531659141344cd1fd0a4f28419497f9722a3daafe3b4186f6b6457e060405160405180910390a361149b806100cf6000396000f3fe608060405234801561001057600080fd5b506004361061007f576000357c010000000000000000000000000000000000000000000000000000000090048063715018a6146100845780638da5cb5b1461008e5780638f32d59b146100ac578063a5f49ec5146100ca578063d8e1d3fc146100fa578063f2fde38b1461012a575b600080fd5b61008c610146565b005b610096610218565b6040516100a391906110ec565b60405180910390f35b6100b4610241565b6040516100c19190611193565b60405180910390f35b6100e460048036036100df9190810190610e6d565b610298565b6040516100f191906111ce565b60405180910390f35b610114600480360361010f9190810190610e31565b6108d8565b6040516101219190611193565b60405180910390f35b610144600480360361013f9190810190610e08565b610989565b005b61014e610241565b151561015957600080fd5b600073ffffffffffffffffffffffffffffffffffffffff166000809054906101000a900473ffffffffffffffffffffffffffffffffffffffff1673ffffffffffffffffffffffffffffffffffffffff167f8be0079c531659141344cd1fd0a4f28419497f9722a3daafe3b4186f6b6457e060405160405180910390a360008060006101000a81548173ffffffffffffffffffffffffffffffffffffffff021916908373ffffffffffffffffffffffffffffffffffffffff160217905550565b60008060009054906101000a900473ffffffffffffffffffffffffffffffffffffffff16905090565b60008060009054906101000a900473ffffffffffffffffffffffffffffffffffffffff1673ffffffffffffffffffffffffffffffffffffffff163373ffffffffffffffffffffffffffffffffffffffff1614905090565b600080905060608a516040519080825280602002602001820160405280156102cf5781602001602082028038833980820191505090505b5090506102da610aa2565b5b8b518310156106c357600082848151811015156102f457fe5b906020019060200201901515908115158152505080600060028110151561031757fe5b602002015173ffffffffffffffffffffffffffffffffffffffff168c8481518110151561034057fe5b9060200190602002015173ffffffffffffffffffffffffffffffffffffffff16101515156103a3576040517f08c379a000000000000000000000000000000000000000000000000000000000815260040161039a906111ae565b60405180910390fd5b8060006002811015156103b257fe5b602002015173ffffffffffffffffffffffffffffffffffffffff168c848151811015156103db57fe5b9060200190602002015173ffffffffffffffffffffffffffffffffffffffff16111561044a57600181600160028110151561041257fe5b602002019073ffffffffffffffffffffffffffffffffffffffff16908173ffffffffffffffffffffffffffffffffffffffff16815250505b8b8381518110151561045857fe5b9060200190602002015173ffffffffffffffffffffffffffffffffffffffff1663ca014e7f8c8581518110151561048b57fe5b906020019060200201518c868151811015156104a357fe5b906020019060200201518c878151811015156104bb57fe5b906020019060200201518c888151811015156104d357fe5b906020019060200201518c898151811015156104eb57fe5b906020019060200201518c8a81518110151561050357fe5b906020019060200201518c8b81518110151561051b57fe5b906020019060200201518c8c81518110151561053357fe5b906020019060200201516040518963ffffffff167c010000000000000000000000000000000000000000000000000000000002815260040161057c989796959493929190611107565b602060405180830381600087803b15801561059657600080fd5b505af11580156105aa573d6000803e3d6000fd5b505050506040513d601f19601f820116820180604052506105ce919081019061100b565b15610658578060016002811015156105e257fe5b602002015173ffffffffffffffffffffffffffffffffffffffff168b8481518110151561060b57fe5b9060200190602002015173ffffffffffffffffffffffffffffffffffffffff16141515610657576001828481518110151561064257fe5b90602001906020020190151590811515815250505b5b8a8381518110151561066657fe5b9060200190602002015181600160028110151561067f57fe5b602002019073ffffffffffffffffffffffffffffffffffffffff16908173ffffffffffffffffffffffffffffffffffffffff168152505082806001019350506102db565b60009250600092505b81518310156108c95781838151811015156106e357fe5b90602001906020020151156108bc5760008b8481518110151561070257fe5b906020019060200201519050600080905060008c8681518110151561072357fe5b9060200190602002015114156107845760608b8681518110151561074357fe5b9060200190602002015190506c0100000000000000000000000060106020830101510492508d8681518110151561077657fe5b906020019060200201519150505b8173ffffffffffffffffffffffffffffffffffffffff166356fa47f0826040518263ffffffff167c01000000000000000000000000000000000000000000000000000000000281526004016107d991906110ec565b602060405180830381600087803b1580156107f357600080fd5b505af1158015610807573d6000803e3d6000fd5b505050506040513d601f19601f8201168201806040525061082b919081019061100b565b156108b9578073ffffffffffffffffffffffffffffffffffffffff168273ffffffffffffffffffffffffffffffffffffffff168f8781518110151561086c57fe5b9060200190602002015173ffffffffffffffffffffffffffffffffffffffff167ff4cdd0678ab37d6895f70f32bf202ca52f07fe3829f27b0fb63c929390ed9fef60405160405180910390a45b50505b82806001019350506106cc565b50509998505050505050505050565b60008273ffffffffffffffffffffffffffffffffffffffff166356fa47f0836040518263ffffffff167c010000000000000000000000000000000000000000000000000000000002815260040161092f91906110ec565b602060405180830381600087803b15801561094957600080fd5b505af115801561095d573d6000803e3d6000fd5b505050506040513d601f19601f82011682018060405250610981919081019061100b565b905092915050565b610991610241565b151561099c57600080fd5b6109a5816109a8565b50565b600073ffffffffffffffffffffffffffffffffffffffff168173ffffffffffffffffffffffffffffffffffffffff16141515156109e457600080fd5b8073ffffffffffffffffffffffffffffffffffffffff166000809054906101000a900473ffffffffffffffffffffffffffffffffffffffff1673ffffffffffffffffffffffffffffffffffffffff167f8be0079c531659141344cd1fd0a4f28419497f9722a3daafe3b4186f6b6457e060405160405180910390a3806000806101000a81548173ffffffffffffffffffffffffffffffffffffffff021916908373ffffffffffffffffffffffffffffffffffffffff16021790555050565b6040805190810160405280600290602082028038833980820191505090505090565b6000610ad08235611373565b905092915050565b6000610ae48235611385565b905092915050565b600082601f8301121515610aff57600080fd5b8135610b12610b0d82611216565b6111e9565b91508181835260208401935060208101905083856020840282011115610b3757600080fd5b60005b83811015610b675781610b4d8882610ac4565b845260208401935060208301925050600181019050610b3a565b5050505092915050565b600082601f8301121515610b8457600080fd5b8135610b97610b928261123e565b6111e9565b91508181835260208401935060208101905083856020840282011115610bbc57600080fd5b60005b83811015610bec5781610bd28882610ad8565b845260208401935060208301925050600181019050610bbf565b5050505092915050565b600082601f8301121515610c0957600080fd5b8135610c1c610c1782611266565b6111e9565b9150818183526020840193506020810190508360005b83811015610c625781358601610c488882610d8a565b845260208401935060208301925050600181019050610c32565b5050505092915050565b600082601f8301121515610c7f57600080fd5b8135610c92610c8d8261128e565b6111e9565b91508181835260208401935060208101905083856020840282011115610cb757600080fd5b60005b83811015610ce75781610ccd8882610de0565b845260208401935060208301925050600181019050610cba565b5050505092915050565b600082601f8301121515610d0457600080fd5b8135610d17610d12826112b6565b6111e9565b91508181835260208401935060208101905083856020840282011115610d3c57600080fd5b60005b83811015610d6c5781610d528882610df4565b845260208401935060208301925050600181019050610d3f565b5050505092915050565b6000610d828251611397565b905092915050565b600082601f8301121515610d9d57600080fd5b8135610db0610dab826112de565b6111e9565b91508082526020830160208301858383011115610dcc57600080fd5b610dd783828461140e565b50505092915050565b6000610dec82356113a3565b905092915050565b6000610e0082356113bc565b905092915050565b600060208284031215610e1a57600080fd5b6000610e2884828501610ac4565b91505092915050565b60008060408385031215610e4457600080fd5b6000610e5285828601610ac4565b9250506020610e6385828601610ac4565b9150509250929050565b60008060008060008060008060006101208a8c031215610e8c57600080fd5b60008a013567ffffffffffffffff811115610ea657600080fd5b610eb28c828d01610aec565b99505060208a013567ffffffffffffffff811115610ecf57600080fd5b610edb8c828d01610b71565b98505060408a013567ffffffffffffffff811115610ef857600080fd5b610f048c828d01610cf1565b97505060608a013567ffffffffffffffff811115610f2157600080fd5b610f2d8c828d01610bf6565b96505060808a013567ffffffffffffffff811115610f4a57600080fd5b610f568c828d01610c6c565b95505060a08a013567ffffffffffffffff811115610f7357600080fd5b610f7f8c828d01610cf1565b94505060c08a013567ffffffffffffffff811115610f9c57600080fd5b610fa88c828d01610cf1565b93505060e08a013567ffffffffffffffff811115610fc557600080fd5b610fd18c828d01610cf1565b9250506101008a013567ffffffffffffffff811115610fef57600080fd5b610ffb8c828d01610bf6565b9150509295985092959850929598565b60006020828403121561101d57600080fd5b600061102b84828501610d76565b91505092915050565b61103d816113c6565b82525050565b61104c81611315565b82525050565b61105b81611327565b82525050565b600061106c8261130a565b80845261108081602086016020860161141d565b61108981611450565b602085010191505092915050565b6110a0816113d8565b82525050565b6000601282527f534f525420435553544f4d4552532041534300000000000000000000000000006020830152604082019050919050565b6110e681611369565b82525050565b60006020820190506111016000830184611043565b92915050565b60006101008201905061111d600083018b611034565b61112a602083018a6110dd565b818103604083015261113c8189611061565b905061114b6060830188611097565b61115860808301876110dd565b61116560a08301866110dd565b61117260c08301856110dd565b81810360e08301526111848184611061565b90509998505050505050505050565b60006020820190506111a86000830184611052565b92915050565b600060208201905081810360008301526111c7816110a6565b9050919050565b60006020820190506111e360008301846110dd565b92915050565b6000604051905081810181811067ffffffffffffffff8211171561120c57600080fd5b8060405250919050565b600067ffffffffffffffff82111561122d57600080fd5b602082029050602081019050919050565b600067ffffffffffffffff82111561125557600080fd5b602082029050602081019050919050565b600067ffffffffffffffff82111561127d57600080fd5b602082029050602081019050919050565b600067ffffffffffffffff8211156112a557600080fd5b602082029050602081019050919050565b600067ffffffffffffffff8211156112cd57600080fd5b602082029050602081019050919050565b600067ffffffffffffffff8211156112f557600080fd5b601f19601f8301169050602081019050919050565b600081519050919050565b600061132082611349565b9050919050565b60008115159050919050565b6000600d8210151561134157fe5b819050919050565b600073ffffffffffffffffffffffffffffffffffffffff82169050919050565b6000819050919050565b600061137e82611349565b9050919050565b600061139082611349565b9050919050565b60008115159050919050565b6000600d821015156113b457600080fd5b819050919050565b6000819050919050565b60006113d1826113ea565b9050919050565b60006113e382611333565b9050919050565b60006113f5826113fc565b9050919050565b600061140782611349565b9050919050565b82818337600083830152505050565b60005b8381101561143b578082015181840152602081019050611420565b8381111561144a576000848401525b50505050565b6000601f19601f830116905091905056fea265627a7a72305820edc7974e00b87e25cb9ec0a84de4e07fd6be286d0049c8a2b9dfbde473cd1c206c6578706572696d656e74616cf50037",
  "source": "pragma solidity ^0.5.0;\npragma experimental ABIEncoderV2;\n\nimport \"openzeppelin-solidity/contracts/ownership/Ownable.sol\";\nimport \"./common/GEnum.sol\";\nimport \"./modules/interfaces/MerchantModule.sol\";\nimport \"./modules/interfaces/SubscriptionModule.sol\";\n\ncontract BulkExecutor is Ownable {\n\n    event SuccessSplit(\n        address indexed subscriptionModule,\n        address indexed merchantModule,\n        address indexed asset\n    );\n\n    function bulkExecute(\n        address[] memory customers,\n        address payable[] memory to,\n        uint256[] memory value,\n        bytes[] memory data,\n        GEnum.Period[] memory period,\n        uint256[] memory startDate,\n        uint256[] memory endDate,\n        uint256[] memory uniqId,\n        bytes[] memory sig\n    )\n    public\n    returns (\n        uint256 i\n    )\n    {\n        i = 0;\n\n        bool[] memory toSplit = new bool[](customers.length);\n        address[2] memory holder;\n\n        while (i < customers.length) {\n\n            toSplit[i] = false;\n            require(customers[i] >= holder[0], \"SORT CUSTOMERS ASC\");\n\n            if (customers[i] > holder[0]) {\n                holder[1] = address(0x1);\n                //SENTINEL_RESET\n            }\n            if (SM(customers[i]).execute(\n                    to[i],\n                    value[i],\n                    data[i],\n                    period[i],\n                    startDate[i],\n                    endDate[i],\n                    uniqId[i],\n                    sig[i]\n                )\n            ) {\n                if (to[i] != holder[1]) {\n                    toSplit[i] = true;\n                }\n            }\n\n            holder[1] = to[i];\n            i++;\n\n        }\n\n        i = 0;\n\n        for (i = 0; i < toSplit.length; i++) {\n\n            if (toSplit[i]) {\n\n                address payable merchant = to[i];\n                address asset = address(0);\n\n                //value of 0 means its paying via some smart contract(erc20 token, etc)\n                if (value[i] == uint(0)) {\n\n                    bytes memory _data = data[i];\n                    // extract the merchant from the data payload\n\n                    // solium-disable-next-line security/no-inline-assembly\n                    assembly {\n                        merchant := div(mload(add(add(_data, 0x20), 16)), 0x1000000000000000000000000)\n                    }\n\n                    //smart contract for the token\n                    asset = to[i];\n\n                }\n\n                if (MMInterface(merchant).split(asset)) {\n                    emit SuccessSplit(customers[i], merchant, asset);\n                }\n            }\n        }\n    }\n\n    /// @dev fail safe to execute the split, great for non workflow txns that place ether or tokens at merchant contract\n    function manualSplit(\n        address merchant,\n        address asset\n    )\n    public\n    returns (\n        bool success\n    ) {\n        return MMInterface(merchant).split(asset);\n    }\n}\n",
  "sourcePath": "/Users/andrewredden/Development/gh/safe-contracts/contracts/BulkExecutor.sol",
  "compiler": {
    "name": "solc",
    "version": "0.5.3+commit.10d17f24.Emscripten.clang"
  },
  "schemaVersion": "3.0.0-beta.2",
  "updatedAt": "2019-02-27T21:47:53.558Z",
  "devdoc": {
    "methods": {
      "isOwner()": {
        "return": "true if `msg.sender` is the owner of the contract."
      },
      "manualSplit(address,address)": {
        "details": "fail safe to execute the split, great for non workflow txns that place ether or tokens at merchant contract"
      },
      "owner()": {
        "return": "the address of the owner."
      },
      "renounceOwnership()": {
        "details": "Allows the current owner to relinquish control of the contract."
      },
      "transferOwnership(address)": {
        "details": "Allows the current owner to transfer control of the contract to a newOwner.",
        "params": {
          "newOwner": "The address to transfer ownership to."
        }
      }
    }
  },
  "userdoc": {
    "methods": {
      "renounceOwnership()": {
        "notice": "Renouncing to ownership will leave the contract without an owner. It will not be possible to call the functions with the `onlyOwner` modifier anymore."
      }
    }
  }
}