{
  "contractName": "BulkExecutor",
  "abi": [
    {
      "constant": false,
      "inputs": [],
      "name": "renounceOwnership",
      "outputs": [],
      "payable": false,
      "stateMutability": "nonpayable",
      "type": "function"
    },
    {
      "constant": true,
      "inputs": [],
      "name": "owner",
      "outputs": [
        {
          "name": "",
          "type": "address"
        }
      ],
      "payable": false,
      "stateMutability": "view",
      "type": "function"
    },
    {
      "constant": true,
      "inputs": [],
      "name": "isOwner",
      "outputs": [
        {
          "name": "",
          "type": "bool"
        }
      ],
      "payable": false,
      "stateMutability": "view",
      "type": "function"
    },
    {
      "constant": false,
      "inputs": [
        {
          "name": "newOwner",
          "type": "address"
        }
      ],
      "name": "transferOwnership",
      "outputs": [],
      "payable": false,
      "stateMutability": "nonpayable",
      "type": "function"
    },
    {
      "anonymous": false,
      "inputs": [],
      "name": "SuccessSplit",
      "type": "event"
    },
    {
      "anonymous": false,
      "inputs": [
        {
          "indexed": true,
          "name": "previousOwner",
          "type": "address"
        },
        {
          "indexed": true,
          "name": "newOwner",
          "type": "address"
        }
      ],
      "name": "OwnershipTransferred",
      "type": "event"
    },
    {
      "constant": false,
      "inputs": [
        {
          "name": "customers",
          "type": "address[]"
        },
        {
          "name": "to",
          "type": "address[]"
        },
        {
          "name": "value",
          "type": "uint256[]"
        },
        {
          "name": "data",
          "type": "bytes[]"
        },
        {
          "name": "operation",
          "type": "uint8[]"
        },
        {
          "name": "gasInfo",
          "type": "uint256[][]"
        },
        {
          "name": "gasToken",
          "type": "address[]"
        },
        {
          "name": "refundReceiver",
          "type": "address[]"
        },
        {
          "name": "metaSig",
          "type": "bytes[][]"
        }
      ],
      "name": "execute",
      "outputs": [
        {
          "name": "i",
          "type": "uint256"
        }
      ],
      "payable": false,
      "stateMutability": "nonpayable",
      "type": "function"
    }
  ],
  "bytecode": "0x6080604081905260008054600160a060020a0319163317808255600160a060020a0316917f8be0079c531659141344cd1fd0a4f28419497f9722a3daafe3b4186f6b6457e0908290a3610ef7806100576000396000f3fe608060405234801561001057600080fd5b506004361061005a5760e060020a6000350463715018a6811461005f5780638da5cb5b146100695780638f32d59b146100875780638f416d281461009c578063f2fde38b146100bc575b600080fd5b6100676100cf565b005b610071610139565b60405161007e9190610cae565b60405180910390f35b61008f610148565b60405161007e9190610d88565b6100af6100aa366004610a8d565b610159565b60405161007e9190610d96565b6100676100ca366004610a67565b610592565b6100d7610148565b15156100e257600080fd5b60008054604051600160a060020a03909116907f8be0079c531659141344cd1fd0a4f28419497f9722a3daafe3b4186f6b6457e0908390a36000805473ffffffffffffffffffffffffffffffffffffffff19169055565b600054600160a060020a031690565b600054600160a060020a0316331490565b6000305b8a51821015610584578a8281518110151561017457fe5b90602001906020020151600160a060020a031663adc85d788b8481518110151561019a57fe5b906020019060200201518b858151811015156101b257fe5b906020019060200201518b868151811015156101ca57fe5b906020019060200201518b878151811015156101e257fe5b906020019060200201518b888151811015156101fa57fe5b90602001906020020151600081518110151561021257fe5b906020019060200201518c8981518110151561022a57fe5b90602001906020020151600181518110151561024257fe5b906020019060200201518d8a81518110151561025a57fe5b90602001906020020151600281518110151561027257fe5b906020019060200201518d8b81518110151561028a57fe5b906020019060200201518d8c8151811015156102a257fe5b906020019060200201518d8d8151811015156102ba57fe5b9060200190602002015160008151811015156102d257fe5b906020019060200201518e8e8151811015156102ea57fe5b90602001906020020151600181518110151561030257fe5b906020019060200201516040518c63ffffffff1660e060020a0281526004016103359b9a99989796959493929190610cd0565b602060405180830381600087803b15801561034f57600080fd5b505af1158015610363573d6000803e3d6000fd5b505050506040513d601f19601f820116820180604052506103879190810190610c28565b15610579576000898381518110151561039c57fe5b9060200190602002015114156104b1576000606089848151811015156103be57fe5b9060200190602002015190506c01000000000000000000000000601060208301015104915081600160a060020a03166356fa47f08d8681518110151561040057fe5b906020019060200201516040518263ffffffff1660e060020a0281526004016104299190610cc2565b602060405180830381600087803b15801561044357600080fd5b505af1158015610457573d6000803e3d6000fd5b505050506040513d601f19601f8201168201806040525061047b9190810190610c28565b156104aa576040517f901812c5472c3b5819687640d5bcc74061c5f7c53436f9c2e8561a949be7e97a90600090a15b5050610579565b89828151811015156104bf57fe5b90602001906020020151600160a060020a03166356fa47f060006040518263ffffffff1660e060020a0281526004016104f89190610cc2565b602060405180830381600087803b15801561051257600080fd5b505af1158015610526573d6000803e3d6000fd5b505050506040513d601f19601f8201168201806040525061054a9190810190610c28565b15610579576040517f901812c5472c3b5819687640d5bcc74061c5f7c53436f9c2e8561a949be7e97a90600090a15b60019091019061015d565b509998505050505050505050565b61059a610148565b15156105a557600080fd5b6105ae816105b1565b50565b600160a060020a03811615156105c657600080fd5b60008054604051600160a060020a03808516939216917f8be0079c531659141344cd1fd0a4f28419497f9722a3daafe3b4186f6b6457e091a36000805473ffffffffffffffffffffffffffffffffffffffff1916600160a060020a0392909216919091179055565b600061063a8235610e18565b9392505050565b6000601f8201831361065257600080fd5b813561066561066082610dcb565b610da4565b9150818183526020840193506020810190508385602084028201111561068a57600080fd5b60005b838110156106b657816106a0888261062e565b845250602092830192919091019060010161068d565b5050505092915050565b6000601f820183136106d157600080fd5b81356106df61066082610dcb565b9150818183526020840193506020810190508385602084028201111561070457600080fd5b60005b838110156106b6578161071a888261062e565b8452506020928301929190910190600101610707565b6000601f8201831361074157600080fd5b813561074f61066082610dcb565b81815260209384019390925082018360005b838110156106b6578135860161077788826107ea565b8452506020928301929190910190600101610761565b6000601f8201831361079e57600080fd5b81356107ac61066082610dcb565b81815260209384019390925082018360005b838110156106b657813586016107d48882610914565b84525060209283019291909101906001016107be565b6000601f820183136107fb57600080fd5b813561080961066082610dcb565b81815260209384019390925082018360005b838110156106b657813586016108318882610a00565b845250602092830192919091019060010161081b565b6000601f8201831361085857600080fd5b813561086661066082610dcb565b81815260209384019390925082018360005b838110156106b6578135860161088e8882610a00565b8452506020928301929190910190600101610878565b6000601f820183136108b557600080fd5b81356108c361066082610dcb565b915081818352602084019350602081019050838560208402820111156108e857600080fd5b60005b838110156106b657816108fe8882610a4f565b84525060209283019291909101906001016108eb565b6000601f8201831361092557600080fd5b813561093361066082610dcb565b9150818183526020840193506020810190508385602084028201111561095857600080fd5b60005b838110156106b6578161096e8882610a5b565b845250602092830192919091019060010161095b565b6000601f8201831361099557600080fd5b81356109a361066082610dcb565b915081818352602084019350602081019050838560208402820111156109c857600080fd5b60005b838110156106b657816109de8882610a5b565b84525060209283019291909101906001016109cb565b600061063a8251610e23565b6000601f82018313610a1157600080fd5b8135610a1f61066082610dec565b91508082526020830160208301858383011115610a3b57600080fd5b610a46838284610e77565b50505092915050565b600061063a8235610e47565b600061063a8235610e44565b600060208284031215610a7957600080fd5b6000610a85848461062e565b949350505050565b60008060008060008060008060006101208a8c031215610aac57600080fd5b893567ffffffffffffffff811115610ac357600080fd5b610acf8c828d01610641565b99505060208a013567ffffffffffffffff811115610aec57600080fd5b610af88c828d016106c0565b98505060408a013567ffffffffffffffff811115610b1557600080fd5b610b218c828d01610984565b97505060608a013567ffffffffffffffff811115610b3e57600080fd5b610b4a8c828d01610847565b96505060808a013567ffffffffffffffff811115610b6757600080fd5b610b738c828d016108a4565b95505060a08a013567ffffffffffffffff811115610b9057600080fd5b610b9c8c828d0161078d565b94505060c08a013567ffffffffffffffff811115610bb957600080fd5b610bc58c828d01610641565b93505060e08a013567ffffffffffffffff811115610be257600080fd5b610bee8c828d016106c0565b9250506101008a013567ffffffffffffffff811115610c0c57600080fd5b610c188c828d01610730565b9150509295985092959850929598565b600060208284031215610c3a57600080fd5b6000610a8584846109f4565b610c4f81610e56565b82525050565b610c4f81610e18565b610c4f81610e23565b6000610c7282610e14565b808452610c86816020860160208601610e83565b610c8f81610eb3565b9093016020019392505050565b610c4f81610e61565b610c4f81610e44565b60208101610cbc8284610c55565b92915050565b60208101610cbc8284610c46565b6101608101610cdf828e610c46565b610cec602083018d610ca5565b8181036040830152610cfe818c610c67565b9050610d0d606083018b610c9c565b610d1a608083018a610ca5565b610d2760a0830189610ca5565b610d3460c0830188610ca5565b610d4160e0830187610c55565b610d4f610100830186610c55565b818103610120830152610d628185610c67565b9050818103610140830152610d778184610c67565b9d9c50505050505050505050505050565b60208101610cbc8284610c5e565b60208101610cbc8284610ca5565b60405181810167ffffffffffffffff81118282101715610dc357600080fd5b604052919050565b600067ffffffffffffffff821115610de257600080fd5b5060209081020190565b600067ffffffffffffffff821115610e0357600080fd5b506020601f91909101601f19160190565b5190565b6000610cbc82610e38565b151590565b600060038210610e3457fe5b5090565b600160a060020a031690565b90565b600060038210610e3457600080fd5b6000610cbc82610e6c565b6000610cbc82610e28565b6000610cbc82610e18565b82818337506000910152565b60005b83811015610e9e578181015183820152602001610e86565b83811115610ead576000848401525b50505050565b601f01601f19169056fea265627a7a72305820f869aa793e8fb2ce89218e716f708f7b27817560f9d3e5c145bf761a8a3428ee6c6578706572696d656e74616cf50037",
  "source": "pragma solidity ^0.5.0;\npragma experimental ABIEncoderV2;\n\nimport \"openzeppelin-solidity/contracts/ownership/Ownable.sol\";\nimport \"./modules/MerchantModule.sol\";\n\ncontract BulkExecutor is Ownable {\n\n\n    event SuccessSplit();\n\n    function execute(\n        address[] memory customers,\n        address payable[] memory to,\n        uint256[] memory value,\n        bytes[] memory data,\n        Enum.Operation[] memory operation,\n        uint256[][] memory gasInfo, //0 txgas 1dataGas 2 gasPrice\n        address[] memory gasToken,\n        address payable[] memory refundReceiver,\n        bytes[][] memory metaSig\n    )\n    public\n    returns (\n        uint256 i\n    )\n    {\n        i = 0;\n        address transferDecode = address(this);\n        while (i < customers.length) {\n\n            if (SM(customers[i]).execSubscription(\n                    to[i],\n                    value[i],\n                    data[i],\n                    operation[i],\n                    gasInfo[i][0], //txgas\n                    gasInfo[i][1], //datagas\n                    gasInfo[i][2], //gasPrice\n                    gasToken[i],\n                    refundReceiver[i],\n                    metaSig[i][0], //meta\n                    metaSig[i][1]  //sigs\n                )\n            ) {\n\n                if (value[i] == uint(0)) {\n\n                    address payable splitter;\n                    bytes memory dataLocal = data[i];\n                    // solium-disable-next-line security/no-inline-assembly\n                    assembly {\n                        splitter := div(mload(add(add(dataLocal, 0x20), 16)), 0x1000000000000000000000000)\n                    }\n\n                    if ((MerchantModule(splitter).split(to[i]))) {\n                        emit SuccessSplit();\n                    }\n\n                } else {\n                    if (MerchantModule(address(to[i])).split(address(0))) {\n                        emit SuccessSplit();\n                    }\n                }\n            }\n            i++;\n        }\n    }\n}\n",
  "sourcePath": "/Users/andrewredden/Development/gh/safe-contracts/contracts/BulkExecutor.sol",
  "compiler": {
    "name": "solc",
    "version": "0.5.3+commit.10d17f24.Emscripten.clang"
  },
  "schemaVersion": "3.0.0-beta.2",
  "updatedAt": "2019-02-06T18:44:16.335Z",
  "devdoc": {
    "methods": {
      "isOwner()": {
        "return": "true if `msg.sender` is the owner of the contract."
      },
      "owner()": {
        "return": "the address of the owner."
      },
      "renounceOwnership()": {
        "details": "Allows the current owner to relinquish control of the contract."
      },
      "transferOwnership(address)": {
        "details": "Allows the current owner to transfer control of the contract to a newOwner.",
        "params": {
          "newOwner": "The address to transfer ownership to."
        }
      }
    }
  },
  "userdoc": {
    "methods": {
      "renounceOwnership()": {
        "notice": "Renouncing to ownership will leave the contract without an owner. It will not be possible to call the functions with the `onlyOwner` modifier anymore."
      }
    }
  }
}