{
  "contractName": "CreateAndAddModules",
  "abi": [
    {
      "constant": false,
      "inputs": [
        {
          "name": "module",
          "type": "address"
        }
      ],
      "name": "enableModule",
      "outputs": [],
      "payable": false,
      "stateMutability": "nonpayable",
      "type": "function"
    },
    {
      "constant": false,
      "inputs": [
        {
          "name": "proxyFactory",
          "type": "address"
        },
        {
          "name": "data",
          "type": "bytes"
        }
      ],
      "name": "createAndAddModules",
      "outputs": [],
      "payable": false,
      "stateMutability": "nonpayable",
      "type": "function"
    },
    {
      "constant": false,
      "inputs": [
        {
          "name": "proxy",
          "type": "address"
        },
        {
          "name": "data",
          "type": "bytes"
        }
      ],
      "name": "createNoFactory",
      "outputs": [],
      "payable": false,
      "stateMutability": "nonpayable",
      "type": "function"
    }
  ],
  "bytecode": "0x608060405234801561001057600080fd5b5061044b806100206000396000f3fe608060405234801561001057600080fd5b506004361061005d577c0100000000000000000000000000000000000000000000000000000000600035046360df7f588114610062578063610b59251461011a57806371a5a9e614610140575b600080fd5b6101186004803603604081101561007857600080fd5b600160a060020a0382351691908101906040810160208201356401000000008111156100a357600080fd5b8201836020820111156100b557600080fd5b803590602001918460018302840111640100000000831117156100d757600080fd5b91908080601f0160208091040260200160405190810160405280939291908181526020018383808284376000920191909152509295506101f6945050505050565b005b6101186004803603602081101561013057600080fd5b5035600160a060020a031661005d565b6101186004803603604081101561015657600080fd5b600160a060020a03823516919081019060408101602082013564010000000081111561018157600080fd5b82018360208201111561019357600080fd5b803590602001918460018302840111640100000000831117156101b557600080fd5b91908080601f0160208091040260200160405190810160405280939291908181526020018383808284376000920191909152509295506102e1945050505050565b80516000805b828110156102da5780840160200151818501604001604051600060208285858c5af4141561022957600080fd5b600160a060020a038151169450602080601f850104026020018401935050505030600160a060020a031663610b5925836040518263ffffffff167c01000000000000000000000000000000000000000000000000000000000281526004018082600160a060020a0316600160a060020a03168152602001915050600060405180830381600087803b1580156102bd57600080fd5b505af11580156102d1573d6000803e3d6000fd5b505050506101fc565b5050505050565b600160a060020a0382161515610342576040517f08c379a00000000000000000000000000000000000000000000000000000000081526004018080602001828103825260408152602001806103e06040913960400191505060405180910390fd5b60008151111561035f5760008060008351602085016000875af150505b604080517f610b5925000000000000000000000000000000000000000000000000000000008152600160a060020a038416600482015290518391309163610b59259160248082019260009290919082900301818387803b1580156103c257600080fd5b505af11580156103d6573d6000803e3d6000fd5b5050505050505056fe637265617465416e644164644d6f64756c65733a3a6372656174654e6f466163746f727920494e56414c49445f444154413a2050524f58595f41444452455353a165627a7a7230582059cbed51b73a560319d1007d5b352bc3c0c7ca2dbaef4561eb28a19c4192da570029",
  "source": "pragma solidity ^0.5.0;\n\nimport \"../base/Module.sol\";\n\n\n/// @title Create and Add Modules - Allows to create and add multiple module in one transaction.\n/// @author Stefan George - <stefan@gnosis.pm>\n/// @author Richard Meissner - <richard@gnosis.pm>\ncontract CreateAndAddModules {\n\n    /// @dev Function required to compile contract. Gnosis Safe function is called instead.\n    /// @param module Not used.\n    function enableModule(Module module)\n    public\n    {\n        revert();\n    }\n\n    /// @dev Allows to create and add multiple module in one transaction.\n    /// @param proxyFactory Module proxy factory contract.\n    /// @param data Modules constructor payload. This is the data for each proxy factory call concatinated. (e.g. <byte_array_len_1><byte_array_data_1><byte_array_len_2><byte_array_data_2>)\n    function createAndAddModules(address proxyFactory, bytes memory data)\n    public\n    {\n        uint256 length = data.length;\n        Module module;\n        uint256 i = 0;\n        while (i < length) {\n            // solium-disable-next-line security/no-inline-assembly\n            assembly {\n                let createBytesLength := mload(add(0x20, add(data, i)))\n                let createBytes := add(0x40, add(data, i))\n\n                let output := mload(0x40)\n                if eq(delegatecall(gas, proxyFactory, createBytes, createBytesLength, output, 0x20), 0) {revert(0, 0)}\n                module := and(mload(output), 0xffffffffffffffffffffffffffffffffffffffff)\n\n            // Data is always padded to 32 bytes\n                i := add(i, add(0x20, mul(div(add(createBytesLength, 0x1f), 0x20), 0x20)))\n            }\n            this.enableModule(module);\n        }\n    }\n    /// @dev Allows to create and add multiple module in one transaction.\n    function createNoFactory(address proxy, bytes memory data)\n    public\n    {\n\n        require(proxy != address(0), \"createAndAddModules::createNoFactory INVALID_DATA: PROXY_ADDRESS\");\n\n        if (data.length > 0) {\n            // solium-disable-next-line security/no-inline-assembly\n            assembly {\n                if eq(call(gas, proxy, 0, add(data, 0x20), mload(data), 0, 0), 0) {}\n            }\n        }\n\n        Module module = Module(proxy);\n        this.enableModule(module);\n\n    }\n}\n",
  "sourcePath": "/Users/andrewredden/Development/gh/safe-contracts/contracts/libraries/CreateAndAddModules.sol",
  "compiler": {
    "name": "solc",
    "version": "0.5.3+commit.10d17f24.Emscripten.clang"
  },
  "schemaVersion": "3.0.0-beta.2",
  "updatedAt": "2019-02-04T16:48:25.944Z",
  "devdoc": {
    "author": "Stefan George - <stefan@gnosis.pm>Richard Meissner - <richard@gnosis.pm>",
    "methods": {
      "createAndAddModules(address,bytes)": {
        "details": "Allows to create and add multiple module in one transaction.",
        "params": {
          "data": "Modules constructor payload. This is the data for each proxy factory call concatinated. (e.g. <byte_array_len_1><byte_array_data_1><byte_array_len_2><byte_array_data_2>)",
          "proxyFactory": "Module proxy factory contract."
        }
      },
      "createNoFactory(address,bytes)": {
        "details": "Allows to create and add multiple module in one transaction."
      },
      "enableModule(address)": {
        "details": "Function required to compile contract. Gnosis Safe function is called instead.",
        "params": {
          "module": "Not used."
        }
      }
    },
    "title": "Create and Add Modules - Allows to create and add multiple module in one transaction."
  },
  "userdoc": {
    "methods": {}
  }
}