{
  "contractName": "DSFeed",
  "abi": [
    {
      "constant": true,
      "inputs": [],
      "name": "read",
      "outputs": [
        {
          "name": "",
          "type": "bytes32"
        }
      ],
      "payable": false,
      "stateMutability": "view",
      "type": "function"
    }
  ],
  "bytecode": "0x6080604052348015600f57600080fd5b5060a08061001e6000396000f3fe608060405260043610603e5763ffffffff7c010000000000000000000000000000000000000000000000000000000060003504166357de26a481146043575b600080fd5b348015604e57600080fd5b5060556067565b60408051918252519081900360200190f35b68064eec68b56444c0009056fea165627a7a723058208b264b8a4e22aeb04dd59a29fdf5f1ce715cc1ea6e636462dda68045e06b20c70029",
  "source": "pragma solidity ^0.5.0;\n\ncontract DSFeed {\n    function read()\n    public\n    view\n    returns (bytes32)\n    {\n        return 0x0000000000000000000000000000000000000000000000064eec68b56444c000;\n    }\n}\n",
  "sourcePath": "/Users/rmoore/development/groundhog/safe-groundhog/contracts/DSFeed.sol",
  "compiler": {
    "name": "solc",
    "version": "0.5.0+commit.1d4f565a.Emscripten.clang"
  },
  "schemaVersion": "3.0.1",
  "updatedAt": "2019-01-22T15:35:25.701Z",
  "devdoc": {
    "methods": {}
  },
  "userdoc": {
    "methods": {}
  }
}