{
  "contractName": "MerchantModule",
  "abi": [
    {
      "constant": true,
      "inputs": [],
      "name": "manager",
      "outputs": [
        {
          "name": "",
          "type": "address"
        }
      ],
      "payable": false,
      "stateMutability": "view",
      "type": "function"
    },
    {
      "constant": true,
      "inputs": [],
      "name": "oracleRegistry",
      "outputs": [
        {
          "name": "",
          "type": "address"
        }
      ],
      "payable": false,
      "stateMutability": "view",
      "type": "function"
    },
    {
      "constant": false,
      "inputs": [
        {
          "name": "_masterCopy",
          "type": "address"
        }
      ],
      "name": "changeMasterCopy",
      "outputs": [],
      "payable": false,
      "stateMutability": "nonpayable",
      "type": "function"
    },
    {
      "payable": true,
      "stateMutability": "payable",
      "type": "fallback"
    },
    {
      "anonymous": false,
      "inputs": [
        {
          "indexed": false,
          "name": "asset",
          "type": "address"
        },
        {
          "indexed": false,
          "name": "receiver",
          "type": "address"
        },
        {
          "indexed": false,
          "name": "payment",
          "type": "uint256"
        }
      ],
      "name": "PaymentSent",
      "type": "event"
    },
    {
      "constant": false,
      "inputs": [
        {
          "name": "_oracleRegistry",
          "type": "address"
        }
      ],
      "name": "setup",
      "outputs": [],
      "payable": false,
      "stateMutability": "nonpayable",
      "type": "function"
    },
    {
      "constant": false,
      "inputs": [
        {
          "name": "tokenAddress",
          "type": "address"
        }
      ],
      "name": "split",
      "outputs": [
        {
          "name": "",
          "type": "bool"
        }
      ],
      "payable": false,
      "stateMutability": "nonpayable",
      "type": "function"
    },
    {
      "constant": false,
      "inputs": [
        {
          "name": "customer",
          "type": "address"
        },
        {
          "name": "to",
          "type": "address"
        },
        {
          "name": "value",
          "type": "uint256"
        },
        {
          "name": "data",
          "type": "bytes"
        },
        {
          "name": "period",
          "type": "uint8"
        },
        {
          "name": "startDate",
          "type": "uint256"
        },
        {
          "name": "endDate",
          "type": "uint256"
        },
        {
          "name": "uniqId",
          "type": "uint256"
        },
        {
          "name": "signatures",
          "type": "bytes"
        }
      ],
      "name": "cancelCXSubscription",
      "outputs": [],
      "payable": false,
      "stateMutability": "nonpayable",
      "type": "function"
    }
  ],
  "bytecode": "0x608060405234801561001057600080fd5b50611454806100206000396000f3fe6080604052600436106100585760e060020a6000350463481c6a75811461005a5780634bb93ab11461008b57806356fa47f0146100a05780635b30f686146100e757806366d382031461025d5780637de7edef14610290575b005b34801561006657600080fd5b5061006f6102c3565b60408051600160a060020a039092168252519081900360200190f35b34801561009757600080fd5b5061006f6102d2565b3480156100ac57600080fd5b506100d3600480360360208110156100c357600080fd5b5035600160a060020a03166102e1565b604080519115158252519081900360200190f35b3480156100f357600080fd5b50610058600480360361012081101561010b57600080fd5b600160a060020a0382358116926020810135909116916040820135919081019060808101606082013564010000000081111561014657600080fd5b82018360208201111561015857600080fd5b8035906020019184600183028401116401000000008311171561017a57600080fd5b91908080601f016020809104026020016040519081016040528093929190818152602001838380828437600092019190915250929560ff8535169560208601359560408101359550606081013594509192509060a0810190608001356401000000008111156101e857600080fd5b8201836020820111156101fa57600080fd5b8035906020019184600183028401116401000000008311171561021c57600080fd5b91908080601f016020809104026020016040519081016040528093929190818152602001838380828437600092019190915250929550610d45945050505050565b34801561026957600080fd5b506100586004803603602081101561028057600080fd5b5035600160a060020a0316610f22565b34801561029c57600080fd5b50610058600480360360208110156102b357600080fd5b5035600160a060020a0316610fa4565b600154600160a060020a031681565b600254600160a060020a031681565b600254604080517f913c0f340000000000000000000000000000000000000000000000000000000081529051600092600160a060020a03169163913c0f34916004808301926020929190829003018186803b15801561033f57600080fd5b505afa158015610353573d6000803e3d6000fd5b505050506040513d602081101561036957600080fd5b5051600160a060020a031633146103b45760405160e560020a62461bcd02815260040180806020018281038252603c815260200180611309603c913960400191505060405180910390fd5b600254604080517f5630c5260000000000000000000000000000000000000000000000000000000081529051600092600160a060020a031691635630c526916004808301926020929190829003018186803b15801561041257600080fd5b505afa158015610426573d6000803e3d6000fd5b505050506040513d602081101561043c57600080fd5b5051600154909150600160a060020a03908116908416151561074f57303180151561046d5760009350505050610d40565b600254604080517f719a7e8e00000000000000000000000000000000000000000000000000000000815260006004820181905291519192600160a060020a03169163719a7e8e91602480820192602092909190829003018186803b1580156104d457600080fd5b505afa1580156104e8573d6000803e3d6000fd5b505050506040513d60208110156104fe57600080fd5b50519050600160a060020a0380851631908416316000610524858563ffffffff61106916565b90506000610538868363ffffffff6110a016565b9050818111610591576040805160e560020a62461bcd02815260206004820152601760248201527f53504c4954204d41544820495320494e434f5252454354000000000000000000604482015290519081900360640190fd5b604051600160a060020a0389169083156108fc029084906000818181858888f193505050501580156105c7573d6000803e3d6000fd5b506040805160008152600160a060020a038a16602082015280820184905290516000805160206113b18339815191529181900360600190a1604051600160a060020a0388169082156108fc029083906000818181858888f19350505050158015610635573d6000803e3d6000fd5b506040805160008152600160a060020a038916602082015280820183905290516000805160206113b18339815191529181900360600190a13031156106c4576040805160e560020a62461bcd02815260206004820152601060248201527f42414c414e4345204e4f54205a45524f00000000000000000000000000000000604482015290519081900360640190fd5b600160a060020a038816316106df858463ffffffff6110b616565b1480156107045750600160a060020a03871631610702848363ffffffff6110b616565b145b15156107445760405160e560020a62461bcd0281526004018080602001828103825260338152602001806113456033913960400191505060405180910390fd5b505050505050610d39565b6040805160e060020a6370a0823102815230600482015290518591600091600160a060020a038416916370a08231916024808301926020929190829003018186803b15801561079d57600080fd5b505afa1580156107b1573d6000803e3d6000fd5b505050506040513d60208110156107c757600080fd5b505190508015156107df576000945050505050610d40565b600254604080517f719a7e8e000000000000000000000000000000000000000000000000000000008152600160a060020a0385811660048301529151600093929092169163719a7e8e91602480820192602092909190829003018186803b15801561084957600080fd5b505afa15801561085d573d6000803e3d6000fd5b505050506040513d602081101561087357600080fd5b50516040805160e060020a6370a08231028152600160a060020a0387811660048301529151929350600092918616916370a0823191602480820192602092909190829003018186803b1580156108c857600080fd5b505afa1580156108dc573d6000803e3d6000fd5b505050506040513d60208110156108f257600080fd5b50516040805160e060020a6370a08231028152600160a060020a0389811660048301529151929350600092918716916370a0823191602480820192602092909190829003018186803b15801561094757600080fd5b505afa15801561095b573d6000803e3d6000fd5b505050506040513d602081101561097157600080fd5b505190506000610987858563ffffffff61106916565b9050600061099b868363ffffffff6110a016565b9050856109ae838363ffffffff6110b616565b146109ed5760405160e560020a62461bcd0281526004018080602001828103825260328152602001806113f76032913960400191505060405180910390fd5b6109f8878a846110c6565b1515610a385760405160e560020a62461bcd02815260040180806020018281038252603b815260200180611292603b913960400191505060405180910390fd5b60408051600160a060020a03808a1682528b16602082015280820184905290516000805160206113b18339815191529181900360600190a1610a7b8789836110c6565b1515610abb5760405160e560020a62461bcd02815260040180806020018281038252603c8152602001806112cd603c913960400191505060405180910390fd5b60408051600160a060020a03808a1682528a16602082015280820183905290516000805160206113b18339815191529181900360600190a16040805160e060020a6370a082310281523060048201529051600160a060020a038916916370a08231916024808301926020929190829003018186803b158015610b3c57600080fd5b505afa158015610b50573d6000803e3d6000fd5b505050506040513d6020811015610b6657600080fd5b505115610bbd576040805160e560020a62461bcd02815260206004820152601060248201527f42414c414e4345204e4f54205a45524f00000000000000000000000000000000604482015290519081900360640190fd5b86600160a060020a03166370a082318a6040518263ffffffff1660e060020a0281526004018082600160a060020a0316600160a060020a0316815260200191505060206040518083038186803b158015610c1657600080fd5b505afa158015610c2a573d6000803e3d6000fd5b505050506040513d6020811015610c4057600080fd5b5051610c52848463ffffffff6110b616565b148015610cf1575086600160a060020a03166370a08231896040518263ffffffff1660e060020a0281526004018082600160a060020a0316600160a060020a0316815260200191505060206040518083038186803b158015610cb357600080fd5b505afa158015610cc7573d6000803e3d6000fd5b505050506040513d6020811015610cdd57600080fd5b5051610cef858363ffffffff6110b616565b145b1515610d315760405160e560020a62461bcd0281526004018080602001828103825260398152602001806113786039913960400191505060405180910390fd5b505050505050505b6001925050505b919050565b600154600160a060020a03163314610d915760405160e560020a62461bcd0281526004018080602001828103825260268152602001806113d16026913960400191505060405180910390fd5b88600160a060020a031663c0ab963d89898989898989896040518963ffffffff1660e060020a0281526004018089600160a060020a0316600160a060020a03168152602001888152602001806020018760ff1660ff16815260200186815260200185815260200184815260200180602001838103835289818151815260200191508051906020019080838360005b83811015610e37578181015183820152602001610e1f565b50505050905090810190601f168015610e645780820380516001836020036101000a031916815260200191505b50838103825284518152845160209182019186019080838360005b83811015610e97578181015183820152602001610e7f565b50505050905090810190601f168015610ec45780820380516001836020036101000a031916815260200191505b509a5050505050505050505050602060405180830381600087803b158015610eeb57600080fd5b505af1158015610eff573d6000803e3d6000fd5b505050506040513d6020811015610f1557600080fd5b5050505050505050505050565b610f2a61118a565b600254600160a060020a031615610f755760405160e560020a62461bcd0281526004018080602001828103825260398152602001806112596039913960400191505060405180910390fd5b6002805473ffffffffffffffffffffffffffffffffffffffff1916600160a060020a0392909216919091179055565b600154600160a060020a03163314610ff05760405160e560020a62461bcd0281526004018080602001828103825260268152602001806113d16026913960400191505060405180910390fd5b600160a060020a038116151561103a5760405160e560020a62461bcd0281526004018080602001828103825260248152602001806112356024913960400191505060405180910390fd5b6000805473ffffffffffffffffffffffffffffffffffffffff1916600160a060020a0392909216919091179055565b6000670de0b6b3a764000061108f611081858561120c565b6706f05b59d3b200006110b6565b81151561109857fe5b049392505050565b808203828111156110b057600080fd5b92915050565b808201828110156110b057600080fd5b60408051600160a060020a038416602482015260448082018490528251808303909101815260649091019091526020810180517bffffffffffffffffffffffffffffffffffffffffffffffffffffffff167fa9059cbb000000000000000000000000000000000000000000000000000000001781528151600092918391829182896127105a03f16040513d6000823e3d801561116d5760208114611175576000945061117f565b82945061117f565b8151158315171594505b505050509392505050565b600154600160a060020a0316156111eb576040805160e560020a62461bcd02815260206004820152601c60248201527f4d616e616765722068617320616c7265616479206265656e2073657400000000604482015290519081900360640190fd5b6001805473ffffffffffffffffffffffffffffffffffffffff191633179055565b600081158061122957505080820282828281151561122657fe5b04145b15156110b057600080fdfe496e76616c6964206d617374657220636f707920616464726573732070726f76696465644d65726368616e744d6f64756c653a3a73657475703a20494e56414c49445f53544154453a204f5241434c455f52454749535452595f5345544d65726368616e744d6f64756c653a3a77697468647261773a20494e56414c49445f4558454320544f4b454e5f4e4554574f524b5f5041594f55544d65726368616e744d6f64756c653a3a77697468647261773a20494e56414c49445f4558454320544f4b454e5f4d45524348414e545f5041594f55544d65726368616e744d6f64756c653a3a73706c69743a20494e56414c49445f444154413a204d53475f53454e4445525f4e4f545f4558454355544f524d65726368616e744d6f64756c653a3a77697468647261773a20494e56414c49445f455845432053504c49545f5041594f55544d65726368616e744d6f64756c653a3a77697468647261773a20494e56414c49445f4558454320544f4b454e5f53504c49545f5041594f5554d52bd61f7c422d441e024604f4517878fd3305d6acf0fe37baef23ed21af6bc94d6574686f642063616e206f6e6c792062652063616c6c65642066726f6d206d616e616765724d65726368616e744d6f64756c653a3a77697468647261773a20494e56414c49445f4558454320544f4b454e5f53504c4954a165627a7a723058209924e381815b94bd3383df67d8f348eb4a54c74c2f37521f201c07727e3bb42b0029",
  "source": "pragma solidity ^0.5.0;\n\nimport \"../base/Module.sol\";\nimport \"./interfaces/SubscriptionModule.sol\";\nimport \"../external/Math.sol\";\nimport \"../interfaces/OracleRegistryI.sol\";\nimport \"../common/SecuredTokenTransfer.sol\";\n\ninterface ERC20 {\n    function totalSupply() external view returns (uint256 supply);\n\n    function balanceOf(address _owner) external view returns (uint256 balance);\n\n    function transfer(address _to, uint256 _value) external returns (bool success);\n\n    function transferFrom(address _from, address _to, uint256 _value) external returns (bool success);\n\n    function approve(address _spender, uint256 _value) external returns (bool success);\n\n    function allowance(address _owner, address _spender) external view returns (uint256 remaining);\n\n    function decimals() external view returns (uint256 digits);\n\n    event Approval(address indexed _owner, address indexed _spender, uint256 _value);\n}\n\n\ncontract MerchantModule is Module, SecuredTokenTransfer {\n\n    using DSMath for uint256;\n\n    OracleRegistryI public oracleRegistry;\n\n    event PaymentSent(address asset, address receiver, uint256 payment);\n\n    modifier onlyExecutor() {\n        require(\n            msg.sender == oracleRegistry.getNetworkExecutor(),\n            \"MerchantModule::split: INVALID_DATA: MSG_SENDER_NOT_EXECUTOR\"\n        );\n        _;\n    }\n    function setup(address _oracleRegistry)\n    public\n    {\n        setManager();\n        require(\n            address(oracleRegistry) == address(0),\n            \"MerchantModule::setup: INVALID_STATE: ORACLE_REGISTRY_SET\"\n        );\n        oracleRegistry = OracleRegistryI(_oracleRegistry);\n    }\n\n    function()\n    payable\n    external\n    {\n    }\n\n    function split(\n        address tokenAddress\n    )\n    public\n    onlyExecutor\n    returns (bool)\n    {\n\n\n        address payable networkWallet = oracleRegistry.getNetworkWallet();\n        address payable merchantWallet = address(manager);\n\n        if (tokenAddress == address(0)) {\n\n            uint256 splitterBalanceStart = address(this).balance;\n            if (splitterBalanceStart == 0) return false;\n            //\n            uint256 fee = oracleRegistry.getNetworkFee(address(0));\n\n\n            uint256 networkBalanceStart = networkWallet.balance;\n\n            uint256 merchantBalanceStart = merchantWallet.balance;\n\n\n            uint256 networkSplit = splitterBalanceStart.wmul(fee);\n\n            uint256 merchantSplit = splitterBalanceStart.sub(networkSplit);\n\n\n            require(merchantSplit > networkSplit, \"SPLIT MATH IS INCORRECT\");\n            //pay network\n\n            networkWallet.transfer(networkSplit);\n            emit PaymentSent(address(0x0), networkWallet, networkSplit);\n            //pay merchant\n\n            merchantWallet.transfer(merchantSplit);\n            emit PaymentSent(address(0x0), merchantWallet, merchantSplit);\n\n            require(address(this).balance == 0, \"BALANCE NOT ZERO\");\n            require(\n                (networkBalanceStart.add(networkSplit) == networkWallet.balance)\n                &&\n                (merchantBalanceStart.add(merchantSplit) == merchantWallet.balance),\n                \"MerchantModule::withdraw: INVALID_EXEC SPLIT_PAYOUT\"\n            );\n        } else {\n\n            ERC20 token = ERC20(tokenAddress);\n\n            uint256 splitterBalanceStart = token.balanceOf(address(this));\n\n            if (splitterBalanceStart == 0) return false;\n\n            uint256 fee = oracleRegistry.getNetworkFee(address(token));\n\n\n            uint256 merchantBalanceStart = token.balanceOf(merchantWallet);\n\n            uint256 networkBalanceStart = token.balanceOf(networkWallet);\n\n\n            uint256 networkSplit = splitterBalanceStart.wmul(fee);\n\n\n            uint256 merchantSplit = splitterBalanceStart.sub(networkSplit);\n\n\n            require(\n                networkSplit.add(merchantSplit) == splitterBalanceStart,\n                \"MerchantModule::withdraw: INVALID_EXEC TOKEN_SPLIT\"\n            );\n\n            //pay network\n\n            require(\n                transferToken(address(token), networkWallet, networkSplit),\n                \"MerchantModule::withdraw: INVALID_EXEC TOKEN_NETWORK_PAYOUT\"\n            );\n\n            emit PaymentSent(address(token), networkWallet, networkSplit);\n\n            //pay merchant\n            require(\n                transferToken(address(token), merchantWallet, merchantSplit),\n                \"MerchantModule::withdraw: INVALID_EXEC TOKEN_MERCHANT_PAYOUT\"\n            );\n            emit PaymentSent(address(token), merchantWallet, merchantSplit);\n\n            require(token.balanceOf(address(this)) == 0, \"BALANCE NOT ZERO\");\n\n        require(\n                (networkBalanceStart.add(networkSplit) == token.balanceOf(networkWallet))\n                &&\n                (merchantBalanceStart.add(merchantSplit) == token.balanceOf(merchantWallet)),\n                \"MerchantModule::withdraw: INVALID_EXEC TOKEN_SPLIT_PAYOUT\"\n            );\n        }\n        return true;\n    }\n\n\n    function cancelCXSubscription(\n        address customer,\n        address to,\n        uint256 value,\n        bytes memory data,\n        uint8 period,\n        uint256 startDate,\n        uint256 endDate,\n        uint256 uniqId,\n        bytes memory signatures\n    )\n    public\n    authorized\n    {\n        SM(customer).cancelSubscriptionAsRecipient(\n            to,\n            value,\n            data,\n            period,\n            startDate,\n            endDate,\n            uniqId,\n            signatures\n        );\n    }\n\n}\n",
  "sourcePath": "/Users/andrewredden/Development/gh/safe-contracts/contracts/modules/MerchantModule.sol",
  "compiler": {
    "name": "solc",
    "version": "0.5.3+commit.10d17f24.Emscripten.clang"
  },
  "schemaVersion": "3.0.0-beta.2",
  "updatedAt": "2019-02-24T21:08:44.201Z",
  "devdoc": {
    "methods": {
      "changeMasterCopy(address)": {
        "details": "Allows to upgrade the contract. This can only be done via a Safe transaction.",
        "params": {
          "_masterCopy": "New contract address."
        }
      }
    }
  },
  "userdoc": {
    "methods": {}
  }
}