{
  "contractName": "MerchantModule",
  "abi": [
    {
      "constant": true,
      "inputs": [],
      "name": "manager",
      "outputs": [
        {
          "name": "",
          "type": "address"
        }
      ],
      "payable": false,
      "stateMutability": "view",
      "type": "function"
    },
    {
      "constant": true,
      "inputs": [],
      "name": "oracleRegistry",
      "outputs": [
        {
          "name": "",
          "type": "address"
        }
      ],
      "payable": false,
      "stateMutability": "view",
      "type": "function"
    },
    {
      "constant": false,
      "inputs": [
        {
          "name": "_masterCopy",
          "type": "address"
        }
      ],
      "name": "changeMasterCopy",
      "outputs": [],
      "payable": false,
      "stateMutability": "nonpayable",
      "type": "function"
    },
    {
      "payable": true,
      "stateMutability": "payable",
      "type": "fallback"
    },
    {
      "anonymous": false,
      "inputs": [
        {
          "indexed": false,
          "name": "asset",
          "type": "address"
        },
        {
          "indexed": false,
          "name": "receiver",
          "type": "address"
        },
        {
          "indexed": false,
          "name": "payment",
          "type": "uint256"
        }
      ],
      "name": "PaymentSent",
      "type": "event"
    },
    {
      "constant": false,
      "inputs": [
        {
          "name": "_oracleRegistry",
          "type": "address"
        }
      ],
      "name": "setup",
      "outputs": [],
      "payable": false,
      "stateMutability": "nonpayable",
      "type": "function"
    },
    {
      "constant": false,
      "inputs": [
        {
          "name": "tokenAddress",
          "type": "address"
        }
      ],
      "name": "split",
      "outputs": [
        {
          "name": "",
          "type": "bool"
        }
      ],
      "payable": false,
      "stateMutability": "nonpayable",
      "type": "function"
    },
    {
      "constant": false,
      "inputs": [
        {
          "name": "customer",
          "type": "address"
        },
        {
          "name": "to",
          "type": "address"
        },
        {
          "name": "value",
          "type": "uint256"
        },
        {
          "name": "data",
          "type": "bytes"
        },
        {
          "name": "period",
          "type": "uint8"
        },
        {
          "name": "startDate",
          "type": "uint256"
        },
        {
          "name": "endDate",
          "type": "uint256"
        },
        {
          "name": "unique",
          "type": "uint256"
        },
        {
          "name": "signatures",
          "type": "bytes"
        }
      ],
      "name": "cancelCXSubscription",
      "outputs": [],
      "payable": false,
      "stateMutability": "nonpayable",
      "type": "function"
    }
  ],
  "bytecode": "0x608060405234801561001057600080fd5b50611f72806100206000396000f3fe608060405260043610610072576000357c010000000000000000000000000000000000000000000000000000000090048063481c6a75146100745780634bb93ab1146100cb57806356fa47f0146101225780635b30f6861461018b57806366d38203146103605780637de7edef146103b1575b005b34801561008057600080fd5b50610089610402565b604051808273ffffffffffffffffffffffffffffffffffffffff1673ffffffffffffffffffffffffffffffffffffffff16815260200191505060405180910390f35b3480156100d757600080fd5b506100e0610428565b604051808273ffffffffffffffffffffffffffffffffffffffff1673ffffffffffffffffffffffffffffffffffffffff16815260200191505060405180910390f35b34801561012e57600080fd5b506101716004803603602081101561014557600080fd5b81019080803573ffffffffffffffffffffffffffffffffffffffff16906020019092919050505061044e565b604051808215151515815260200191505060405180910390f35b34801561019757600080fd5b5061035e60048036036101208110156101af57600080fd5b81019080803573ffffffffffffffffffffffffffffffffffffffff169060200190929190803573ffffffffffffffffffffffffffffffffffffffff169060200190929190803590602001909291908035906020019064010000000081111561021657600080fd5b82018360208201111561022857600080fd5b8035906020019184600183028401116401000000008311171561024a57600080fd5b91908080601f016020809104026020016040519081016040528093929190818152602001838380828437600081840152601f19601f820116905080830192505050505050509192919290803560ff169060200190929190803590602001909291908035906020019092919080359060200190929190803590602001906401000000008111156102d857600080fd5b8201836020820111156102ea57600080fd5b8035906020019184600183028401116401000000008311171561030c57600080fd5b91908080601f016020809104026020016040519081016040528093929190818152602001838380828437600081840152601f19601f8201169050808301925050505050505091929192905050506115a2565b005b34801561036c57600080fd5b506103af6004803603602081101561038357600080fd5b81019080803573ffffffffffffffffffffffffffffffffffffffff16906020019092919050505061183c565b005b3480156103bd57600080fd5b50610400600480360360208110156103d457600080fd5b81019080803573ffffffffffffffffffffffffffffffffffffffff169060200190929190505050611931565b005b600160009054906101000a900473ffffffffffffffffffffffffffffffffffffffff1681565b600260009054906101000a900473ffffffffffffffffffffffffffffffffffffffff1681565b6000600260009054906101000a900473ffffffffffffffffffffffffffffffffffffffff1673ffffffffffffffffffffffffffffffffffffffff1663913c0f346040518163ffffffff167c010000000000000000000000000000000000000000000000000000000002815260040160206040518083038186803b1580156104d457600080fd5b505afa1580156104e8573d6000803e3d6000fd5b505050506040513d60208110156104fe57600080fd5b810190808051906020019092919050505073ffffffffffffffffffffffffffffffffffffffff163373ffffffffffffffffffffffffffffffffffffffff16141515610594576040517f08c379a000000000000000000000000000000000000000000000000000000000815260040180806020018281038252603c815260200180611e47603c913960400191505060405180910390fd5b6000600260009054906101000a900473ffffffffffffffffffffffffffffffffffffffff1673ffffffffffffffffffffffffffffffffffffffff16635630c5266040518163ffffffff167c010000000000000000000000000000000000000000000000000000000002815260040160206040518083038186803b15801561061a57600080fd5b505afa15801561062e573d6000803e3d6000fd5b505050506040513d602081101561064457600080fd5b810190808051906020019092919050505090506000600160009054906101000a900473ffffffffffffffffffffffffffffffffffffffff169050600073ffffffffffffffffffffffffffffffffffffffff168473ffffffffffffffffffffffffffffffffffffffff161415610bdb5760003073ffffffffffffffffffffffffffffffffffffffff1631905060008114156106e4576000935050505061159d565b6000600260009054906101000a900473ffffffffffffffffffffffffffffffffffffffff1673ffffffffffffffffffffffffffffffffffffffff1663719a7e8e60006040518263ffffffff167c0100000000000000000000000000000000000000000000000000000000028152600401808273ffffffffffffffffffffffffffffffffffffffff1673ffffffffffffffffffffffffffffffffffffffff16815260200191505060206040518083038186803b1580156107a257600080fd5b505afa1580156107b6573d6000803e3d6000fd5b505050506040513d60208110156107cc57600080fd5b8101908080519060200190929190505050905060008473ffffffffffffffffffffffffffffffffffffffff1631905060008473ffffffffffffffffffffffffffffffffffffffff16319050600061082c8486611aa490919063ffffffff16565b905060006108438287611ae890919063ffffffff16565b905081811115156108bc576040517f08c379a00000000000000000000000000000000000000000000000000000000081526004018080602001828103825260178152602001807f53504c4954204d41544820495320494e434f525245435400000000000000000081525060200191505060405180910390fd5b8773ffffffffffffffffffffffffffffffffffffffff166108fc839081150290604051600060405180830381858888f19350505050158015610902573d6000803e3d6000fd5b507fd52bd61f7c422d441e024604f4517878fd3305d6acf0fe37baef23ed21af6bc960008984604051808473ffffffffffffffffffffffffffffffffffffffff1673ffffffffffffffffffffffffffffffffffffffff1681526020018373ffffffffffffffffffffffffffffffffffffffff1673ffffffffffffffffffffffffffffffffffffffff168152602001828152602001935050505060405180910390a18673ffffffffffffffffffffffffffffffffffffffff166108fc829081150290604051600060405180830381858888f193505050501580156109e9573d6000803e3d6000fd5b507fd52bd61f7c422d441e024604f4517878fd3305d6acf0fe37baef23ed21af6bc960008883604051808473ffffffffffffffffffffffffffffffffffffffff1673ffffffffffffffffffffffffffffffffffffffff1681526020018373ffffffffffffffffffffffffffffffffffffffff1673ffffffffffffffffffffffffffffffffffffffff168152602001828152602001935050505060405180910390a160003073ffffffffffffffffffffffffffffffffffffffff1631141515610b19576040517f08c379a00000000000000000000000000000000000000000000000000000000081526004018080602001828103825260108152602001807f42414c414e4345204e4f54205a45524f0000000000000000000000000000000081525060200191505060405180910390fd5b8773ffffffffffffffffffffffffffffffffffffffff1631610b448386611b0490919063ffffffff16565b148015610b7957508673ffffffffffffffffffffffffffffffffffffffff1631610b778285611b0490919063ffffffff16565b145b1515610bd0576040517f08c379a0000000000000000000000000000000000000000000000000000000008152600401808060200182810382526033815260200180611e836033913960400191505060405180910390fd5b505050505050611596565b600084905060008173ffffffffffffffffffffffffffffffffffffffff166370a08231306040518263ffffffff167c0100000000000000000000000000000000000000000000000000000000028152600401808273ffffffffffffffffffffffffffffffffffffffff1673ffffffffffffffffffffffffffffffffffffffff16815260200191505060206040518083038186803b158015610c7b57600080fd5b505afa158015610c8f573d6000803e3d6000fd5b505050506040513d6020811015610ca557600080fd5b810190808051906020019092919050505090506000811415610cce57600094505050505061159d565b6000600260009054906101000a900473ffffffffffffffffffffffffffffffffffffffff1673ffffffffffffffffffffffffffffffffffffffff1663719a7e8e846040518263ffffffff167c0100000000000000000000000000000000000000000000000000000000028152600401808273ffffffffffffffffffffffffffffffffffffffff1673ffffffffffffffffffffffffffffffffffffffff16815260200191505060206040518083038186803b158015610d8b57600080fd5b505afa158015610d9f573d6000803e3d6000fd5b505050506040513d6020811015610db557600080fd5b8101908080519060200190929190505050905060008373ffffffffffffffffffffffffffffffffffffffff166370a08231866040518263ffffffff167c0100000000000000000000000000000000000000000000000000000000028152600401808273ffffffffffffffffffffffffffffffffffffffff1673ffffffffffffffffffffffffffffffffffffffff16815260200191505060206040518083038186803b158015610e6357600080fd5b505afa158015610e77573d6000803e3d6000fd5b505050506040513d6020811015610e8d57600080fd5b8101908080519060200190929190505050905060008473ffffffffffffffffffffffffffffffffffffffff166370a08231886040518263ffffffff167c0100000000000000000000000000000000000000000000000000000000028152600401808273ffffffffffffffffffffffffffffffffffffffff1673ffffffffffffffffffffffffffffffffffffffff16815260200191505060206040518083038186803b158015610f3b57600080fd5b505afa158015610f4f573d6000803e3d6000fd5b505050506040513d6020811015610f6557600080fd5b810190808051906020019092919050505090506000610f8d8486611aa490919063ffffffff16565b90506000610fa48287611ae890919063ffffffff16565b905085610fba8284611b0490919063ffffffff16565b141515611012576040517f08c379a0000000000000000000000000000000000000000000000000000000008152600401808060200182810382526032815260200180611f156032913960400191505060405180910390fd5b61101d878a84611b20565b1515611074576040517f08c379a000000000000000000000000000000000000000000000000000000000815260040180806020018281038252603b815260200180611dd0603b913960400191505060405180910390fd5b7fd52bd61f7c422d441e024604f4517878fd3305d6acf0fe37baef23ed21af6bc9878a84604051808473ffffffffffffffffffffffffffffffffffffffff1673ffffffffffffffffffffffffffffffffffffffff1681526020018373ffffffffffffffffffffffffffffffffffffffff1673ffffffffffffffffffffffffffffffffffffffff168152602001828152602001935050505060405180910390a161111e878983611b20565b1515611175576040517f08c379a000000000000000000000000000000000000000000000000000000000815260040180806020018281038252603c815260200180611e0b603c913960400191505060405180910390fd5b7fd52bd61f7c422d441e024604f4517878fd3305d6acf0fe37baef23ed21af6bc9878983604051808473ffffffffffffffffffffffffffffffffffffffff1673ffffffffffffffffffffffffffffffffffffffff1681526020018373ffffffffffffffffffffffffffffffffffffffff1673ffffffffffffffffffffffffffffffffffffffff168152602001828152602001935050505060405180910390a160008773ffffffffffffffffffffffffffffffffffffffff166370a08231306040518263ffffffff167c0100000000000000000000000000000000000000000000000000000000028152600401808273ffffffffffffffffffffffffffffffffffffffff1673ffffffffffffffffffffffffffffffffffffffff16815260200191505060206040518083038186803b1580156112af57600080fd5b505afa1580156112c3573d6000803e3d6000fd5b505050506040513d60208110156112d957600080fd5b810190808051906020019092919050505014151561135f576040517f08c379a00000000000000000000000000000000000000000000000000000000081526004018080602001828103825260108152602001807f42414c414e4345204e4f54205a45524f0000000000000000000000000000000081525060200191505060405180910390fd5b8673ffffffffffffffffffffffffffffffffffffffff166370a082318a6040518263ffffffff167c0100000000000000000000000000000000000000000000000000000000028152600401808273ffffffffffffffffffffffffffffffffffffffff1673ffffffffffffffffffffffffffffffffffffffff16815260200191505060206040518083038186803b1580156113f857600080fd5b505afa15801561140c573d6000803e3d6000fd5b505050506040513d602081101561142257600080fd5b81019080805190602001909291905050506114468385611b0490919063ffffffff16565b14801561153757508673ffffffffffffffffffffffffffffffffffffffff166370a08231896040518263ffffffff167c0100000000000000000000000000000000000000000000000000000000028152600401808273ffffffffffffffffffffffffffffffffffffffff1673ffffffffffffffffffffffffffffffffffffffff16815260200191505060206040518083038186803b1580156114e757600080fd5b505afa1580156114fb573d6000803e3d6000fd5b505050506040513d602081101561151157600080fd5b81019080805190602001909291905050506115358286611b0490919063ffffffff16565b145b151561158e576040517f08c379a0000000000000000000000000000000000000000000000000000000008152600401808060200182810382526039815260200180611eb66039913960400191505060405180910390fd5b505050505050505b6001925050505b919050565b600160009054906101000a900473ffffffffffffffffffffffffffffffffffffffff1673ffffffffffffffffffffffffffffffffffffffff163373ffffffffffffffffffffffffffffffffffffffff1614151561164a576040517f08c379a0000000000000000000000000000000000000000000000000000000008152600401808060200182810382526026815260200180611eef6026913960400191505060405180910390fd5b8873ffffffffffffffffffffffffffffffffffffffff1663ba87525b89898989898989896040518963ffffffff167c0100000000000000000000000000000000000000000000000000000000028152600401808973ffffffffffffffffffffffffffffffffffffffff1673ffffffffffffffffffffffffffffffffffffffff1681526020018881526020018060200187600c8111156116e557fe5b60ff16815260200186815260200185815260200184815260200180602001838103835289818151815260200191508051906020019080838360005b8381101561173b578082015181840152602081019050611720565b50505050905090810190601f1680156117685780820380516001836020036101000a031916815260200191505b50838103825284818151815260200191508051906020019080838360005b838110156117a1578082015181840152602081019050611786565b50505050905090810190601f1680156117ce5780820380516001836020036101000a031916815260200191505b509a5050505050505050505050602060405180830381600087803b1580156117f557600080fd5b505af1158015611809573d6000803e3d6000fd5b505050506040513d602081101561181f57600080fd5b810190808051906020019092919050505050505050505050505050565b611844611c39565b600073ffffffffffffffffffffffffffffffffffffffff16600260009054906101000a900473ffffffffffffffffffffffffffffffffffffffff1673ffffffffffffffffffffffffffffffffffffffff161415156118ed576040517f08c379a0000000000000000000000000000000000000000000000000000000008152600401808060200182810382526039815260200180611d976039913960400191505060405180910390fd5b80600260006101000a81548173ffffffffffffffffffffffffffffffffffffffff021916908373ffffffffffffffffffffffffffffffffffffffff16021790555050565b600160009054906101000a900473ffffffffffffffffffffffffffffffffffffffff1673ffffffffffffffffffffffffffffffffffffffff163373ffffffffffffffffffffffffffffffffffffffff161415156119d9576040517f08c379a0000000000000000000000000000000000000000000000000000000008152600401808060200182810382526026815260200180611eef6026913960400191505060405180910390fd5b600073ffffffffffffffffffffffffffffffffffffffff168173ffffffffffffffffffffffffffffffffffffffff1614151515611a61576040517f08c379a0000000000000000000000000000000000000000000000000000000008152600401808060200182810382526024815260200180611d736024913960400191505060405180910390fd5b806000806101000a81548173ffffffffffffffffffffffffffffffffffffffff021916908373ffffffffffffffffffffffffffffffffffffffff16021790555050565b6000670de0b6b3a7640000611ad6611abc8585611d42565b6002670de0b6b3a7640000811515611ad057fe5b04611b04565b811515611adf57fe5b04905092915050565b60008282840391508111151515611afe57600080fd5b92915050565b60008282840191508110151515611b1a57600080fd5b92915050565b600060608383604051602401808373ffffffffffffffffffffffffffffffffffffffff1673ffffffffffffffffffffffffffffffffffffffff168152602001828152602001925050506040516020818303038152906040527fa9059cbb000000000000000000000000000000000000000000000000000000007bffffffffffffffffffffffffffffffffffffffffffffffffffffffff19166020820180517bffffffffffffffffffffffffffffffffffffffffffffffffffffffff838183161783525050505090506000808251602084016000896127105a03f16040513d6000823e3d60008114611c1c5760208114611c245760009450611c2e565b829450611c2e565b8151158315171594505b505050509392505050565b600073ffffffffffffffffffffffffffffffffffffffff16600160009054906101000a900473ffffffffffffffffffffffffffffffffffffffff1673ffffffffffffffffffffffffffffffffffffffff16141515611cff576040517f08c379a000000000000000000000000000000000000000000000000000000000815260040180806020018281038252601c8152602001807f4d616e616765722068617320616c7265616479206265656e207365740000000081525060200191505060405180910390fd5b33600160006101000a81548173ffffffffffffffffffffffffffffffffffffffff021916908373ffffffffffffffffffffffffffffffffffffffff160217905550565b600080821480611d6157508282838502925082811515611d5e57fe5b04145b1515611d6c57600080fd5b9291505056fe496e76616c6964206d617374657220636f707920616464726573732070726f76696465644d65726368616e744d6f64756c653a3a73657475703a20494e56414c49445f53544154453a204f5241434c455f52454749535452595f5345544d65726368616e744d6f64756c653a3a77697468647261773a20494e56414c49445f4558454320544f4b454e5f4e4554574f524b5f5041594f55544d65726368616e744d6f64756c653a3a77697468647261773a20494e56414c49445f4558454320544f4b454e5f4d45524348414e545f5041594f55544d65726368616e744d6f64756c653a3a73706c69743a20494e56414c49445f444154413a204d53475f53454e4445525f4e4f545f4558454355544f524d65726368616e744d6f64756c653a3a77697468647261773a20494e56414c49445f455845432053504c49545f5041594f55544d65726368616e744d6f64756c653a3a77697468647261773a20494e56414c49445f4558454320544f4b454e5f53504c49545f5041594f55544d6574686f642063616e206f6e6c792062652063616c6c65642066726f6d206d616e616765724d65726368616e744d6f64756c653a3a77697468647261773a20494e56414c49445f4558454320544f4b454e5f53504c4954a165627a7a7230582068b1de7899ce9025c93816680fdd4a427d7bdcab7452cccab42e838798b1b5480029",
  "source": "pragma solidity ^0.5.0;\n\nimport \"../base/Module.sol\";\nimport \"./interfaces/SubscriptionModule.sol\";\nimport \"../external/Math.sol\";\nimport \"../interfaces/OracleRegistryI.sol\";\nimport \"../common/SecuredTokenTransfer.sol\";\n\ninterface ERC20 {\n    function totalSupply() external view returns (uint256 supply);\n\n    function balanceOf(address _owner) external view returns (uint256 balance);\n\n    function transfer(address _to, uint256 _value) external returns (bool success);\n\n    function transferFrom(address _from, address _to, uint256 _value) external returns (bool success);\n\n    function approve(address _spender, uint256 _value) external returns (bool success);\n\n    function allowance(address _owner, address _spender) external view returns (uint256 remaining);\n\n    function decimals() external view returns (uint256 digits);\n\n    event Approval(address indexed _owner, address indexed _spender, uint256 _value);\n}\n\n\ncontract MerchantModule is Module, SecuredTokenTransfer {\n\n    using DSMath for uint256;\n\n    OracleRegistryI public oracleRegistry;\n\n    event PaymentSent(address asset, address receiver, uint256 payment);\n\n    modifier onlyExecutor() {\n        require(\n            msg.sender == oracleRegistry.getNetworkExecutor(),\n            \"MerchantModule::split: INVALID_DATA: MSG_SENDER_NOT_EXECUTOR\"\n        );\n        _;\n    }\n\n    function setup(address _oracleRegistry)\n    public\n    {\n        setManager();\n        require(\n            address(oracleRegistry) == address(0),\n            \"MerchantModule::setup: INVALID_STATE: ORACLE_REGISTRY_SET\"\n        );\n        oracleRegistry = OracleRegistryI(_oracleRegistry);\n    }\n\n    function()\n    payable\n    external\n    {\n    }\n\n    function split(\n        address tokenAddress\n    )\n    public\n    onlyExecutor\n    returns (bool)\n    {\n        address payable networkWallet = oracleRegistry.getNetworkWallet();\n        address payable merchantWallet = address(manager);\n\n        if (tokenAddress == address(0)) {\n\n            uint256 splitterBalanceStart = address(this).balance;\n            if (splitterBalanceStart == 0) return false;\n            //\n            uint256 fee = oracleRegistry.getNetworkFee(address(0));\n\n\n            uint256 networkBalanceStart = networkWallet.balance;\n\n            uint256 merchantBalanceStart = merchantWallet.balance;\n\n\n            uint256 networkSplit = splitterBalanceStart.wmul(fee);\n\n            uint256 merchantSplit = splitterBalanceStart.sub(networkSplit);\n\n\n            require(merchantSplit > networkSplit, \"SPLIT MATH IS INCORRECT\");\n            //pay network\n\n            networkWallet.transfer(networkSplit);\n            emit PaymentSent(address(0x0), networkWallet, networkSplit);\n            //pay merchant\n\n            merchantWallet.transfer(merchantSplit);\n            emit PaymentSent(address(0x0), merchantWallet, merchantSplit);\n\n            require(address(this).balance == 0, \"BALANCE NOT ZERO\");\n            require(\n                (networkBalanceStart.add(networkSplit) == networkWallet.balance)\n                &&\n                (merchantBalanceStart.add(merchantSplit) == merchantWallet.balance),\n                \"MerchantModule::withdraw: INVALID_EXEC SPLIT_PAYOUT\"\n            );\n        } else {\n\n            ERC20 token = ERC20(tokenAddress);\n\n            uint256 splitterBalanceStart = token.balanceOf(address(this));\n\n            if (splitterBalanceStart == 0) return false;\n\n            uint256 fee = oracleRegistry.getNetworkFee(address(token));\n\n\n            uint256 merchantBalanceStart = token.balanceOf(merchantWallet);\n\n            uint256 networkBalanceStart = token.balanceOf(networkWallet);\n\n\n            uint256 networkSplit = splitterBalanceStart.wmul(fee);\n\n\n            uint256 merchantSplit = splitterBalanceStart.sub(networkSplit);\n\n\n            require(\n                networkSplit.add(merchantSplit) == splitterBalanceStart,\n                \"MerchantModule::withdraw: INVALID_EXEC TOKEN_SPLIT\"\n            );\n\n            //pay network\n\n            require(\n                transferToken(address(token), networkWallet, networkSplit),\n                \"MerchantModule::withdraw: INVALID_EXEC TOKEN_NETWORK_PAYOUT\"\n            );\n\n            emit PaymentSent(address(token), networkWallet, networkSplit);\n\n            //pay merchant\n            require(\n                transferToken(address(token), merchantWallet, merchantSplit),\n                \"MerchantModule::withdraw: INVALID_EXEC TOKEN_MERCHANT_PAYOUT\"\n            );\n            emit PaymentSent(address(token), merchantWallet, merchantSplit);\n\n            require(token.balanceOf(address(this)) == 0, \"BALANCE NOT ZERO\");\n\n            require(\n                (networkBalanceStart.add(networkSplit) == token.balanceOf(networkWallet))\n                &&\n                (merchantBalanceStart.add(merchantSplit) == token.balanceOf(merchantWallet)),\n                \"MerchantModule::withdraw: INVALID_EXEC TOKEN_SPLIT_PAYOUT\"\n            );\n        }\n\n        return true;\n    }\n\n\n    function cancelCXSubscription(\n        address customer,\n        address to,\n        uint256 value,\n        bytes memory data,\n        GEnum.Period period,\n        uint256 startDate,\n        uint256 endDate,\n        uint256 unique,\n        bytes memory signatures\n    )\n    public\n    authorized\n    {\n        SM(customer).cancelAsRecipient(\n            to,\n            value,\n            data,\n            period,\n            startDate,\n            endDate,\n            unique,\n            signatures\n        );\n    }\n\n}\n",
  "sourcePath": "/Users/andrewredden/Development/gh/safe-contracts/contracts/modules/MerchantModule.sol",
  "compiler": {
    "name": "solc",
    "version": "0.5.3+commit.10d17f24.Emscripten.clang"
  },
  "schemaVersion": "3.0.0-beta.2",
  "updatedAt": "2019-02-27T21:47:53.572Z",
  "devdoc": {
    "methods": {
      "changeMasterCopy(address)": {
        "details": "Allows to upgrade the contract. This can only be done via a Safe transaction.",
        "params": {
          "_masterCopy": "New contract address."
        }
      }
    }
  },
  "userdoc": {
    "methods": {}
  }
}