{
  "contractName": "OracleRegistry",
  "abi": [
    {
      "constant": true,
      "inputs": [
        {
          "name": "",
          "type": "address"
        }
      ],
      "name": "isWhitelisted",
      "outputs": [
        {
          "name": "",
          "type": "bool"
        }
      ],
      "payable": false,
      "stateMutability": "view",
      "type": "function"
    },
    {
      "constant": true,
      "inputs": [
        {
          "name": "",
          "type": "address"
        },
        {
          "name": "",
          "type": "address"
        }
      ],
      "name": "splitterToFee",
      "outputs": [
        {
          "name": "",
          "type": "uint256"
        }
      ],
      "payable": false,
      "stateMutability": "view",
      "type": "function"
    },
    {
      "constant": true,
      "inputs": [
        {
          "name": "",
          "type": "uint256"
        }
      ],
      "name": "oracles",
      "outputs": [
        {
          "name": "",
          "type": "address"
        }
      ],
      "payable": false,
      "stateMutability": "view",
      "type": "function"
    },
    {
      "constant": true,
      "inputs": [],
      "name": "baseFee",
      "outputs": [
        {
          "name": "",
          "type": "uint256"
        }
      ],
      "payable": false,
      "stateMutability": "view",
      "type": "function"
    },
    {
      "constant": false,
      "inputs": [],
      "name": "renounceOwnership",
      "outputs": [],
      "payable": false,
      "stateMutability": "nonpayable",
      "type": "function"
    },
    {
      "constant": true,
      "inputs": [],
      "name": "owner",
      "outputs": [
        {
          "name": "",
          "type": "address"
        }
      ],
      "payable": false,
      "stateMutability": "view",
      "type": "function"
    },
    {
      "constant": true,
      "inputs": [],
      "name": "isOwner",
      "outputs": [
        {
          "name": "",
          "type": "bool"
        }
      ],
      "payable": false,
      "stateMutability": "view",
      "type": "function"
    },
    {
      "constant": false,
      "inputs": [
        {
          "name": "newOwner",
          "type": "address"
        }
      ],
      "name": "transferOwnership",
      "outputs": [],
      "payable": false,
      "stateMutability": "nonpayable",
      "type": "function"
    },
    {
      "anonymous": false,
      "inputs": [
        {
          "indexed": false,
          "name": "oracleFeed",
          "type": "address"
        },
        {
          "indexed": false,
          "name": "currencyPair",
          "type": "uint256"
        }
      ],
      "name": "OracleActivated",
      "type": "event"
    },
    {
      "anonymous": false,
      "inputs": [
        {
          "indexed": false,
          "name": "merchantModule",
          "type": "address"
        },
        {
          "indexed": false,
          "name": "asset",
          "type": "address"
        },
        {
          "indexed": false,
          "name": "newFee",
          "type": "uint256"
        }
      ],
      "name": "FeeChanged",
      "type": "event"
    },
    {
      "anonymous": false,
      "inputs": [
        {
          "indexed": true,
          "name": "previousOwner",
          "type": "address"
        },
        {
          "indexed": true,
          "name": "newOwner",
          "type": "address"
        }
      ],
      "name": "OwnershipTransferred",
      "type": "event"
    },
    {
      "constant": false,
      "inputs": [
        {
          "name": "_oracles",
          "type": "address[]"
        },
        {
          "name": "_currencyPair",
          "type": "uint256[]"
        },
        {
          "name": "_networkSettings",
          "type": "address[]"
        }
      ],
      "name": "setup",
      "outputs": [],
      "payable": false,
      "stateMutability": "nonpayable",
      "type": "function"
    },
    {
      "constant": false,
      "inputs": [
        {
          "name": "merchantModule",
          "type": "address[]"
        },
        {
          "name": "assetOfExchange",
          "type": "address[]"
        },
        {
          "name": "newFee",
          "type": "uint256[]"
        }
      ],
      "name": "setFee",
      "outputs": [
        {
          "name": "",
          "type": "bool"
        }
      ],
      "payable": false,
      "stateMutability": "nonpayable",
      "type": "function"
    },
    {
      "constant": true,
      "inputs": [
        {
          "name": "currencyPair",
          "type": "uint256"
        }
      ],
      "name": "read",
      "outputs": [
        {
          "name": "",
          "type": "bytes32"
        }
      ],
      "payable": false,
      "stateMutability": "view",
      "type": "function"
    },
    {
      "constant": false,
      "inputs": [
        {
          "name": "oracle",
          "type": "address"
        },
        {
          "name": "currencyPair",
          "type": "uint256"
        }
      ],
      "name": "addToWhitelist",
      "outputs": [],
      "payable": false,
      "stateMutability": "nonpayable",
      "type": "function"
    },
    {
      "constant": false,
      "inputs": [
        {
          "name": "oracle",
          "type": "address"
        }
      ],
      "name": "removeFromWhitelist",
      "outputs": [],
      "payable": false,
      "stateMutability": "nonpayable",
      "type": "function"
    },
    {
      "constant": true,
      "inputs": [],
      "name": "getNetworkExecutor",
      "outputs": [
        {
          "name": "",
          "type": "address"
        }
      ],
      "payable": false,
      "stateMutability": "view",
      "type": "function"
    },
    {
      "constant": true,
      "inputs": [],
      "name": "getNetworkWallet",
      "outputs": [
        {
          "name": "",
          "type": "address"
        }
      ],
      "payable": false,
      "stateMutability": "view",
      "type": "function"
    },
    {
      "constant": true,
      "inputs": [
        {
          "name": "asset",
          "type": "address"
        }
      ],
      "name": "getNetworkFee",
      "outputs": [
        {
          "name": "fee",
          "type": "uint256"
        }
      ],
      "payable": false,
      "stateMutability": "view",
      "type": "function"
    }
  ],
  "bytecode": "0x608060408190526611c37937e0800060035560008054600160a060020a0319163317808255600160a060020a0316917f8be0079c531659141344cd1fd0a4f28419497f9722a3daafe3b4186f6b6457e0908290a3611064806100626000396000f3fe608060405234801561001057600080fd5b506004361061011d576000357c010000000000000000000000000000000000000000000000000000000090048063719a7e8e116100b4578063913c0f3411610083578063913c0f3414610422578063c99e5f221461042a578063ed2e5a97146105d5578063f2fde38b146105f25761011d565b8063719a7e8e146103c65780638ab1d681146103ec5780638da5cb5b146104125780638f32d59b1461041a5761011d565b80635b69a7d8116100f05780635b69a7d8146101ee578063646e2d621461020b5780636ef25c3a146103b6578063715018a6146103be5761011d565b8063214405fc146101225780633af32abf146101505780635630c5261461018a578063590fa3c8146101ae575b600080fd5b61014e6004803603604081101561013857600080fd5b50600160a060020a038135169060200135610618565b005b6101766004803603602081101561016657600080fd5b5035600160a060020a031661079c565b604080519115158252519081900360200190f35b6101926107b1565b60408051600160a060020a039092168252519081900360200190f35b6101dc600480360360408110156101c457600080fd5b50600160a060020a03813581169160200135166107c0565b60408051918252519081900360200190f35b6101926004803603602081101561020457600080fd5b50356107dd565b6101766004803603606081101561022157600080fd5b81019060208101813564010000000081111561023c57600080fd5b82018360208201111561024e57600080fd5b8035906020019184602083028401116401000000008311171561027057600080fd5b91908080602002602001604051908101604052809392919081815260200183836020028082843760009201919091525092959493602081019350359150506401000000008111156102c057600080fd5b8201836020820111156102d257600080fd5b803590602001918460208302840111640100000000831117156102f457600080fd5b919080806020026020016040519081016040528093929190818152602001838360200280828437600092019190915250929594936020810193503591505064010000000081111561034457600080fd5b82018360208201111561035657600080fd5b8035906020019184602083028401116401000000008311171561037857600080fd5b9190808060200260200160405190810160405280939291908181526020018383602002808284376000920191909152509295506107f8945050505050565b6101dc61097d565b61014e610983565b6101dc600480360360208110156103dc57600080fd5b5035600160a060020a03166109ed565b61014e6004803603602081101561040257600080fd5b5035600160a060020a0316610a22565b610192610ac8565b610176610ad7565b610192610ae8565b61014e6004803603606081101561044057600080fd5b81019060208101813564010000000081111561045b57600080fd5b82018360208201111561046d57600080fd5b8035906020019184602083028401116401000000008311171561048f57600080fd5b91908080602002602001604051908101604052809392919081815260200183836020028082843760009201919091525092959493602081019350359150506401000000008111156104df57600080fd5b8201836020820111156104f157600080fd5b8035906020019184602083028401116401000000008311171561051357600080fd5b919080806020026020016040519081016040528093929190818152602001838360200280828437600092019190915250929594936020810193503591505064010000000081111561056357600080fd5b82018360208201111561057557600080fd5b8035906020019184602083028401116401000000008311171561059757600080fd5b919080806020026020016040519081016040528093929190818152602001838360200280828437600092019190915250929550610af7945050505050565b6101dc600480360360208110156105eb57600080fd5b5035610cc4565b61014e6004803603602081101561060857600080fd5b5035600160a060020a0316610dcb565b610620610ad7565b151561062b57600080fd5b600160a060020a03821660009081526004602052604090205460ff16156106865760405160e560020a62461bcd02815260040180806020018281038252603f815260200180610f90603f913960400191505060405180910390fd5b600160a060020a03821615156106d05760405160e560020a62461bcd02815260040180806020018281038252603c815260200180610ed8603c913960400191505060405180910390fd5b8015156107115760405160e560020a62461bcd028152600401808060200182810382526042815260200180610f146042913960600191505060405180910390fd5b6000818152600560209081526040808320805473ffffffffffffffffffffffffffffffffffffffff1916600160a060020a0387169081179091558084526004835292819020805460ff19166001179055805192835290820183905280517f71a0c1999aec605393edd628a005598c427dca7e43c9ec3968e7d802b5dbadfd9281900390910190a15050565b60046020526000908152604090205460ff1681565b600154600160a060020a031690565b600660209081526000928352604080842090915290825290205481565b600560205260009081526040902054600160a060020a031681565b6000610802610ad7565b151561080d57600080fd5b60005b8451811015610975576000858281518110151561082957fe5b9060200190602002015190506000858381518110151561084557fe5b9060200190602002015190506000858481518110151561086157fe5b602090810290910101519050600160a060020a03831615156108b75760405160e560020a62461bcd028152600401808060200182810382526038815260200180610ea06038913960400191505060405180910390fd5b600160a060020a03821615156109015760405160e560020a62461bcd02815260040180806020018281038252602e815260200180610fcf602e913960400191505060405180910390fd5b600160a060020a03808416600081815260066020908152604080832094871680845294825291829020859055815192835282019290925280820183905290517f86d6c7822fd15fa1581dfdc261b384c2fbf13367e0886b6951852fdc48df1df79181900360600190a1505050600101610810565b509392505050565b60035481565b61098b610ad7565b151561099657600080fd5b60008054604051600160a060020a03909116907f8be0079c531659141344cd1fd0a4f28419497f9722a3daafe3b4186f6b6457e0908390a36000805473ffffffffffffffffffffffffffffffffffffffff19169055565b336000908152600660209081526040808320600160a060020a0385168452909152902054801515610a1d57506003545b919050565b610a2a610ad7565b1515610a3557600080fd5b600160a060020a03811660009081526004602052604090205460ff161515610aa7576040805160e560020a62461bcd02815260206004820152601a60248201527f41646472657373206973206e6f742077686974656c6973746564000000000000604482015290519081900360640190fd5b600160a060020a03166000908152600460205260409020805460ff19169055565b600054600160a060020a031690565b600054600160a060020a0316331490565b600254600160a060020a031690565b610aff610ad7565b1515610b0a57600080fd5b8151835114610b1857600080fd5b60005b8351811015610b6457610b5c8482815181101515610b3557fe5b906020019060200201518483815181101515610b4d57fe5b90602001906020020151610618565b600101610b1b565b508051600214610ba85760405160e560020a62461bcd02815260040180806020018281038252603c815260200180610ffd603c913960400191505060405180910390fd5b600154600160a060020a031615610bf35760405160e560020a62461bcd028152600401808060200182810382526038815260200180610e686038913960400191505060405180910390fd5b806000815181101515610c0257fe5b60209081029190910101516001805473ffffffffffffffffffffffffffffffffffffffff1916600160a060020a039283161790556002541615610c795760405160e560020a62461bcd02815260040180806020018281038252603a815260200180610f56603a913960400191505060405180910390fd5b806001815181101515610c8857fe5b60209081029190910101516002805473ffffffffffffffffffffffffffffffffffffffff1916600160a060020a03909216919091179055505050565b600081815260056020908152604080832054600160a060020a0316808452600490925282205460ff161515610d43576040805160e560020a62461bcd02815260206004820152601b60248201527f494e56414c49445f444154413a2043555252454e43595f504149520000000000604482015290519081900360640190fd5b80600160a060020a03166357de26a46040518163ffffffff167c010000000000000000000000000000000000000000000000000000000002815260040160206040518083038186803b158015610d9857600080fd5b505afa158015610dac573d6000803e3d6000fd5b505050506040513d6020811015610dc257600080fd5b50519392505050565b610dd3610ad7565b1515610dde57600080fd5b610de781610dea565b50565b600160a060020a0381161515610dff57600080fd5b60008054604051600160a060020a03808516939216917f8be0079c531659141344cd1fd0a4f28419497f9722a3daafe3b4186f6b6457e091a36000805473ffffffffffffffffffffffffffffffffffffffff1916600160a060020a039290921691909117905556fe4f7261636c655265736967737472793a3a736574757020494e56414c49445f53544154453a204e4554574f524b5f57414c4c45545f5345544f7261636c6552656769737472793a3a736574757020494e56414c49445f444154413a204d45524348414e545f4d4f44554c455f414444524f7261636c655265736967737472793a3a616464546f57686974656c69737420494e56414c49445f444154413a204f5241434c455f414444524553534f7261636c655265736967737472793a3a616464546f57686974656c69737420494e56414c49445f444154413a204f5241434c455f43555252454e43595f504149524f7261636c655265736967737472793a3a736574757020494e56414c49445f53544154453a204e4554574f524b5f4558454355544f525f5345544f7261636c655265736967737472793a3a616464546f57686974656c69737420494e56414c49445f53544154453a204f5241434c455f57484954454c4953544f7261636c6552656769737472793a3a736574757020494e56414c49445f444154413a2041535345545f414444524f7261636c655265736967737472793a3a736574757020494e56414c49445f444154413a204e4554574f524b5f53455454494e47535f4c454e475448a165627a7a72305820a89de896576739bc344647cdf71bf4cb2429b3520062ff0ab806439702b7d21a0029",
  "source": "pragma solidity ^0.5.0;\n\nimport \"openzeppelin-solidity/contracts/ownership/Ownable.sol\";\nimport \"./interfaces/OracleRegistryI.sol\";\n\ninterface DSFeedI {\n    function read()\n    external\n    view\n    returns (bytes32);\n}\n\ncontract OracleRegistry is OracleRegistryI, Ownable {\n\n\n    address payable private _networkWallet;\n    address private _networkExecutor;\n\n    // 0.005 ETH as Wei(.5%)\n    uint256 public baseFee = uint256(0x0000000000000000000000000000000000000000000000000011c37937e08000);\n\n    mapping(address => bool) public isWhitelisted;\n    mapping(uint256 => address) public oracles;\n    mapping(address => mapping(address => uint256)) public splitterToFee;\n\n\n    event OracleActivated(address oracleFeed, uint256 currencyPair);\n    event FeeChanged(address merchantModule, address asset, uint256 newFee);\n\n    /// @dev Setup function sets initial storage of contract.\n    /// @param _oracles List of whitelisted oracles.\n    function setup(\n        address[] memory _oracles,\n        uint256[] memory _currencyPair,\n        address payable[] memory _networkSettings\n    )\n    public\n    onlyOwner\n    {\n        require(_oracles.length == _currencyPair.length);\n\n        for (uint256 i = 0; i < _oracles.length; i++) {\n            addToWhitelist(_oracles[i], _currencyPair[i]);\n        }\n\n        require(_networkSettings.length == 2, \"OracleResigstry::setup INVALID_DATA: NETWORK_SETTINGS_LENGTH\");\n\n        require(_networkWallet == address(0), \"OracleResigstry::setup INVALID_STATE: NETWORK_WALLET_SET\");\n\n        _networkWallet = _networkSettings[0];\n\n        require(_networkExecutor == address(0), \"OracleResigstry::setup INVALID_STATE: NETWORK_EXECUTOR_SET\");\n\n        _networkExecutor = _networkSettings[1];\n    }\n\n    function setFee(\n        address[] memory merchantModule,\n        address[] memory assetOfExchange,\n        uint256[] memory newFee\n    )\n    public\n    onlyOwner\n    returns\n    (bool) {\n\n        for (uint256 i = 0; i < merchantModule.length; i++) {\n            address merchant = merchantModule[i];\n            address asset = assetOfExchange[i];\n            uint256 assetFee = newFee[i];\n            require(merchant != address(0), \"OracleRegistry::setup INVALID_DATA: MERCHANT_MODULE_ADDR\");\n            require(asset != address(0), \"OracleRegistry::setup INVALID_DATA: ASSET_ADDR\");\n\n            splitterToFee[merchant][asset] = assetFee;\n\n            emit FeeChanged(merchant, asset, assetFee);\n        }\n    }\n\n    function read(\n        uint256 currencyPair\n    ) public view returns (bytes32) {\n        address orl = oracles[currencyPair];\n        require(isWhitelisted[orl], \"INVALID_DATA: CURRENCY_PAIR\");\n        return DSFeedI(orl).read();\n    }\n\n    /// @dev Allows to add destination to whitelist. This can only be done via a Safe transaction.\n    /// @param oracle Destination address.\n    function addToWhitelist(address oracle, uint256 currencyPair)\n    public\n    onlyOwner\n    {\n        require(!isWhitelisted[oracle], \"OracleResigstry::addToWhitelist INVALID_STATE: ORACLE_WHITELIST\");\n        require(oracle != address(0), \"OracleResigstry::addToWhitelist INVALID_DATA: ORACLE_ADDRESS\");\n        require(currencyPair != uint256(0), \"OracleResigstry::addToWhitelist INVALID_DATA: ORACLE_CURRENCY_PAIR\");\n        oracles[currencyPair] = oracle;\n        isWhitelisted[oracle] = true;\n        emit OracleActivated(oracle, currencyPair);\n    }\n\n    /// @dev Allows to remove destination from whitelist. This can only be done via a Safe transaction.\n    /// @param oracle Destination address.\n    function removeFromWhitelist(address oracle)\n    public\n    onlyOwner\n    {\n        require(isWhitelisted[oracle], \"Address is not whitelisted\");\n        isWhitelisted[oracle] = false;\n    }\n\n    function getNetworkExecutor()\n    public\n    view\n    returns (address) {\n        return _networkExecutor;\n    }\n\n    function getNetworkWallet()\n    public\n    view\n    returns (address payable) {\n        return _networkWallet;\n    }\n\n    function getNetworkFee(address asset)\n    public\n    view\n    returns (uint256 fee) {\n        fee = splitterToFee[msg.sender][asset];\n        if (fee == uint256(0)) {\n            fee = baseFee;\n        }\n    }\n\n}\n",
  "sourcePath": "/Users/andrewredden/Development/gh/safe-contracts/contracts/OracleRegistry.sol",
  "compiler": {
    "name": "solc",
    "version": "0.5.3+commit.10d17f24.Emscripten.clang"
  },
  "schemaVersion": "3.0.0-beta.2",
  "updatedAt": "2019-02-23T16:43:45.441Z",
  "devdoc": {
    "methods": {
      "addToWhitelist(address,uint256)": {
        "details": "Allows to add destination to whitelist. This can only be done via a Safe transaction.",
        "params": {
          "oracle": "Destination address."
        }
      },
      "isOwner()": {
        "return": "true if `msg.sender` is the owner of the contract."
      },
      "owner()": {
        "return": "the address of the owner."
      },
      "removeFromWhitelist(address)": {
        "details": "Allows to remove destination from whitelist. This can only be done via a Safe transaction.",
        "params": {
          "oracle": "Destination address."
        }
      },
      "renounceOwnership()": {
        "details": "Allows the current owner to relinquish control of the contract."
      },
      "setup(address[],uint256[],address[])": {
        "details": "Setup function sets initial storage of contract.",
        "params": {
          "_oracles": "List of whitelisted oracles."
        }
      },
      "transferOwnership(address)": {
        "details": "Allows the current owner to transfer control of the contract to a newOwner.",
        "params": {
          "newOwner": "The address to transfer ownership to."
        }
      }
    }
  },
  "userdoc": {
    "methods": {
      "renounceOwnership()": {
        "notice": "Renouncing to ownership will leave the contract without an owner. It will not be possible to call the functions with the `onlyOwner` modifier anymore."
      }
    }
  }
}