{
  "contractName": "OracleRegistry",
  "abi": [
    {
      "constant": true,
      "inputs": [
        {
          "name": "",
          "type": "address"
        }
      ],
      "name": "isWhitelisted",
      "outputs": [
        {
          "name": "",
          "type": "bool"
        }
      ],
      "payable": false,
      "stateMutability": "view",
      "type": "function"
    },
    {
      "constant": true,
      "inputs": [
        {
          "name": "",
          "type": "uint256"
        }
      ],
      "name": "oracles",
      "outputs": [
        {
          "name": "",
          "type": "address"
        }
      ],
      "payable": false,
      "stateMutability": "view",
      "type": "function"
    },
    {
      "constant": false,
      "inputs": [],
      "name": "renounceOwnership",
      "outputs": [],
      "payable": false,
      "stateMutability": "nonpayable",
      "type": "function"
    },
    {
      "constant": true,
      "inputs": [],
      "name": "owner",
      "outputs": [
        {
          "name": "",
          "type": "address"
        }
      ],
      "payable": false,
      "stateMutability": "view",
      "type": "function"
    },
    {
      "constant": true,
      "inputs": [],
      "name": "isOwner",
      "outputs": [
        {
          "name": "",
          "type": "bool"
        }
      ],
      "payable": false,
      "stateMutability": "view",
      "type": "function"
    },
    {
      "constant": false,
      "inputs": [
        {
          "name": "newOwner",
          "type": "address"
        }
      ],
      "name": "transferOwnership",
      "outputs": [],
      "payable": false,
      "stateMutability": "nonpayable",
      "type": "function"
    },
    {
      "anonymous": false,
      "inputs": [
        {
          "indexed": false,
          "name": "",
          "type": "address"
        },
        {
          "indexed": false,
          "name": "",
          "type": "uint256"
        }
      ],
      "name": "OracleActivated",
      "type": "event"
    },
    {
      "anonymous": false,
      "inputs": [
        {
          "indexed": true,
          "name": "previousOwner",
          "type": "address"
        },
        {
          "indexed": true,
          "name": "newOwner",
          "type": "address"
        }
      ],
      "name": "OwnershipTransferred",
      "type": "event"
    },
    {
      "constant": false,
      "inputs": [
        {
          "name": "_oracles",
          "type": "address[]"
        },
        {
          "name": "_currencyPair",
          "type": "uint256[]"
        }
      ],
      "name": "setup",
      "outputs": [],
      "payable": false,
      "stateMutability": "nonpayable",
      "type": "function"
    },
    {
      "constant": true,
      "inputs": [
        {
          "name": "currencyPair",
          "type": "uint256"
        }
      ],
      "name": "read",
      "outputs": [
        {
          "name": "",
          "type": "bytes32"
        }
      ],
      "payable": false,
      "stateMutability": "view",
      "type": "function"
    },
    {
      "constant": false,
      "inputs": [
        {
          "name": "oracle",
          "type": "address"
        }
      ],
      "name": "addToWhitelist",
      "outputs": [],
      "payable": false,
      "stateMutability": "nonpayable",
      "type": "function"
    },
    {
      "constant": false,
      "inputs": [
        {
          "name": "oracle",
          "type": "address"
        }
      ],
      "name": "removeFromWhitelist",
      "outputs": [],
      "payable": false,
      "stateMutability": "nonpayable",
      "type": "function"
    }
  ],
  "bytecode": "0x6080604081905260008054600160a060020a0319163317808255600160a060020a0316917f8be0079c531659141344cd1fd0a4f28419497f9722a3daafe3b4186f6b6457e0908290a3610993806100576000396000f3fe6080604052600436106100a35763ffffffff7c010000000000000000000000000000000000000000000000000000000060003504166328814f0381146100a85780633af32abf146101de5780635b69a7d814610225578063715018a61461026b5780638ab1d681146102805780638da5cb5b146102b35780638f32d59b146102c8578063e43252d7146102dd578063ed2e5a9714610310578063f2fde38b1461034c575b600080fd5b3480156100b457600080fd5b506101dc600480360360408110156100cb57600080fd5b8101906020810181356401000000008111156100e657600080fd5b8201836020820111156100f857600080fd5b8035906020019184602083028401116401000000008311171561011a57600080fd5b919080806020026020016040519081016040528093929190818152602001838360200280828437600092019190915250929594936020810193503591505064010000000081111561016a57600080fd5b82018360208201111561017c57600080fd5b8035906020019184602083028401116401000000008311171561019e57600080fd5b91908080602002602001604051908101604052809392919081815260200183836020028082843760009201919091525092955061037f945050505050565b005b3480156101ea57600080fd5b506102116004803603602081101561020157600080fd5b5035600160a060020a0316610559565b604080519115158252519081900360200190f35b34801561023157600080fd5b5061024f6004803603602081101561024857600080fd5b503561056e565b60408051600160a060020a039092168252519081900360200190f35b34801561027757600080fd5b506101dc610589565b34801561028c57600080fd5b506101dc600480360360208110156102a357600080fd5b5035600160a060020a03166105f3565b3480156102bf57600080fd5b5061024f610699565b3480156102d457600080fd5b506102116106a8565b3480156102e957600080fd5b506101dc6004803603602081101561030057600080fd5b5035600160a060020a03166106b9565b34801561031c57600080fd5b5061033a6004803603602081101561033357600080fd5b50356107c4565b60408051918252519081900360200190f35b34801561035857600080fd5b506101dc6004803603602081101561036f57600080fd5b5035600160a060020a03166108cb565b6103876106a8565b151561039257600080fd5b80518251146103a057600080fd5b60005b825181101561055457600083828151811015156103bc57fe5b906020019060200201519050600083838151811015156103d857fe5b602090810290910101519050600160a060020a0382161515610444576040805160e560020a62461bcd02815260206004820152601b60248201527f494e56414c49445f444154413a4f5241434c455f414444524553530000000000604482015290519081900360640190fd5b8015156104c1576040805160e560020a62461bcd02815260206004820152602160248201527f494e56414c49445f444154413a4f5241434c455f43555252454e43595f50414960448201527f5200000000000000000000000000000000000000000000000000000000000000606482015290519081900360840190fd5b6000818152600260209081526040808320805473ffffffffffffffffffffffffffffffffffffffff1916600160a060020a038716908117909155808452600180845293829020805460ff1916909417909355805192835290820183905280517f71a0c1999aec605393edd628a005598c427dca7e43c9ec3968e7d802b5dbadfd9281900390910190a150506001016103a3565b505050565b60016020526000908152604090205460ff1681565b600260205260009081526040902054600160a060020a031681565b6105916106a8565b151561059c57600080fd5b60008054604051600160a060020a03909116907f8be0079c531659141344cd1fd0a4f28419497f9722a3daafe3b4186f6b6457e0908390a36000805473ffffffffffffffffffffffffffffffffffffffff19169055565b6105fb6106a8565b151561060657600080fd5b600160a060020a03811660009081526001602052604090205460ff161515610678576040805160e560020a62461bcd02815260206004820152601a60248201527f41646472657373206973206e6f742077686974656c6973746564000000000000604482015290519081900360640190fd5b600160a060020a03166000908152600160205260409020805460ff19169055565b600054600160a060020a031690565b600054600160a060020a0316331490565b6106c16106a8565b15156106cc57600080fd5b600160a060020a038116151561072c576040805160e560020a62461bcd02815260206004820152601860248201527f496e76616c696420416464726573732070726f76696465640000000000000000604482015290519081900360640190fd5b600160a060020a03811660009081526001602052604090205460ff161561079d576040805160e560020a62461bcd02815260206004820152601e60248201527f4164647265737320697320616c72656164792077686974656c69737465640000604482015290519081900360640190fd5b600160a060020a03166000908152600160208190526040909120805460ff19169091179055565b600081815260026020908152604080832054600160a060020a0316808452600190925282205460ff161515610843576040805160e560020a62461bcd02815260206004820152601b60248201527f494e56414c49445f444154413a2043555252454e43595f504149520000000000604482015290519081900360640190fd5b80600160a060020a03166357de26a46040518163ffffffff167c010000000000000000000000000000000000000000000000000000000002815260040160206040518083038186803b15801561089857600080fd5b505afa1580156108ac573d6000803e3d6000fd5b505050506040513d60208110156108c257600080fd5b50519392505050565b6108d36106a8565b15156108de57600080fd5b6108e7816108ea565b50565b600160a060020a03811615156108ff57600080fd5b60008054604051600160a060020a03808516939216917f8be0079c531659141344cd1fd0a4f28419497f9722a3daafe3b4186f6b6457e091a36000805473ffffffffffffffffffffffffffffffffffffffff1916600160a060020a039290921691909117905556fea165627a7a72305820ceb2339d92344085446aa094fe26b2b4a7394a13a1f42274c7310b4a4f3605ba0029",
  "source": "pragma solidity ^0.5.0;\n\nimport \"openzeppelin-solidity/contracts/ownership/Ownable.sol\";\nimport \"./DSFeed.sol\";\n\ncontract OracleRegistry is Ownable {\n\n    mapping(address => bool) public isWhitelisted;\n    mapping(uint256 => address) public oracles;\n\n    event OracleActivated(address, uint256);\n\n    /// @dev Setup function sets initial storage of contract.\n    /// @param _oracles List of whitelisted oracles.\n    function setup(address[] memory _oracles, uint256[] memory _currencyPair)\n    public\n    onlyOwner\n    {\n        require(_oracles.length == _currencyPair.length);\n\n        for (uint256 i = 0; i < _oracles.length; i++) {\n            address oracle = _oracles[i];\n            uint256 cp = _currencyPair[i];\n            require(oracle != address(0), \"INVALID_DATA:ORACLE_ADDRESS\");\n            require(cp != uint256(0), \"INVALID_DATA:ORACLE_CURRENCY_PAIR\");\n            oracles[cp] = oracle;\n            isWhitelisted[oracle] = true;\n            emit OracleActivated(oracle, cp);\n        }\n    }\n\n    function read(uint256 currencyPair) public view returns (bytes32) {\n        address orl = oracles[currencyPair];\n        require(isWhitelisted[orl], \"INVALID_DATA: CURRENCY_PAIR\");\n        return DSFeed(orl).read();\n    }\n\n    /// @dev Allows to add destination to whitelist. This can only be done via a Safe transaction.\n    /// @param oracle Destination address.\n    function addToWhitelist(address oracle)\n    public\n    onlyOwner\n    {\n        require(oracle != address(0), \"Invalid Address provided\");\n        require(!isWhitelisted[oracle], \"Address is already whitelisted\");\n        isWhitelisted[oracle] = true;\n    }\n\n    /// @dev Allows to remove destination from whitelist. This can only be done via a Safe transaction.\n    /// @param oracle Destination address.\n    function removeFromWhitelist(address oracle)\n    public\n    onlyOwner\n    {\n        require(isWhitelisted[oracle], \"Address is not whitelisted\");\n        isWhitelisted[oracle] = false;\n    }\n}\n",
  "sourcePath": "/Users/rmoore/development/groundhog/safe-groundhog/contracts/OracleRegistry.sol",
  "compiler": {
    "name": "solc",
    "version": "0.5.0+commit.1d4f565a.Emscripten.clang"
  },
  "schemaVersion": "3.0.1",
  "updatedAt": "2019-01-22T15:35:25.701Z",
  "devdoc": {
    "methods": {
      "addToWhitelist(address)": {
        "details": "Allows to add destination to whitelist. This can only be done via a Safe transaction.",
        "params": {
          "oracle": "Destination address."
        }
      },
      "isOwner()": {
        "return": "true if `msg.sender` is the owner of the contract."
      },
      "owner()": {
        "return": "the address of the owner."
      },
      "removeFromWhitelist(address)": {
        "details": "Allows to remove destination from whitelist. This can only be done via a Safe transaction.",
        "params": {
          "oracle": "Destination address."
        }
      },
      "renounceOwnership()": {
        "details": "Allows the current owner to relinquish control of the contract."
      },
      "setup(address[],uint256[])": {
        "details": "Setup function sets initial storage of contract.",
        "params": {
          "_oracles": "List of whitelisted oracles."
        }
      },
      "transferOwnership(address)": {
        "details": "Allows the current owner to transfer control of the contract to a newOwner.",
        "params": {
          "newOwner": "The address to transfer ownership to."
        }
      }
    }
  },
  "userdoc": {
    "methods": {
      "renounceOwnership()": {
        "notice": "Renouncing to ownership will leave the contract without an owner. It will not be possible to call the functions with the `onlyOwner` modifier anymore."
      }
    }
  }
}