{
  "contractName": "PayingProxy",
  "abi": [
    {
      "payable": true,
      "stateMutability": "payable",
      "type": "fallback"
    },
    {
      "constant": false,
      "inputs": [
        {
          "name": "_masterCopy",
          "type": "address"
        },
        {
          "name": "funder",
          "type": "address"
        },
        {
          "name": "paymentToken",
          "type": "address"
        },
        {
          "name": "payment",
          "type": "uint256"
        }
      ],
      "name": "setup",
      "outputs": [],
      "payable": false,
      "stateMutability": "nonpayable",
      "type": "function"
    },
    {
      "constant": true,
      "inputs": [],
      "name": "implementation",
      "outputs": [
        {
          "name": "",
          "type": "address"
        }
      ],
      "payable": false,
      "stateMutability": "view",
      "type": "function"
    },
    {
      "constant": true,
      "inputs": [],
      "name": "proxyType",
      "outputs": [
        {
          "name": "",
          "type": "uint256"
        }
      ],
      "payable": false,
      "stateMutability": "pure",
      "type": "function"
    }
  ],
  "bytecode": "0x608060405234801561001057600080fd5b50610469806100206000396000f3fe6080604052600436106100565763ffffffff7c01000000000000000000000000000000000000000000000000000000006000350416634555d5c981146100865780635c60da1b146100ad5780639cfce925146100de575b600160a060020a03600054163660008037600080366000845af43d6000803e801515610081573d6000fd5b3d6000f35b34801561009257600080fd5b5061009b610129565b60408051918252519081900360200190f35b3480156100b957600080fd5b506100c261012e565b60408051600160a060020a039092168252519081900360200190f35b3480156100ea57600080fd5b506101276004803603608081101561010157600080fd5b50600160a060020a0381358116916020810135821691604082013516906060013561013d565b005b600290565b600054600160a060020a031690565b600160a060020a03841615156101d957604080517f08c379a0000000000000000000000000000000000000000000000000000000008152602060048201526024808201527f496e76616c6964206d617374657220636f707920616464726573732070726f7660448201527f6964656400000000000000000000000000000000000000000000000000000000606482015290519081900360840190fd5b6000805473ffffffffffffffffffffffffffffffffffffffff1916600160a060020a03861617815581111561037357600160a060020a03821615156102d557604051600160a060020a0384169082156108fc029083906000818181858888f1935050505015156102d057604080517f08c379a000000000000000000000000000000000000000000000000000000000815260206004820152602660248201527f436f756c64206e6f74207061792073616665206372656174696f6e207769746860448201527f2065746865720000000000000000000000000000000000000000000000000000606482015290519081900360840190fd5b610373565b6102e0828483610379565b151561037357604080517f08c379a000000000000000000000000000000000000000000000000000000000815260206004820152602660248201527f436f756c64206e6f74207061792073616665206372656174696f6e207769746860448201527f20746f6b656e0000000000000000000000000000000000000000000000000000606482015290519081900360840190fd5b50505050565b60408051600160a060020a038416602482015260448082018490528251808303909101815260649091019091526020810180517bffffffffffffffffffffffffffffffffffffffffffffffffffffffff167fa9059cbb000000000000000000000000000000000000000000000000000000001781528151600092918391829182896127105a03f16040513d6000823e3d801561042057602081146104285760009450610432565b829450610432565b8151158315171594505b50505050939250505056fea165627a7a723058205a511a9bef31f6b0de8a4b69b8d325000c5445255fc842be16c0ddc6689981b10029",
  "source": "pragma solidity ^0.5.0;\n\nimport \"../common/SecuredTokenTransfer.sol\";\n/// @title Paying Proxy - Generic proxy contract allows to execute all transactions applying the code of a master contract. It is possible to send along initialization data with the constructor. And sends funds after creation to a specified account.\n/// @author Stefan George - <stefan@gnosis.pm>\n/// @author Richard Meissner - <richard@gnosis.pm>\n/// @author Andrew Redden - <andrew@groundhog.network> - removed delegate proxy as its being populated with a setup function now.\ncontract PayingProxy is SecuredTokenTransfer {\n\n    // masterCopy always needs to be first declared variable, to ensure that it is at the same location in the contracts to which calls are delegated.\n    address masterCopy;\n\n    function setup(\n        address _masterCopy,\n        address payable funder,\n        address paymentToken,\n        uint256 payment\n    )\n    external\n    {\n        require(_masterCopy != address(0), \"Invalid master copy address provided\");\n        masterCopy = _masterCopy;\n\n        if (payment > 0) {\n            if (paymentToken == address(0)) {\n                // solium-disable-next-line security/no-send\n                require(funder.send(payment), \"Could not pay safe creation with ether\");\n            } else {\n                require(transferToken(paymentToken, funder, payment), \"Could not pay safe creation with token\");\n            }\n        }\n    }\n\n    /// @dev Fallback function forwards all transactions and returns all received return data.\n    function()\n    external\n    payable\n    {\n        // solium-disable-next-line security/no-inline-assembly\n        assembly {\n            let masterCopy := and(sload(0), 0xffffffffffffffffffffffffffffffffffffffff)\n            calldatacopy(0, 0, calldatasize())\n            let success := delegatecall(gas, masterCopy, 0, calldatasize(), 0, 0)\n            returndatacopy(0, 0, returndatasize())\n            if eq(success, 0) {revert(0, returndatasize())}\n            return (0, returndatasize())\n        }\n    }\n\n    function implementation()\n    public\n    view\n    returns (address)\n    {\n        return masterCopy;\n    }\n\n    function proxyType()\n    public\n    pure\n    returns (uint256)\n    {\n        return 2;\n    }\n}\n",
  "sourcePath": "/Users/andrewredden/Development/gh/safe-contracts/contracts/proxies/PayingProxy.sol",
  "compiler": {
    "name": "solc",
    "version": "0.5.0+commit.1d4f565a.Emscripten.clang"
  },
  "schemaVersion": "3.0.0-beta.2",
  "updatedAt": "2019-01-26T03:55:31.261Z",
  "devdoc": {
    "author": "Stefan George - <stefan@gnosis.pm>Richard Meissner - <richard@gnosis.pm>Andrew Redden - <andrew@groundhog.network> - removed delegate proxy as its being populated with a setup function now.",
    "methods": {},
    "title": "Paying Proxy - Generic proxy contract allows to execute all transactions applying the code of a master contract. It is possible to send along initialization data with the constructor. And sends funds after creation to a specified account."
  },
  "userdoc": {
    "methods": {}
  }
}