{
  "contractName": "PayingProxyB",
  "abi": [
    {
      "inputs": [
        {
          "name": "_masterCopy",
          "type": "address"
        },
        {
          "name": "funder",
          "type": "address"
        },
        {
          "name": "paymentToken",
          "type": "address"
        },
        {
          "name": "payment",
          "type": "uint256"
        }
      ],
      "payable": false,
      "stateMutability": "nonpayable",
      "type": "constructor"
    },
    {
      "payable": true,
      "stateMutability": "payable",
      "type": "fallback"
    },
    {
      "constant": true,
      "inputs": [],
      "name": "implementation",
      "outputs": [
        {
          "name": "",
          "type": "address"
        }
      ],
      "payable": false,
      "stateMutability": "view",
      "type": "function"
    },
    {
      "constant": true,
      "inputs": [],
      "name": "proxyType",
      "outputs": [
        {
          "name": "",
          "type": "uint256"
        }
      ],
      "payable": false,
      "stateMutability": "pure",
      "type": "function"
    }
  ],
  "bytecode": "0x608060405234801561001057600080fd5b506040516080806104768339810180604052608081101561003057600080fd5b5080516020820151604083015160609093015191929091600160a060020a03841615156100e357604080517f08c379a0000000000000000000000000000000000000000000000000000000008152602060048201526024808201527f496e76616c6964206d617374657220636f707920616464726573732070726f7660448201527f6964656400000000000000000000000000000000000000000000000000000000606482015290519081900360840190fd5b60008054600160a060020a031916600160a060020a03861617815581111561025557600160a060020a03821615156101c057604051600160a060020a0384169082156108fc029083906000818181858888f1935050505015156101bb57604080517f08c379a0000000000000000000000000000000000000000000000000000000008152602060048201526026602482015260008051602061045683398151915260448201527f2065746865720000000000000000000000000000000000000000000000000000606482015290519081900360840190fd5b610255565b6101d482848364010000000061025e810204565b151561025557604080517f08c379a0000000000000000000000000000000000000000000000000000000008152602060048201526026602482015260008051602061045683398151915260448201527f20746f6b656e0000000000000000000000000000000000000000000000000000606482015290519081900360840190fd5b5050505061030d565b60408051600160a060020a03841660248201526044808201849052825180830390910181526064909101909152602081018051600160e060020a03167fa9059cbb000000000000000000000000000000000000000000000000000000001781528151600092918391829182896127105a03f16040513d6000823e3d80156102f057602081146102f85760009450610302565b829450610302565b8151158315171594505b505050509392505050565b61013a8061031c6000396000f3fe60806040526004361061004b5763ffffffff7c01000000000000000000000000000000000000000000000000000000006000350416634555d5c981146100885780635c60da1b146100af575b73ffffffffffffffffffffffffffffffffffffffff600054163660008037600080366000845af43d6000803e801515610083573d6000fd5b3d6000f35b34801561009457600080fd5b5061009d6100ed565b60408051918252519081900360200190f35b3480156100bb57600080fd5b506100c46100f2565b6040805173ffffffffffffffffffffffffffffffffffffffff9092168252519081900360200190f35b600290565b60005473ffffffffffffffffffffffffffffffffffffffff169056fea165627a7a72305820b94173c6ee5bbb9530d4f67a9c21e27eede2993bb0e034fa72c5bb482b03aa320029436f756c64206e6f74207061792073616665206372656174696f6e2077697468",
  "source": "pragma solidity ^0.5.0;\n\nimport \"../common/SecuredTokenTransfer.sol\";\n/// @title Paying Proxy - Generic proxy contract allows to execute all transactions applying the code of a master contract. It is possible to send along initialization data with the constructor. And sends funds after creation to a specified account.\n/// @author Stefan George - <stefan@gnosis.pm>\n/// @author Richard Meissner - <richard@gnosis.pm>\n/// @author Andrew Redden - <andrew@groundhog.network> - removed delegate proxy as its being populated with a setup function now.\ncontract PayingProxyB is SecuredTokenTransfer {\n\n    // masterCopy always needs to be first declared variable, to ensure that it is at the same location in the contracts to which calls are delegated.\n    address masterCopy;\n\n    constructor(\n        address _masterCopy,\n        address payable funder,\n        address paymentToken,\n        uint256 payment\n    )\n    public\n    {\n        require(_masterCopy != address(0), \"Invalid master copy address provided\");\n        masterCopy = _masterCopy;\n\n        if (payment > 0) {\n            if (paymentToken == address(0)) {\n                // solium-disable-next-line security/no-send\n                require(funder.send(payment), \"Could not pay safe creation with ether\");\n            } else {\n                require(transferToken(paymentToken, funder, payment), \"Could not pay safe creation with token\");\n            }\n        }\n    }\n\n    /// @dev Fallback function forwards all transactions and returns all received return data.\n    function()\n    external\n    payable\n    {\n        // solium-disable-next-line security/no-inline-assembly\n        assembly {\n            let masterCopy := and(sload(0), 0xffffffffffffffffffffffffffffffffffffffff)\n            calldatacopy(0, 0, calldatasize())\n            let success := delegatecall(gas, masterCopy, 0, calldatasize(), 0, 0)\n            returndatacopy(0, 0, returndatasize())\n            if eq(success, 0) {revert(0, returndatasize())}\n            return (0, returndatasize())\n        }\n    }\n\n    function implementation()\n    public\n    view\n    returns (address)\n    {\n        return masterCopy;\n    }\n\n    function proxyType()\n    public\n    pure\n    returns (uint256)\n    {\n        return 2;\n    }\n}\n",
  "sourcePath": "/Users/andrewredden/Development/gh/safe-contracts/contracts/proxies/PayingProxyB.sol",
  "compiler": {
    "name": "solc",
    "version": "0.5.0+commit.1d4f565a.Emscripten.clang"
  },
  "schemaVersion": "3.0.0",
  "updatedAt": "2019-01-22T20:28:56.367Z",
  "devdoc": {
    "author": "Stefan George - <stefan@gnosis.pm>Richard Meissner - <richard@gnosis.pm>Andrew Redden - <andrew@groundhog.network> - removed delegate proxy as its being populated with a setup function now.",
    "methods": {},
    "title": "Paying Proxy - Generic proxy contract allows to execute all transactions applying the code of a master contract. It is possible to send along initialization data with the constructor. And sends funds after creation to a specified account."
  },
  "userdoc": {
    "methods": {}
  }
}