{
  "contractName": "ProxyFactory",
  "abi": [
    {
      "inputs": [
        {
          "name": "code",
          "type": "bytes"
        }
      ],
      "payable": false,
      "stateMutability": "nonpayable",
      "type": "constructor",
      "signature": "constructor"
    },
    {
      "anonymous": false,
      "inputs": [
        {
          "indexed": false,
          "name": "proxy",
          "type": "address"
        }
      ],
      "name": "ProxyCreation",
      "type": "event",
      "signature": "0xa38789425dbeee0239e16ff2d2567e31720127fbc6430758c1a4efc6aef29f80"
    },
    {
      "anonymous": false,
      "inputs": [
        {
          "indexed": false,
          "name": "proxy",
          "type": "address"
        }
      ],
      "name": "PayingProxyCreation",
      "type": "event",
      "signature": "0x7c882f4319e762ec517331286d226825952a7040b6f52e50e0efb564d9f6c38c"
    },
    {
      "constant": false,
      "inputs": [
        {
          "name": "masterCopy",
          "type": "address"
        },
        {
          "name": "data",
          "type": "bytes"
        }
      ],
      "name": "createProxy",
      "outputs": [
        {
          "name": "proxy",
          "type": "address"
        }
      ],
      "payable": false,
      "stateMutability": "nonpayable",
      "type": "function",
      "signature": "0x61b69abd"
    },
    {
      "constant": false,
      "inputs": [
        {
          "name": "salt",
          "type": "uint256"
        },
        {
          "name": "masterCopy",
          "type": "address"
        },
        {
          "name": "data",
          "type": "bytes"
        },
        {
          "name": "funder",
          "type": "address"
        },
        {
          "name": "paymentToken",
          "type": "address"
        },
        {
          "name": "payment",
          "type": "uint256"
        }
      ],
      "name": "createPayingProxy",
      "outputs": [
        {
          "name": "proxy",
          "type": "address"
        }
      ],
      "payable": false,
      "stateMutability": "nonpayable",
      "type": "function",
      "signature": "0x219103a7"
    }
  ],
  "bytecode": "0x608060405234801561001057600080fd5b506040516108183803806108188339810180604052602081101561003357600080fd5b81019080805164010000000081111561004b57600080fd5b8201602081018481111561005e57600080fd5b815164010000000081118282018710171561007857600080fd5b505080519093506100929250600091506020840190610099565b5050610134565b828054600181600116156101000203166002900490600052602060002090601f016020900481019282601f106100da57805160ff1916838001178555610107565b82800160010185558215610107579182015b828111156101075782518255916020019190600101906100ec565b50610113929150610117565b5090565b61013191905b80821115610113576000815560010161011d565b90565b6106d5806101436000396000f3fe60806040526004361061004b5763ffffffff7c0100000000000000000000000000000000000000000000000000000000600035041663219103a7811461005057806361b69abd1461014c575b600080fd5b34801561005c57600080fd5b50610130600480360360c081101561007357600080fd5b813591600160a060020a03602082013516918101906060810160408201356401000000008111156100a357600080fd5b8201836020820111156100b557600080fd5b803590602001918460018302840111640100000000831117156100d757600080fd5b91908080601f01602080910402602001604051908101604052809392919081815260200183838082843760009201919091525092955050600160a060020a038335811694506020840135169260400135915061020f9050565b60408051600160a060020a039092168252519081900360200190f35b34801561015857600080fd5b506101306004803603604081101561016f57600080fd5b600160a060020a03823516919081019060408101602082013564010000000081111561019a57600080fd5b8201836020820111156101ac57600080fd5b803590602001918460018302840111640100000000831117156101ce57600080fd5b91908080601f0160208091040260200160405190810160405280939291908181526020018383808284376000920191909152509295506103bf945050505050565b6000805460408051602060026001851615610100026000190190941693909304601f81018490048402820184019092528181528392606092849183018282801561029a5780601f1061026f5761010080835404028352916020019161029a565b820191906000526020600020905b81548152906001019060200180831161027d57829003601f168201915b50505050509050888151602083016000f59150813b15156102ba57600080fd5b604080517f9cfce925000000000000000000000000000000000000000000000000000000008152600160a060020a038a8116600483015288811660248301528781166044830152606482018790529151939450849391841691639cfce9259160848082019260009290919082900301818387803b15801561033a57600080fd5b505af115801561034e573d6000803e3d6000fd5b50505050600087511115610377576000806000895160208b016000885af1141561037757600080fd5b60408051600160a060020a038516815290517f7c882f4319e762ec517331286d226825952a7040b6f52e50e0efb564d9f6c38c9181900360200190a150509695505050505050565b6000826103ca610461565b600160a060020a03909116815260405190819003602001906000f0801580156103f7573d6000803e3d6000fd5b50905060008251111561041f5760008060008451602086016000865af1141561041f57600080fd5b60408051600160a060020a038316815290517fa38789425dbeee0239e16ff2d2567e31720127fbc6430758c1a4efc6aef29f809181900360200190a192915050565b604051610238806104728339019056fe608060405234801561001057600080fd5b506040516020806102388339810180604052602081101561003057600080fd5b5051600160a060020a03811615156100ce57604080517f08c379a0000000000000000000000000000000000000000000000000000000008152602060048201526024808201527f496e76616c6964206d617374657220636f707920616464726573732070726f7660448201527f6964656400000000000000000000000000000000000000000000000000000000606482015290519081900360840190fd5b60008054600160a060020a03909216600160a060020a031990921691909117905561013a806100fe6000396000f3fe60806040526004361061004b5763ffffffff7c01000000000000000000000000000000000000000000000000000000006000350416634555d5c981146100885780635c60da1b146100af575b73ffffffffffffffffffffffffffffffffffffffff600054163660008037600080366000845af43d6000803e801515610083573d6000fd5b3d6000f35b34801561009457600080fd5b5061009d6100ed565b60408051918252519081900360200190f35b3480156100bb57600080fd5b506100c46100f2565b6040805173ffffffffffffffffffffffffffffffffffffffff9092168252519081900360200190f35b600290565b60005473ffffffffffffffffffffffffffffffffffffffff169056fea165627a7a72305820e57fa0a17d04e74b701d379caf5f9f87dd12b2dc64e9ec80d66c9108dcda7ce80029a165627a7a723058204b3bfc0cc416da332b03ceac5ca5ba358a788fe60aa6e623b928b41b39c128f20029",
  "source": "pragma solidity ^0.5.0;\n\nimport \"./PayingProxy.sol\";\nimport \"./Proxy.sol\";\n/// @title Proxy Factory - Allows to create new proxy contact and execute a message call to the new proxy within one transaction.\n/// @author Stefan George - <stefan@gnosis.pm>\ncontract ProxyFactory {\n\n    bytes proxyByteCode;\n\n    event ProxyCreation(Proxy proxy);\n    event PayingProxyCreation(PayingProxy proxy);\n\n\n    constructor(bytes memory code)\n    public\n    {\n        proxyByteCode = code;\n    }\n\n    /// @dev Allows to create new proxy contact and execute a message call to the new proxy within one transaction.\n    /// @param masterCopy Address of master copy.\n    /// @param data Payload for message call sent to new proxy contract.\n    function createProxy(address masterCopy, bytes memory data)\n    public\n    returns (Proxy proxy)\n    {\n        proxy = new Proxy(masterCopy);\n        if (data.length > 0)\n        // solium-disable-next-line security/no-inline-assembly\n            assembly {\n                if eq(call(gas, proxy, 0, add(data, 0x20), mload(data), 0, 0), 0) { revert(0, 0) }\n            }\n        emit ProxyCreation(proxy);\n    }\n\n\n    /// @dev Allows to create new proxy contact and execute a message call to the new proxy within one transaction.\n    /// @param masterCopy Address of master copy.\n    /// @param data Payload for message call sent to new proxy contract.\n    /// @param funder Address of the funder\n    /// @param paymentToken address of the token to repay deployment\n    /// @param payment Value of the paymentToken to be paid for deployment\n    function createPayingProxy(\n        uint256 salt,\n        address masterCopy,\n        bytes memory data,\n        address payable funder,\n        address paymentToken,\n        uint256 payment\n    )\n    public\n    returns (PayingProxy proxy)\n    {\n        address payable newProxyAddr;\n        bytes memory proxyCode = proxyByteCode;\n        assembly {\n            newProxyAddr := create2(0, add(proxyCode, 0x20), mload(proxyCode), salt)\n            if iszero(extcodesize(newProxyAddr)) {\n                revert(0, 0)\n            }\n        }\n        proxy = PayingProxy(newProxyAddr);\n\n        proxy.setup(masterCopy, funder, paymentToken, payment);\n\n\n        //if we have been passed setup data we want to actually\n        //leverage that setup data against our newly established proxy\n        if (data.length > 0) {\n            // solium-disable-next-line security/no-inline-assembly\n            assembly {\n                if eq(call(gas, proxy, 0, add(data, 0x20), mload(data), 0, 0), 0) {revert(0, 0)}\n            }\n        }\n\n        emit PayingProxyCreation(proxy);\n    }\n}\n",
  "sourcePath": "/Users/andrewredden/Development/gh/safe-contracts/contracts/proxies/ProxyFactory.sol",
  "compiler": {
    "name": "solc",
    "version": "0.5.0+commit.1d4f565a.Emscripten.clang"
  },
  "schemaVersion": "3.0.0-beta.2",
  "updatedAt": "2019-01-26T03:55:31.263Z",
  "devdoc": {
    "author": "Stefan George - <stefan@gnosis.pm>",
    "methods": {
      "createPayingProxy(uint256,address,bytes,address,address,uint256)": {
        "details": "Allows to create new proxy contact and execute a message call to the new proxy within one transaction.",
        "params": {
          "data": "Payload for message call sent to new proxy contract.",
          "funder": "Address of the funder",
          "masterCopy": "Address of master copy.",
          "payment": "Value of the paymentToken to be paid for deployment",
          "paymentToken": "address of the token to repay deployment"
        }
      },
      "createProxy(address,bytes)": {
        "details": "Allows to create new proxy contact and execute a message call to the new proxy within one transaction.",
        "params": {
          "data": "Payload for message call sent to new proxy contract.",
          "masterCopy": "Address of master copy."
        }
      }
    },
    "title": "Proxy Factory - Allows to create new proxy contact and execute a message call to the new proxy within one transaction."
  },
  "userdoc": {
    "methods": {}
  }
}