{
  "contractName": "SubscriptionModule",
  "abi": [
    {
      "constant": true,
      "inputs": [],
      "name": "DOMAIN_SEPARATOR_TYPEHASH",
      "outputs": [
        {
          "name": "",
          "type": "bytes32"
        }
      ],
      "payable": false,
      "stateMutability": "view",
      "type": "function"
    },
    {
      "constant": true,
      "inputs": [],
      "name": "manager",
      "outputs": [
        {
          "name": "",
          "type": "address"
        }
      ],
      "payable": false,
      "stateMutability": "view",
      "type": "function"
    },
    {
      "constant": true,
      "inputs": [],
      "name": "oracleRegistry",
      "outputs": [
        {
          "name": "",
          "type": "address"
        }
      ],
      "payable": false,
      "stateMutability": "view",
      "type": "function"
    },
    {
      "constant": false,
      "inputs": [
        {
          "name": "_masterCopy",
          "type": "address"
        }
      ],
      "name": "changeMasterCopy",
      "outputs": [],
      "payable": false,
      "stateMutability": "nonpayable",
      "type": "function"
    },
    {
      "constant": true,
      "inputs": [
        {
          "name": "",
          "type": "bytes32"
        }
      ],
      "name": "subscriptions",
      "outputs": [
        {
          "name": "status",
          "type": "uint8"
        },
        {
          "name": "nextWithdraw",
          "type": "uint256"
        },
        {
          "name": "endDate",
          "type": "uint256"
        }
      ],
      "payable": false,
      "stateMutability": "view",
      "type": "function"
    },
    {
      "constant": true,
      "inputs": [],
      "name": "NAME",
      "outputs": [
        {
          "name": "",
          "type": "string"
        }
      ],
      "payable": false,
      "stateMutability": "view",
      "type": "function"
    },
    {
      "constant": true,
      "inputs": [],
      "name": "EIP1337_ACTION_TYPEHASH",
      "outputs": [
        {
          "name": "",
          "type": "bytes32"
        }
      ],
      "payable": false,
      "stateMutability": "view",
      "type": "function"
    },
    {
      "constant": true,
      "inputs": [],
      "name": "EIP1337_TYPEHASH",
      "outputs": [
        {
          "name": "",
          "type": "bytes32"
        }
      ],
      "payable": false,
      "stateMutability": "view",
      "type": "function"
    },
    {
      "constant": true,
      "inputs": [],
      "name": "domainSeparator",
      "outputs": [
        {
          "name": "",
          "type": "bytes32"
        }
      ],
      "payable": false,
      "stateMutability": "view",
      "type": "function"
    },
    {
      "constant": true,
      "inputs": [],
      "name": "VERSION",
      "outputs": [
        {
          "name": "",
          "type": "string"
        }
      ],
      "payable": false,
      "stateMutability": "view",
      "type": "function"
    },
    {
      "anonymous": false,
      "inputs": [
        {
          "indexed": true,
          "name": "subscriptionHash",
          "type": "bytes32"
        },
        {
          "indexed": false,
          "name": "nextWithdraw",
          "type": "uint256"
        }
      ],
      "name": "NextPayment",
      "type": "event"
    },
    {
      "anonymous": false,
      "inputs": [
        {
          "indexed": true,
          "name": "subscriptionHash",
          "type": "bytes32"
        },
        {
          "indexed": false,
          "name": "dynPriceFormat",
          "type": "uint256"
        },
        {
          "indexed": false,
          "name": "conversionRate",
          "type": "uint256"
        },
        {
          "indexed": false,
          "name": "paymentTotal",
          "type": "uint256"
        }
      ],
      "name": "OraclizedDenomination",
      "type": "event"
    },
    {
      "anonymous": false,
      "inputs": [
        {
          "indexed": true,
          "name": "subscriptionHash",
          "type": "bytes32"
        },
        {
          "indexed": false,
          "name": "prev",
          "type": "uint8"
        },
        {
          "indexed": false,
          "name": "next",
          "type": "uint8"
        }
      ],
      "name": "StatusChanged",
      "type": "event"
    },
    {
      "constant": false,
      "inputs": [
        {
          "name": "_oracleRegistry",
          "type": "address"
        }
      ],
      "name": "setup",
      "outputs": [],
      "payable": false,
      "stateMutability": "nonpayable",
      "type": "function"
    },
    {
      "constant": false,
      "inputs": [
        {
          "name": "to",
          "type": "address"
        },
        {
          "name": "value",
          "type": "uint256"
        },
        {
          "name": "data",
          "type": "bytes"
        },
        {
          "name": "period",
          "type": "uint8"
        },
        {
          "name": "startDate",
          "type": "uint256"
        },
        {
          "name": "endDate",
          "type": "uint256"
        },
        {
          "name": "uniqId",
          "type": "uint256"
        },
        {
          "name": "signatures",
          "type": "bytes"
        }
      ],
      "name": "execSubscription",
      "outputs": [
        {
          "name": "paid",
          "type": "bool"
        }
      ],
      "payable": false,
      "stateMutability": "nonpayable",
      "type": "function"
    },
    {
      "constant": true,
      "inputs": [
        {
          "name": "subscriptionHash",
          "type": "bytes32"
        },
        {
          "name": "signatures",
          "type": "bytes"
        }
      ],
      "name": "isValidSubscription",
      "outputs": [
        {
          "name": "isValid",
          "type": "bool"
        }
      ],
      "payable": false,
      "stateMutability": "view",
      "type": "function"
    },
    {
      "constant": false,
      "inputs": [
        {
          "name": "subscriptionHash",
          "type": "bytes32"
        }
      ],
      "name": "cancelSubscriptionAsManager",
      "outputs": [
        {
          "name": "success",
          "type": "bool"
        }
      ],
      "payable": false,
      "stateMutability": "nonpayable",
      "type": "function"
    },
    {
      "constant": false,
      "inputs": [
        {
          "name": "to",
          "type": "address"
        },
        {
          "name": "value",
          "type": "uint256"
        },
        {
          "name": "data",
          "type": "bytes"
        },
        {
          "name": "period",
          "type": "uint8"
        },
        {
          "name": "startDate",
          "type": "uint256"
        },
        {
          "name": "endDate",
          "type": "uint256"
        },
        {
          "name": "uniqId",
          "type": "uint256"
        },
        {
          "name": "signatures",
          "type": "bytes"
        }
      ],
      "name": "cancelSubscriptionAsRecipient",
      "outputs": [
        {
          "name": "cancelled",
          "type": "bool"
        }
      ],
      "payable": false,
      "stateMutability": "nonpayable",
      "type": "function"
    },
    {
      "constant": false,
      "inputs": [
        {
          "name": "subscriptionHash",
          "type": "bytes32"
        },
        {
          "name": "signatures",
          "type": "bytes"
        }
      ],
      "name": "cancelSubscription",
      "outputs": [
        {
          "name": "cancelled",
          "type": "bool"
        }
      ],
      "payable": false,
      "stateMutability": "nonpayable",
      "type": "function"
    },
    {
      "constant": true,
      "inputs": [
        {
          "name": "to",
          "type": "address"
        },
        {
          "name": "value",
          "type": "uint256"
        },
        {
          "name": "data",
          "type": "bytes"
        },
        {
          "name": "period",
          "type": "uint8"
        },
        {
          "name": "startDate",
          "type": "uint256"
        },
        {
          "name": "endDate",
          "type": "uint256"
        },
        {
          "name": "uniqId",
          "type": "uint256"
        }
      ],
      "name": "getSubscriptionHash",
      "outputs": [
        {
          "name": "",
          "type": "bytes32"
        }
      ],
      "payable": false,
      "stateMutability": "view",
      "type": "function"
    },
    {
      "constant": true,
      "inputs": [
        {
          "name": "subscriptionHash",
          "type": "bytes32"
        },
        {
          "name": "action",
          "type": "string"
        }
      ],
      "name": "getSubscriptionActionHash",
      "outputs": [
        {
          "name": "",
          "type": "bytes32"
        }
      ],
      "payable": false,
      "stateMutability": "view",
      "type": "function"
    },
    {
      "constant": true,
      "inputs": [
        {
          "name": "to",
          "type": "address"
        },
        {
          "name": "value",
          "type": "uint256"
        },
        {
          "name": "data",
          "type": "bytes"
        },
        {
          "name": "period",
          "type": "uint8"
        },
        {
          "name": "startDate",
          "type": "uint256"
        },
        {
          "name": "endDate",
          "type": "uint256"
        },
        {
          "name": "uniqId",
          "type": "uint256"
        }
      ],
      "name": "encodeSubscriptionData",
      "outputs": [
        {
          "name": "",
          "type": "bytes"
        }
      ],
      "payable": false,
      "stateMutability": "view",
      "type": "function"
    }
  ],
  "bytecode": "0x608060405234801561001057600080fd5b50612715806100206000396000f3fe608060405234801561001057600080fd5b506004361061013e576000357c010000000000000000000000000000000000000000000000000000000090048063a3f4df7e116100ca578063c8726e211161008e578063c8726e211461068d578063d1dca6701461073a578063d8257400146107e7578063f698da2514610945578063ffa1ad741461094d5761013e565b8063a3f4df7e14610448578063c0a954d614610450578063c0ab963d14610458578063c6cc5716146105b6578063c7ce79fd146105be5761013e565b806366d382031161011157806366d382031461024a57806373ad75b5146102725780637de7edef1461028f5780638043c199146102b557806394259c6c146103f95761013e565b80631db61b54146101435780633f48a4521461015d578063481c6a751461021e5780634bb93ab114610242575b600080fd5b61014b610955565b60408051918252519081900360200190f35b61020a6004803603604081101561017357600080fd5b8135919081019060408101602082013564010000000081111561019557600080fd5b8201836020820111156101a757600080fd5b803590602001918460018302840111640100000000831117156101c957600080fd5b91908080601f016020809104026020016040519081016040528093929190818152602001838380828437600092019190915250929550610979945050505050565b604080519115158252519081900360200190f35b610226610a8e565b60408051600160a060020a039092168252519081900360200190f35b610226610a9d565b6102706004803603602081101561026057600080fd5b5035600160a060020a0316610aac565b005b61020a6004803603602081101561028857600080fd5b5035610bbc565b610270600480360360208110156102a557600080fd5b5035600160a060020a0316610c14565b610384600480360360e08110156102cb57600080fd5b600160a060020a03823516916020810135918101906060810160408201356401000000008111156102fb57600080fd5b82018360208201111561030d57600080fd5b8035906020019184600183028401116401000000008311171561032f57600080fd5b91908080601f0160208091040260200160405190810160405280939291908181526020018383808284376000920191909152509295505060ff8335169350505060208101359060408101359060600135610cd9565b6040805160208082528351818301528351919283929083019185019080838360005b838110156103be5781810151838201526020016103a6565b50505050905090810190601f1680156103eb5780820380516001836020036101000a031916815260200191505b509250505060405180910390f35b6104166004803603602081101561040f57600080fd5b5035610dd5565b6040518084600481111561042657fe5b60ff168152602001838152602001828152602001935050505060405180910390f35b610384610dfa565b61014b610e31565b61020a600480360361010081101561046f57600080fd5b600160a060020a038235169160208101359181019060608101604082013564010000000081111561049f57600080fd5b8201836020820111156104b157600080fd5b803590602001918460018302840111640100000000831117156104d357600080fd5b91908080601f016020809104026020016040519081016040528093929190818152602001838380828437600092019190915250929560ff8535169560208601359560408101359550606081013594509192509060a08101906080013564010000000081111561054157600080fd5b82018360208201111561055357600080fd5b8035906020019184600183028401116401000000008311171561057557600080fd5b91908080601f016020809104026020016040519081016040528093929190818152602001838380828437600092019190915250929550610e55945050505050565b61014b610f43565b61014b600480360360e08110156105d457600080fd5b600160a060020a038235169160208101359181019060608101604082013564010000000081111561060457600080fd5b82018360208201111561061657600080fd5b8035906020019184600183028401116401000000008311171561063857600080fd5b91908080601f0160208091040260200160405190810160405280939291908181526020018383808284376000920191909152509295505060ff8335169350505060208101359060408101359060600135610f67565b61020a600480360360408110156106a357600080fd5b813591908101906040810160208201356401000000008111156106c557600080fd5b8201836020820111156106d757600080fd5b803590602001918460018302840111640100000000831117156106f957600080fd5b91908080601f016020809104026020016040519081016040528093929190818152602001838380828437600092019190915250929550610f8c945050505050565b61014b6004803603604081101561075057600080fd5b8135919081019060408101602082013564010000000081111561077257600080fd5b82018360208201111561078457600080fd5b803590602001918460018302840111640100000000831117156107a657600080fd5b91908080601f01602080910402602001604051908101604052809392919081815260200183838082843760009201919091525092955061102b945050505050565b61020a60048036036101008110156107fe57600080fd5b600160a060020a038235169160208101359181019060608101604082013564010000000081111561082e57600080fd5b82018360208201111561084057600080fd5b8035906020019184600183028401116401000000008311171561086257600080fd5b91908080601f016020809104026020016040519081016040528093929190818152602001838380828437600092019190915250929560ff8535169560208601359560408101359550606081013594509192509060a0810190608001356401000000008111156108d057600080fd5b8201836020820111156108e257600080fd5b8035906020019184600183028401116401000000008311171561090457600080fd5b91908080601f016020809104026020016040519081016040528093929190818152602001838380828437600092019190915250929550611171945050505050565b61014b6111fc565b610384611202565b7f035aff83d86937d35b32e04f0ddc6ff469290eef2f1b692d8a815c89404d474981565b600082815260046020526040812081815460ff16600481111561099857fe5b14156109b0576109a88484611239565b915050610a88565b6004815460ff1660048111156109c257fe5b14806109dd57506003815460ff1660048111156109db57fe5b145b15610a365760028101541515610a275760405160e560020a62461bcd02815260040180806020018281038252604281526020018061258b6042913960600191505060405180910390fd5b80600201544211159150610a86565b6001815460ff166004811115610a4857fe5b148015610a59575042816001015411155b80610a7357506002815460ff166004811115610a7157fe5b145b15610a815760019150610a86565b600091505b505b92915050565b600154600160a060020a031681565b600354600160a060020a031681565b610ab4611436565b60025415610af65760405160e560020a62461bcd02815260040180806020018281038252603e815260200180612470603e913960400191505060405180910390fd5b604080517f035aff83d86937d35b32e04f0ddc6ff469290eef2f1b692d8a815c89404d4749602080830191909152308284015282518083038401815260609092019092528051910120600255600354600160a060020a031615610b8d5760405160e560020a62461bcd02815260040180806020018281038252603d8152602001806125cd603d913960400191505060405180910390fd5b6003805473ffffffffffffffffffffffffffffffffffffffff1916600160a060020a0392909216919091179055565b600154600090600160a060020a03163314610c0b5760405160e560020a62461bcd0281526004018080602001828103825260268152602001806126c46026913960400191505060405180910390fd5b610a88826114b8565b600154600160a060020a03163314610c605760405160e560020a62461bcd0281526004018080602001828103825260268152602001806126c46026913960400191505060405180910390fd5b600160a060020a0381161515610caa5760405160e560020a62461bcd0281526004018080602001828103825260248152602001806122886024913960400191505060405180910390fd5b6000805473ffffffffffffffffffffffffffffffffffffffff1916600160a060020a0392909216919091179055565b8451602095860120604080517ffb712ff729dee2cfef270710d9358c6b90f95803526927d0f046a957b02071ae81890152600160a060020a0399909916898201526060890197909752608088015260ff9390931660a087015260c086019190915260e085015261010080850191909152825180850390910181526101208401835280519101206002547f19000000000000000000000000000000000000000000000000000000000000006101408501527f01000000000000000000000000000000000000000000000000000000000000006101418501526101428401526101628084019190915281518084039091018152610182909201905290565b60046020526000908152604090208054600182015460029092015460ff909116919083565b60408051808201909152600981527f47726f756e64686f670000000000000000000000000000000000000000000000602082015281565b7f98c669e75fc9074217ec4f5c9c90babd89fd441cbf72df46c51dc164302d29a681565b60006060610e688a8a8a8a8a8a8a610cd9565b9050610e7b818051906020012084611239565b1515610ebb5760405160e560020a62461bcd02815260040180806020018281038252604b815260200180612320604b913960600191505060405180910390fd5b89891515610eda575060308801516c0100000000000000000000000090045b33600160a060020a03821614610f245760405160e560020a62461bcd0281526004018080602001828103825260398152602001806122e76039913960400191505060405180910390fd5b610f3482805190602001206114b8565b9b9a5050505050505050505050565b7ffb712ff729dee2cfef270710d9358c6b90f95803526927d0f046a957b02071ae81565b6000610f7888888888888888610cd9565b805190602001209050979650505050505050565b600080610fce846040805190810160405280600681526020017f63616e63656c000000000000000000000000000000000000000000000000000081525061102b565b9050610fda8184611239565b151561101a5760405160e560020a62461bcd0281526004018080602001828103825260488152602001806123f36048913960600191505060405180910390fd5b611023846114b8565b949350505050565b6000807f98c669e75fc9074217ec4f5c9c90babd89fd441cbf72df46c51dc164302d29a660010284846040516020018082805190602001908083835b602083106110865780518252601f199092019160209182019101611067565b51815160209384036101000a60001901801990921691161790526040805192909401828103601f190183528085528251928201929092208282019890985281840196909652606080820197909752825180820390970187526080810183528651968601969096206002547f190000000000000000000000000000000000000000000000000000000000000060a08901527f010000000000000000000000000000000000000000000000000000000000000060a189015260a288015260c2808801919091528251808803909101815260e290960190915250508251929091019190912095945050505050565b600060606111848a8a8a8a8a8a8a610cd9565b9050611197818051906020012084611239565b15156111d75760405160e560020a62461bcd02815260040180806020018281038252603e81526020018061236b603e913960400191505060405180910390fd5b6111ee8a8a8a84805190602001208b8b8b8b6115c6565b9a9950505050505050505050565b60025481565b60408051808201909152600581527f302e312e30000000000000000000000000000000000000000000000000000000602082015281565b600080600090506000806000600160009054906101000a9004600160a060020a0316600160a060020a031663e75235b86040518163ffffffff167c010000000000000000000000000000000000000000000000000000000002815260040160206040518083038186803b1580156112af57600080fd5b505afa1580156112c3573d6000803e3d6000fd5b505050506040513d60208110156112d957600080fd5b50516000955085925090505b80821015611429576112f88787846118fa565b600154604080517f2f54bf6e000000000000000000000000000000000000000000000000000000008152600160a060020a0380851660048301529151939650911691632f54bf6e91602480820192602092909190829003018186803b15801561136057600080fd5b505afa158015611374573d6000803e3d6000fd5b505050506040513d602081101561138a57600080fd5b505115156113cc5760405160e560020a62461bcd0281526004018080602001828103825260418152602001806122476041913960600191505060405180910390fd5b600160a060020a03808516908416116114195760405160e560020a62461bcd02815260040180806020018281038252604181526020018061260a6041913960600191505060405180910390fd5b82935081806001019250506112e5565b5060019695505050505050565b600154600160a060020a031615611497576040805160e560020a62461bcd02815260206004820152601c60248201527f4d616e616765722068617320616c7265616479206265656e2073657400000000604482015290519081900360640190fd5b6001805473ffffffffffffffffffffffffffffffffffffffff191633179055565b60008181526004602052604081206003815460ff1660048111156114d857fe5b141580156114f657506004815460ff1660048111156114f357fe5b14155b15156115365760405160e560020a62461bcd0281526004018080602001828103825260428152602001806124ae6042913960600191505060405180910390fd5b8054604051849160008051602061256b8339815191529160ff909116906003908083600481111561156357fe5b60ff16815260200182600481111561157757fe5b60ff1681526020019250505060405180910390a2805460ff191660031780825560009060ff1660048111156115a857fe5b146115b857600181015460028201555b600060019182015592915050565b60006115d5868686868661197f565b905080156118ee57600088158015906115ef575087516020145b156116ee57600088806020019051602081101561160b57600080fd5b5051600354604080517fed2e5a97000000000000000000000000000000000000000000000000000000008152600481018490529051929350600092600160a060020a039092169163ed2e5a9791602480820192602092909190829003018186803b15801561167857600080fd5b505afa15801561168c573d6000803e3d6000fd5b505050506040513d60208110156116a257600080fd5b505192508290508015156116b557600080fd5b505060408051808201909152600281527f3078000000000000000000000000000000000000000000000000000000000000602082015297505b801561179757670de0b6b3a7640000891161173d5760405160e560020a62461bcd02815260040180806020018281038252604a8152602001806123a9604a913960600191505060405180910390fd5b600061174f8a8363ffffffff611efc16565b604080518c815260208101859052808201839052905191925089917fed5dfc8e1e6c04bfe2a63fe8a78c5d8481db03f1bb05782a390821c73d72a7bf9181900360600190a298505b6001546040517f468721a7000000000000000000000000000000000000000000000000000000008152600160a060020a038c811660048301908152602483018d905292169163468721a7918d918d918d9160009160448101906064018360ff168152602001828103825284818151815260200191508051906020019080838360005b83811015611831578181015183820152602001611819565b50505050905090810190601f16801561185e5780820380516001836020036101000a031916815260200191505b5095505050505050602060405180830381600087803b15801561188057600080fd5b505af1158015611894573d6000803e3d6000fd5b505050506040513d60208110156118aa57600080fd5b505115156118ec5760405160e560020a62461bcd02815260040180806020018281038252603b815260200180612689603b913960400191505060405180910390fd5b505b98975050505050505050565b60008060008061190a8686611f2e565b604080516000815260208082018084528d905260ff8616828401526060820185905260808201849052915194975092955090935060019260a080840193601f198301929081900390910190855afa158015611969573d6000803e3d6000fd5b5050604051601f19015198975050505050505050565b600085815260046020819052604082208291815460ff1660048111156119a157fe5b141580156119bf57506003815460ff1660048111156119bc57fe5b14155b15156119ff5760405160e560020a62461bcd02815260040180806020018281038252603a815260200180612531603a913960400191505060405180910390fd5b6000815460ff166004811115611a1157fe5b1415611b75578415611a675742851015611a5f5760405160e560020a62461bcd02815260040180806020018281038252603b8152602001806122ac603b913960400191505060405180910390fd5b600281018590555b8515611b325742861015611aaf5760405160e560020a62461bcd02815260040180806020018281038252603d81526020018061220a603d913960400191505060405180910390fd5b6001818101879055815460ff1916811782556040805160008152602081019290925280518a9260008051602061256b83398151915292908290030190a26001810154604080519182525189917f19481afaadaa6d733156e570dc94fa706f8de4d0603045c9e74cd50e5881c8b7919081900360200190a25060009150611ef39050565b426001820155805460ff1916600290811782556040805160008152602081019290925280518a9260008051602061256b83398151915292908290030190a2611c11565b6001815460ff166004811115611b8757fe5b1415611c115742861115611bcf5760405160e560020a62461bcd02815260040180806020018281038252603e81526020018061264b603e913960400191505060405180910390fd5b42600182810191909155815460ff19166002908117835560408051928352602083019190915280518a9260008051602061256b83398151915292908290030190a25b6002815460ff166004811115611c2357fe5b14611c625760405160e560020a62461bcd02815260040180806020018281038252603a815260200180612531603a913960400191505060405180910390fd5b80600101544210158015611c795750600181015415155b1515611cb95760405160e560020a62461bcd0281526004018080602001828103825260418152602001806124f06041913960600191505060405180910390fd5b60028760ff161415611cdb57611cd481600101546001611f4c565b9150611e23565b60038760ff161415611cf657611cd481600101546001611f5f565b60048760ff161415611d1157611cd481600101546001611f73565b60058760ff161415611d2c57611cd481600101546007611f73565b60068760ff161415611d4757611cd48160010154600e611f73565b60078760ff161415611d6257611cd481600101546001611f88565b60088760ff161415611d7d57611cd481600101546003611f88565b60098760ff161415611d9857611cd481600101546006611f88565b600a8760ff161415611db357611cd481600101546001612001565b600b8760ff161415611dce57611cd481600101546002612001565b600c8760ff161415611de957611cd481600101546003612001565b60405160e560020a62461bcd02815260040180806020018281038252603581526020018061243b6035913960400191505060405180910390fd5b600281015415801590611e3a575080600201548210155b15611eaa57600060018201558054604051899160008051602061256b8339815191529160ff90911690600490808383811115611e7257fe5b60ff168152602001826004811115611e8657fe5b60ff1681526020019250505060405180910390a2805460ff19166004178155611eb2565b600181018290555b6001810154604080519182525189917f19481afaadaa6d733156e570dc94fa706f8de4d0603045c9e74cd50e5881c8b7919081900360200190a26001925050505b95945050505050565b600081611f1d611f1485670de0b6b3a7640000612028565b60028504612050565b811515611f2657fe5b049392505050565b60419081029190910160208101516040820151919092015160ff1692565b603c8102820182811015610a8857600080fd5b610e108102820182811015610a8857600080fd5b620151808102820182811015610a8857600080fd5b6000808080611f9c62015180875b04612060565b600c918801600019018281049390930195509106600101925090506000611fc384846120f8565b905080821115611fd1578091505b62015180870662015180611fe686868661217e565b0201945086851015611ff757600080fd5b5050505092915050565b60008080806120136201518087611f96565b9187019450925090506000611fc384846120f8565b600081158061204557505080820282828281151561204257fe5b04145b1515610a8857600080fd5b80820182811015610a8857600080fd5b60008080836226496581018262023ab1600483020590506004600362023ab18302010590910390600062164b09610fa0600185010205905060046105b58202058303601f019250600061098f846050028115156120b957fe5b0590506000605061098f83020585039050600b820560301994909401606402929092018301996002600c90940290910392909201975095509350505050565b600081600114806121095750816003145b806121145750816005145b8061211f5750816007145b8061212a5750816008145b80612135575081600a145b80612140575081600c145b1561214d5750601f610a88565b6002821461215d5750601e610a88565b612166836121e4565b61217157601c612174565b601d5b60ff169392505050565b60006107b284101561218f57600080fd5b506225bad61960046064600c600d1986018190059687016113248101929092056003028390056112c09092016105b502929092059093016001199582029094039490940161016f029390930591909101030190565b6000600482061580156121f957506064820615155b80610a885750506101909006159056fe537562736372697074696f6e4d6f64756c653a3a5f70726f636573735375623a20494e56414c49445f444154413a205355425f53544152545f44415445537562736372697074696f6e4d6f64756c653a3a5f636865636b486173683a20494e56414c49445f444154413a205349474e41545552455f4e4f545f4f574e4552496e76616c6964206d617374657220636f707920616464726573732070726f7669646564537562736372697074696f6e4d6f64756c653a3a5f70726f636573735375623a20494e56414c49445f444154413a205355425f454e445f44415445537562736372697074696f6e4d6f64756c653a3a6973526563697069656e743a204d53475f53454e4445525f4e4f545f524543495049454e54537562736372697074696f6e4d6f64756c653a3a63616e63656c537562736372697074696f6e4173526563697069656e743a20494e56414c49445f444154413a205349474e415455524553537562736372697074696f6e4d6f64756c653a3a65786563537562736372697074696f6e3a20494e56414c49445f444154413a205349474e415455524553537562736372697074696f6e4d6f64756c653a3a5f706179537562736372697074696f6e3a20494e56414c49445f464f524d41543a2044594e414d49435f50524943455f464f524d4154537562736372697074696f6e4d6f64756c653a3a63616e63656c537562736372697074696f6e3a20494e56414c49445f444154413a205349474e4154555245535f494e56414c4944537562736372697074696f6e4d6f64756c653a3a5f70726f636573735375623a20494e56414c49445f444154413a20504552494f44537562736372697074696f6e4d6f64756c653a3a73657475703a20494e56414c49445f53544154453a20444f4d41494e5f534550415241544f525f534554537562736372697074696f6e4d6f64756c653a3a5f63616e63656c537562736372697074696f6e3a20494e56414c49445f53544154453a205355425f535441545553537562736372697074696f6e4d6f64756c653a3a5f70726f636573735375623a20494e56414c49445f53544154453a205355425f4e4558545f5749544844524157537562736372697074696f6e4d6f64756c653a3a5f70726f636573735375623a20494e56414c49445f53544154453a205355425f5354415455534d7781468081641aba2c04c3349fcf5830b9fedac1b7aaffabc1f1dc6b8883fb537562736372697074696f6e4d6f64756c653a3a697356616c6964537562736372697074696f6e3a20494e56414c49445f53544154453a205355425f535441545553537562736372697074696f6e4d6f64756c653a3a73657475703a20494e56414c49445f53544154453a204f5241434c455f52454749535452595f534554537562736372697074696f6e4d6f64756c653a3a5f636865636b486173683a20494e56414c49445f444154413a205349474e41545552455f4f55545f4f52444552537562736372697074696f6e4d6f64756c653a3a5f70726f636573735375623a20494e56414c49445f53544154453a205355425f53544152545f44415445537562736372697074696f6e4d6f64756c653a3a5f706179537562736372697074696f6e3a20494e56414c49445f455845433a205041595f5355424d6574686f642063616e206f6e6c792062652063616c6c65642066726f6d206d616e61676572a165627a7a72305820d738e01a9d1b7ad183ed99c09c57f89659b8d2741713b76ceb4b51614699b3770029",
  "source": "pragma solidity ^0.5.0;\n\nimport \"../base/Module.sol\";\nimport \"../base/OwnerManager.sol\";\nimport \"../common/GEnum.sol\";\nimport \"../common/Enum.sol\";\nimport \"../common/SignatureDecoder.sol\";\nimport \"../external/BokkyPooBahsDateTimeLibrary.sol\";\nimport \"../external/Math.sol\";\nimport \"../interfaces/OracleRegistryI.sol\";\n\n/// @title SubscriptionModule - A module with support for Subscription Payments\n/// @author Andrew Redden - <andrew@groundhog.network>\ncontract SubscriptionModule is Module, SignatureDecoder {\n\n\n    using BokkyPooBahsDateTimeLibrary for uint256;\n    using DSMath for uint256;\n\n    string public constant NAME = \"Groundhog\";\n    string public constant VERSION = \"0.1.0\";\n\n    bytes32 public domainSeparator;\n    address public oracleRegistry;\n\n    //keccak256(\n    //    \"EIP712Domain(address verifyingContract)\"\n    //);\n    bytes32 public constant DOMAIN_SEPARATOR_TYPEHASH = 0x035aff83d86937d35b32e04f0ddc6ff469290eef2f1b692d8a815c89404d4749;\n\n    //keccak256(\n    //  \"EIP1337Execute(address to,uint256 value,bytes data,uint8 period,uint256 startDate,uint256 endDate,uint256 uniqId)\"\n    //)\n    bytes32 public constant EIP1337_TYPEHASH = 0xfb712ff729dee2cfef270710d9358c6b90f95803526927d0f046a957b02071ae;\n\n    //    //keccak256(\n    //    //  \"EIP1337Execute(address to,uint256 value,bytes data,uint8 period,uint8 rate,uint256 startDate,uint256 endDate,uint256 uniqId)\"\n    //    //)\n    //    bytes32 public constant EIP1337_TYPEHASH = 0x42d388c264cfbbed274909b3cf362a96c5cf9b2cd6733165cb9a8bb92b532098;\n\n    //keccak256(\n    //  \"EIP1337Action(bytes32 subscriptionHash,string action)\"\n    //)\n    bytes32 public constant EIP1337_ACTION_TYPEHASH = 0x98c669e75fc9074217ec4f5c9c90babd89fd441cbf72df46c51dc164302d29a6;\n\n    mapping(bytes32 => Meta) public subscriptions;\n\n    struct Meta {\n        GEnum.SubscriptionStatus status;\n        uint256 nextWithdraw;\n        uint256 endDate;\n    }\n\n    event NextPayment(\n        bytes32 indexed subscriptionHash,\n        uint256 nextWithdraw\n    );\n\n    event OraclizedDenomination(\n        bytes32 indexed subscriptionHash,\n        uint256 dynPriceFormat,\n        uint256 conversionRate,\n        uint256 paymentTotal\n    );\n    event StatusChanged(\n        bytes32 indexed subscriptionHash,\n        GEnum.SubscriptionStatus prev,\n        GEnum.SubscriptionStatus next\n    );\n\n    /// @dev Setup function sets manager\n    function setup(\n        address _oracleRegistry\n    )\n    public\n    {\n        setManager();\n\n        require(\n            domainSeparator == 0,\n            \"SubscriptionModule::setup: INVALID_STATE: DOMAIN_SEPARATOR_SET\"\n        );\n\n        domainSeparator = keccak256(\n            abi.encode(\n                DOMAIN_SEPARATOR_TYPEHASH,\n                address(this)\n            )\n        );\n\n        require(\n            oracleRegistry == address(0),\n            \"SubscriptionModule::setup: INVALID_STATE: ORACLE_REGISTRY_SET\"\n        );\n\n        oracleRegistry = _oracleRegistry;\n    }\n\n    /// @dev Allows to execute a Safe transaction confirmed by required number of owners and then pays the account that submitted the transaction.\n    ///      Note: The fees are always transferred, even if the user transaction fails.\n    /// @param to Destination address of Safe transaction.\n    /// @param value Ether value of Safe transaction.\n    /// @param data Data payload of Safe transaction.\n    /// @param period uint256\n    /// @param uniqId uint256\n    /// @param startDate uint256\n    /// @param endDate uint256\n    /// @param signatures Packed signature data ({bytes32 r}{bytes32 s}{uint2568 v})\n    /// @return success boolean value of execution\n    function execSubscription(\n        address to,\n        uint256 value,\n        bytes memory data,\n        uint8 period,\n        uint256 startDate,\n        uint256 endDate,\n        uint256 uniqId,\n        bytes memory signatures\n    )\n    public\n    returns\n    (\n        bool paid\n    )\n    {\n\n        bytes memory subHashData = encodeSubscriptionData(\n            to,\n            value,\n            data,\n            period,\n            startDate,\n            endDate,\n            uniqId\n        );\n\n        require(\n            _checkHash(\n                keccak256(subHashData),\n                signatures\n            ),\n            \"SubscriptionModule::execSubscription: INVALID_DATA: SIGNATURES\"\n        );\n\n        paid = _paySubscription(\n            to,\n            value,\n            data,\n            keccak256(subHashData),\n            period,\n            startDate,\n            endDate,\n            uniqId\n        );\n    }\n\n\n    /// @dev internal method to execution the actual payment\n    function _paySubscription(\n        address to,\n        uint256 value,\n        bytes memory data,\n        bytes32 subscriptionHash,\n        uint8 period,\n        uint256 startDate,\n        uint256 endDate,\n        uint256 uniqId\n    )\n    internal\n    returns (bool processPayment)\n    {\n\n\n        processPayment = _processSub(\n            subscriptionHash,\n            period,\n            startDate,\n            endDate,\n            uniqId\n        );\n\n        if (processPayment) {\n\n            uint256 conversionRate;\n            if (value != 0 && (data.length == 32)) {//find a better type identifier to show these, first x bytes are something\n                //if its 32 exactly, its likely just the one uint256, which means this is not a function call\n\n                uint256 oracleFeed = abi.decode(\n                    data, (uint)\n                );\n\n                bytes32 rate = OracleRegistryI(oracleRegistry).read(\n                    oracleFeed\n                );\n\n                conversionRate = uint256(rate);\n\n                require(conversionRate != uint(0));\n                data = \"0x\";\n            }\n\n            if (conversionRate != uint256(0)) {\n\n                //when in priceFeed format, price feeds are denominated in Ether but converted to the feed pairing\n                //ETHUSD, WBTC/USD\n                require(\n                    value > 1.00 ether,\n                    \"SubscriptionModule::_paySubscription: INVALID_FORMAT: DYNAMIC_PRICE_FORMAT\"\n                );\n\n                uint256 payment = value.wdiv(\n                    conversionRate\n                );\n\n                emit OraclizedDenomination(\n                    subscriptionHash,\n                    value,\n                    conversionRate,\n                    payment\n                );\n\n                value = payment;\n            }\n\n            require(\n                manager.execTransactionFromModule(to, value, data, Enum.Operation.Call),\n                \"SubscriptionModule::_paySubscription: INVALID_EXEC: PAY_SUB\"\n            );\n        }\n    }\n\n\n\n    /// @dev hash check function, to verify that owners have signed the incoming signature\n    function _checkHash(\n        bytes32 hash,\n        bytes memory signatures\n    )\n    internal\n    view\n    returns (\n        bool valid\n    )\n    {\n        // There cannot be an owner with address 0.\n        address lastOwner = address(0);\n        address currentOwner;\n        uint256 i;\n        uint256 threshold = OwnerManager(address(manager)).getThreshold();\n        // Validate threshold is reached.\n        valid = false;\n\n        for (i = 0; i < threshold; i++) {\n\n            currentOwner = recoverKey(\n                hash,\n                signatures, i\n            );\n\n            require(\n                OwnerManager(address(manager)).isOwner(currentOwner),\n                \"SubscriptionModule::_checkHash: INVALID_DATA: SIGNATURE_NOT_OWNER\"\n            );\n\n            require(\n                currentOwner > lastOwner,\n                \"SubscriptionModule::_checkHash: INVALID_DATA: SIGNATURE_OUT_ORDER\"\n            );\n\n            lastOwner = currentOwner;\n        }\n\n        valid = true;\n    }\n\n\n    /// @dev Allows to execute a Safe transaction confirmed by required number of owners and then pays the account that submitted the transaction.\n    ///      Note: The fees are always transferred, even if the user transaction fails.\n    /// @param subscriptionHash bytes32 hash of on chain sub\n    /// @return bool isValid returns the validity of the subscription\n    function isValidSubscription(\n        bytes32 subscriptionHash,\n        bytes memory signatures\n    )\n    public\n    view\n    returns (bool isValid)\n    {\n\n        Meta storage sub = subscriptions[subscriptionHash];\n\n        //exit early if we can\n        if (sub.status == GEnum.SubscriptionStatus.INIT) {\n            return _checkHash(\n                subscriptionHash,\n                signatures\n            );\n        }\n\n        if (sub.status == GEnum.SubscriptionStatus.EXPIRED || sub.status == GEnum.SubscriptionStatus.CANCELLED) {\n\n            require(\n                sub.endDate != 0,\n                \"SubscriptionModule::isValidSubscription: INVALID_STATE: SUB_STATUS\"\n            );\n\n            isValid = (now <= sub.endDate);\n        } else if (\n            (sub.status == GEnum.SubscriptionStatus.TRIAL && sub.nextWithdraw <= now)\n            ||\n            (sub.status == GEnum.SubscriptionStatus.VALID)\n        ) {\n            isValid = true;\n        } else {\n            isValid = false;\n        }\n    }\n\n    //cancel subscription as a gnosis safe txn\n    function cancelSubscriptionAsManager(\n        bytes32 subscriptionHash\n    )\n    authorized\n    public\n    returns (bool success) {\n\n        success = _cancelSubscription(subscriptionHash);\n    }\n\n    /// @dev cancel the subscription as the recipient of the subscription, in cases where a merchant wants to\n    /// cancel and prevent further payment\n    function cancelSubscriptionAsRecipient(\n        address to,\n        uint256 value,\n        bytes memory data,\n        uint8 period,\n        uint256 startDate,\n        uint256 endDate,\n        uint256 uniqId,\n        bytes memory signatures\n    )\n    public\n    returns (bool cancelled) {\n\n        bytes memory subHashData = encodeSubscriptionData(\n            to,\n            value,\n            data,\n            period,\n            startDate,\n            endDate,\n            uniqId\n        );\n\n        require(\n            _checkHash(keccak256(subHashData), signatures),\n            \"SubscriptionModule::cancelSubscriptionAsRecipient: INVALID_DATA: SIGNATURES\"\n        );\n\n        address recipient = to;\n//        if no value, assume its an ERC20 token, remove the to argument from the data\n        if (value == uint(0)) {\n\n            // solium-disable-next-line security/no-inline-assembly\n            assembly {\n                recipient := div(mload(add(add(data, 0x20), 16)), 0x1000000000000000000000000)\n            }\n        }\n\n        require(msg.sender == recipient, \"SubscriptionModule::isRecipient: MSG_SENDER_NOT_RECIPIENT\");\n\n        cancelled = _cancelSubscription(keccak256(subHashData));\n\n    }\n\n\n    /// @dev Allows to execute a Safe transaction confirmed by required number of owners and then pays the account that\n    /// submitted the transaction.\n    /// @return bool hash of on sub to revoke or cancel\n    function cancelSubscription(\n        bytes32 subscriptionHash,\n        bytes memory signatures\n    )\n    public\n    returns (bool cancelled)\n    {\n\n        bytes32 cancelHash = getSubscriptionActionHash(subscriptionHash, \"cancel\");\n\n        require(\n            _checkHash(cancelHash, signatures),\n            \"SubscriptionModule::cancelSubscription: INVALID_DATA: SIGNATURES_INVALID\"\n        );\n\n        cancelled = _cancelSubscription(subscriptionHash);\n\n    }\n\n\n    /// @dev the internal function that cancels the subscription\n    function _cancelSubscription(\n        bytes32 subscriptionHash\n    )\n    internal\n    returns (bool cancelled)\n    {\n\n        Meta storage sub = subscriptions[subscriptionHash];\n\n\n        require(\n            (sub.status != GEnum.SubscriptionStatus.CANCELLED && sub.status != GEnum.SubscriptionStatus.EXPIRED),\n            \"SubscriptionModule::_cancelSubscription: INVALID_STATE: SUB_STATUS\"\n        );\n\n        emit StatusChanged(\n            subscriptionHash,\n            sub.status,\n            GEnum.SubscriptionStatus.CANCELLED\n        );\n\n        sub.status = GEnum.SubscriptionStatus.CANCELLED;\n\n        if (sub.status != GEnum.SubscriptionStatus.INIT) {\n            sub.endDate = sub.nextWithdraw;\n        }\n\n        sub.nextWithdraw = 0;\n\n        cancelled = true;\n    }\n\n    /// @dev used to help mitigate stack issues\n    /// @return bool\n    function _processSub(\n        bytes32 subscriptionHash,\n        uint8 period,\n        uint256 startDate,\n        uint256 endDate,\n        uint256 uniqId\n    )\n    internal\n    returns (bool processPayment)\n    {\n        uint256 withdrawHolder;\n        Meta storage sub = subscriptions[subscriptionHash];\n\n        require(\n            (sub.status != GEnum.SubscriptionStatus.EXPIRED && sub.status != GEnum.SubscriptionStatus.CANCELLED),\n            \"SubscriptionModule::_processSub: INVALID_STATE: SUB_STATUS\"\n        );\n\n\n        if (sub.status == GEnum.SubscriptionStatus.INIT) {\n\n            if (endDate != 0) {\n\n                require(\n                    endDate >= now,\n                    \"SubscriptionModule::_processSub: INVALID_DATA: SUB_END_DATE\"\n                );\n                sub.endDate = endDate;\n            }\n\n            if (startDate != 0) {\n\n                require(\n                    startDate >= now,\n                    \"SubscriptionModule::_processSub: INVALID_DATA: SUB_START_DATE\"\n                );\n                sub.nextWithdraw = startDate;\n                sub.status = GEnum.SubscriptionStatus.TRIAL;\n\n                emit StatusChanged(\n                    subscriptionHash,\n                    GEnum.SubscriptionStatus.INIT,\n                    GEnum.SubscriptionStatus.TRIAL\n                );\n                //emit here because of early method exit after trial setup\n                emit NextPayment(\n                    subscriptionHash,\n                    sub.nextWithdraw\n                );\n\n                //early exit to let trial period start\n                processPayment = false;\n                return processPayment;\n            } else {\n\n                sub.nextWithdraw = now;\n                sub.status = GEnum.SubscriptionStatus.VALID;\n                emit StatusChanged(\n                    subscriptionHash,\n                    GEnum.SubscriptionStatus.INIT,\n                    GEnum.SubscriptionStatus.VALID\n                );\n            }\n\n        } else if (sub.status == GEnum.SubscriptionStatus.TRIAL) {\n\n            require(\n                now >= startDate,\n                \"SubscriptionModule::_processSub: INVALID_STATE: SUB_START_DATE\"\n            );\n            sub.nextWithdraw = now;\n            sub.status = GEnum.SubscriptionStatus.VALID;\n\n            emit StatusChanged(\n                subscriptionHash,\n                GEnum.SubscriptionStatus.TRIAL,\n                GEnum.SubscriptionStatus.VALID\n            );\n        }\n\n        require(\n            sub.status == GEnum.SubscriptionStatus.VALID,\n            \"SubscriptionModule::_processSub: INVALID_STATE: SUB_STATUS\"\n        );\n\n        require(\n            now >= sub.nextWithdraw && sub.nextWithdraw != 0,\n            \"SubscriptionModule::_processSub: INVALID_STATE: SUB_NEXT_WITHDRAW\"\n        );\n\n        if (\n            period == uint256(GEnum.Period.MINUTE)\n        ) {\n            withdrawHolder = BokkyPooBahsDateTimeLibrary.addMinutes(sub.nextWithdraw, 1);\n        } else if (\n            period == uint256(GEnum.Period.HOUR)\n        ) {\n            withdrawHolder = BokkyPooBahsDateTimeLibrary.addHours(sub.nextWithdraw, 1);\n        } else if (\n            period == uint256(GEnum.Period.DAY)\n        ) {\n            withdrawHolder = BokkyPooBahsDateTimeLibrary.addDays(sub.nextWithdraw, 1);\n        } else if (\n            period == uint256(GEnum.Period.WEEK)\n        ) {\n            withdrawHolder = BokkyPooBahsDateTimeLibrary.addDays(sub.nextWithdraw, 7);\n        } else if (\n            period == uint256(GEnum.Period.BI_WEEKLY)\n        ) {\n            withdrawHolder = BokkyPooBahsDateTimeLibrary.addDays(sub.nextWithdraw, 14);\n        } else if (\n            period == uint256(GEnum.Period.MONTH)\n        ) {\n            withdrawHolder = BokkyPooBahsDateTimeLibrary.addMonths(sub.nextWithdraw, 1);\n        } else if (\n            period == uint256(GEnum.Period.THREE_MONTH)\n        ) {\n            withdrawHolder = BokkyPooBahsDateTimeLibrary.addMonths(sub.nextWithdraw, 3);\n\n        } else if (\n            period == uint256(GEnum.Period.SIX_MONTH)\n        ) {\n            withdrawHolder = BokkyPooBahsDateTimeLibrary.addMonths(sub.nextWithdraw, 6);\n\n        } else if (\n            period == uint256(GEnum.Period.YEAR)\n        ) {\n            withdrawHolder = BokkyPooBahsDateTimeLibrary.addYears(sub.nextWithdraw, 1);\n        } else if (\n            period == uint256(GEnum.Period.TWO_YEAR)\n        ) {\n            withdrawHolder = BokkyPooBahsDateTimeLibrary.addYears(sub.nextWithdraw, 2);\n\n        } else if (\n            period == uint256(GEnum.Period.THREE_YEAR)\n        ) {\n            withdrawHolder = BokkyPooBahsDateTimeLibrary.addYears(sub.nextWithdraw, 3);\n\n        } else {\n            revert(\"SubscriptionModule::_processSub: INVALID_DATA: PERIOD\");\n        }\n\n        //if a subscription is expiring and its next withdraw timeline is beyond hte time of the expiration\n        //modify the status\n        if (sub.endDate != 0 && withdrawHolder >= sub.endDate) {\n\n            sub.nextWithdraw = 0;\n            emit StatusChanged(\n                subscriptionHash,\n                sub.status,\n                GEnum.SubscriptionStatus.EXPIRED\n            );\n            sub.status = GEnum.SubscriptionStatus.EXPIRED;\n        } else {\n            sub.nextWithdraw = withdrawHolder;\n        }\n\n        emit NextPayment(\n            subscriptionHash,\n            sub.nextWithdraw\n        );\n        processPayment = true;\n    }\n\n    /// @dev Returns hash to be signed by owners.\n    /// @param to Destination address.\n    /// @param value Ether value.\n    /// @param data Data payload.\n    /// @return Subscription hash.\n    function getSubscriptionHash(\n        address to,\n        uint256 value,\n        bytes memory data,\n        uint8 period,\n        uint256 startDate,\n        uint256 endDate,\n        uint256 uniqId\n    )\n    public\n    view\n    returns (bytes32)\n    {\n        return keccak256(\n            encodeSubscriptionData(\n                to,\n                value,\n                data,\n                period,\n                startDate,\n                endDate,\n                uniqId\n            )\n        );\n    }\n\n    /// @dev Returns hash to be signed by owners for cancelling a subscription\n    function getSubscriptionActionHash(\n        bytes32 subscriptionHash,\n        string memory action\n    )\n    public\n    view\n    returns (bytes32)\n    {\n\n        bytes32 eip1337ActionHash = keccak256(\n            abi.encode(\n                EIP1337_ACTION_TYPEHASH,\n                subscriptionHash,\n                keccak256(abi.encodePacked(action))\n            )\n        );\n\n        return keccak256(\n            abi.encodePacked(\n                byte(0x19),\n                byte(0x01),\n                domainSeparator,\n                eip1337ActionHash\n            )\n        );\n    }\n\n\n    /// @dev Returns the bytes that are hashed to be signed by owners.\n    /// @param to Destination address.\n    /// @param value Ether value.\n    /// @param data Data payload.\n    /// @return Subscription hash bytes.\n    function encodeSubscriptionData(\n        address to,\n        uint256 value,\n        bytes memory data,\n        uint8 period,\n        uint256 startDate,\n        uint256 endDate,\n        uint256 uniqId\n    )\n    public\n    view\n    returns (bytes memory)\n    {\n        bytes32 eip1337TxHash = keccak256(\n            abi.encode(\n                EIP1337_TYPEHASH,\n                to,\n                value,\n                keccak256(data),\n                period,\n                startDate,\n                endDate,\n                uniqId\n            )\n        );\n\n        return abi.encodePacked(\n            byte(0x19),\n            byte(0x01),\n            domainSeparator,\n            eip1337TxHash\n        );\n    }\n}\n",
  "sourcePath": "/Users/andrewredden/Development/gh/safe-contracts/contracts/modules/SubscriptionModule.sol",
  "compiler": {
    "name": "solc",
    "version": "0.5.3+commit.10d17f24.Emscripten.clang"
  },
  "schemaVersion": "3.0.0-beta.2",
  "updatedAt": "2019-02-24T21:08:44.220Z",
  "devdoc": {
    "author": "Andrew Redden - <andrew@groundhog.network>",
    "methods": {
      "cancelSubscription(bytes32,bytes)": {
        "details": "Allows to execute a Safe transaction confirmed by required number of owners and then pays the account that submitted the transaction.",
        "return": "bool hash of on sub to revoke or cancel"
      },
      "cancelSubscriptionAsRecipient(address,uint256,bytes,uint8,uint256,uint256,uint256,bytes)": {
        "details": "cancel the subscription as the recipient of the subscription, in cases where a merchant wants to cancel and prevent further payment"
      },
      "changeMasterCopy(address)": {
        "details": "Allows to upgrade the contract. This can only be done via a Safe transaction.",
        "params": {
          "_masterCopy": "New contract address."
        }
      },
      "encodeSubscriptionData(address,uint256,bytes,uint8,uint256,uint256,uint256)": {
        "details": "Returns the bytes that are hashed to be signed by owners.",
        "params": {
          "data": "Data payload.",
          "to": "Destination address.",
          "value": "Ether value."
        },
        "return": "Subscription hash bytes."
      },
      "execSubscription(address,uint256,bytes,uint8,uint256,uint256,uint256,bytes)": {
        "details": "Allows to execute a Safe transaction confirmed by required number of owners and then pays the account that submitted the transaction.      Note: The fees are always transferred, even if the user transaction fails.",
        "params": {
          "data": "Data payload of Safe transaction.",
          "endDate": "uint256",
          "period": "uint256",
          "signatures": "Packed signature data ({bytes32 r}{bytes32 s}{uint2568 v})",
          "startDate": "uint256",
          "to": "Destination address of Safe transaction.",
          "uniqId": "uint256",
          "value": "Ether value of Safe transaction."
        },
        "return": "success boolean value of execution"
      },
      "getSubscriptionActionHash(bytes32,string)": {
        "details": "Returns hash to be signed by owners for cancelling a subscription"
      },
      "getSubscriptionHash(address,uint256,bytes,uint8,uint256,uint256,uint256)": {
        "details": "Returns hash to be signed by owners.",
        "params": {
          "data": "Data payload.",
          "to": "Destination address.",
          "value": "Ether value."
        },
        "return": "Subscription hash."
      },
      "isValidSubscription(bytes32,bytes)": {
        "details": "Allows to execute a Safe transaction confirmed by required number of owners and then pays the account that submitted the transaction.      Note: The fees are always transferred, even if the user transaction fails.",
        "params": {
          "subscriptionHash": "bytes32 hash of on chain sub"
        },
        "return": "bool isValid returns the validity of the subscription"
      },
      "setup(address)": {
        "details": "Setup function sets manager"
      }
    },
    "title": "SubscriptionModule - A module with support for Subscription Payments"
  },
  "userdoc": {
    "methods": {}
  }
}