{
  "contractName": "SubscriptionModule",
  "abi": [
    {
      "constant": true,
      "inputs": [],
      "name": "DOMAIN_SEPARATOR_TYPEHASH",
      "outputs": [
        {
          "name": "",
          "type": "bytes32"
        }
      ],
      "payable": false,
      "stateMutability": "view",
      "type": "function"
    },
    {
      "constant": true,
      "inputs": [],
      "name": "manager",
      "outputs": [
        {
          "name": "",
          "type": "address"
        }
      ],
      "payable": false,
      "stateMutability": "view",
      "type": "function"
    },
    {
      "constant": true,
      "inputs": [],
      "name": "oracleRegistry",
      "outputs": [
        {
          "name": "",
          "type": "address"
        }
      ],
      "payable": false,
      "stateMutability": "view",
      "type": "function"
    },
    {
      "constant": false,
      "inputs": [
        {
          "name": "_masterCopy",
          "type": "address"
        }
      ],
      "name": "changeMasterCopy",
      "outputs": [],
      "payable": false,
      "stateMutability": "nonpayable",
      "type": "function"
    },
    {
      "constant": true,
      "inputs": [
        {
          "name": "",
          "type": "bytes32"
        }
      ],
      "name": "subscriptions",
      "outputs": [
        {
          "name": "status",
          "type": "uint8"
        },
        {
          "name": "nextWithdraw",
          "type": "uint256"
        },
        {
          "name": "endDate",
          "type": "uint256"
        }
      ],
      "payable": false,
      "stateMutability": "view",
      "type": "function"
    },
    {
      "constant": true,
      "inputs": [],
      "name": "NAME",
      "outputs": [
        {
          "name": "",
          "type": "string"
        }
      ],
      "payable": false,
      "stateMutability": "view",
      "type": "function"
    },
    {
      "constant": true,
      "inputs": [],
      "name": "EIP1337_ACTION_TYPEHASH",
      "outputs": [
        {
          "name": "",
          "type": "bytes32"
        }
      ],
      "payable": false,
      "stateMutability": "view",
      "type": "function"
    },
    {
      "constant": true,
      "inputs": [],
      "name": "EIP1337_TYPEHASH",
      "outputs": [
        {
          "name": "",
          "type": "bytes32"
        }
      ],
      "payable": false,
      "stateMutability": "view",
      "type": "function"
    },
    {
      "constant": true,
      "inputs": [],
      "name": "domainSeparator",
      "outputs": [
        {
          "name": "",
          "type": "bytes32"
        }
      ],
      "payable": false,
      "stateMutability": "view",
      "type": "function"
    },
    {
      "constant": true,
      "inputs": [],
      "name": "VERSION",
      "outputs": [
        {
          "name": "",
          "type": "string"
        }
      ],
      "payable": false,
      "stateMutability": "view",
      "type": "function"
    },
    {
      "anonymous": false,
      "inputs": [
        {
          "indexed": true,
          "name": "hash",
          "type": "bytes32"
        },
        {
          "indexed": false,
          "name": "nextWithdraw",
          "type": "uint256"
        }
      ],
      "name": "NextPayment",
      "type": "event"
    },
    {
      "anonymous": false,
      "inputs": [
        {
          "indexed": true,
          "name": "hash",
          "type": "bytes32"
        },
        {
          "indexed": false,
          "name": "dynPriceFormat",
          "type": "uint256"
        },
        {
          "indexed": false,
          "name": "conversionRate",
          "type": "uint256"
        },
        {
          "indexed": false,
          "name": "paymentTotal",
          "type": "uint256"
        }
      ],
      "name": "OraclizedDenomination",
      "type": "event"
    },
    {
      "anonymous": false,
      "inputs": [
        {
          "indexed": true,
          "name": "hash",
          "type": "bytes32"
        },
        {
          "indexed": false,
          "name": "prev",
          "type": "uint8"
        },
        {
          "indexed": false,
          "name": "next",
          "type": "uint8"
        }
      ],
      "name": "StatusChanged",
      "type": "event"
    },
    {
      "constant": false,
      "inputs": [
        {
          "name": "_oracleRegistry",
          "type": "address"
        }
      ],
      "name": "setup",
      "outputs": [],
      "payable": false,
      "stateMutability": "nonpayable",
      "type": "function"
    },
    {
      "constant": false,
      "inputs": [
        {
          "name": "to",
          "type": "address"
        },
        {
          "name": "value",
          "type": "uint256"
        },
        {
          "name": "data",
          "type": "bytes"
        },
        {
          "name": "period",
          "type": "uint8"
        },
        {
          "name": "startDate",
          "type": "uint256"
        },
        {
          "name": "endDate",
          "type": "uint256"
        },
        {
          "name": "unique",
          "type": "uint256"
        },
        {
          "name": "signatures",
          "type": "bytes"
        }
      ],
      "name": "execute",
      "outputs": [
        {
          "name": "paid",
          "type": "bool"
        }
      ],
      "payable": false,
      "stateMutability": "nonpayable",
      "type": "function"
    },
    {
      "constant": true,
      "inputs": [
        {
          "name": "hash",
          "type": "bytes32"
        },
        {
          "name": "signatures",
          "type": "bytes"
        }
      ],
      "name": "isValid",
      "outputs": [
        {
          "name": "valid",
          "type": "bool"
        }
      ],
      "payable": false,
      "stateMutability": "view",
      "type": "function"
    },
    {
      "constant": false,
      "inputs": [
        {
          "name": "hash",
          "type": "bytes32"
        }
      ],
      "name": "cancelAsManager",
      "outputs": [
        {
          "name": "success",
          "type": "bool"
        }
      ],
      "payable": false,
      "stateMutability": "nonpayable",
      "type": "function"
    },
    {
      "constant": false,
      "inputs": [
        {
          "name": "to",
          "type": "address"
        },
        {
          "name": "value",
          "type": "uint256"
        },
        {
          "name": "data",
          "type": "bytes"
        },
        {
          "name": "period",
          "type": "uint8"
        },
        {
          "name": "startDate",
          "type": "uint256"
        },
        {
          "name": "endDate",
          "type": "uint256"
        },
        {
          "name": "unique",
          "type": "uint256"
        },
        {
          "name": "signatures",
          "type": "bytes"
        }
      ],
      "name": "cancelAsRecipient",
      "outputs": [
        {
          "name": "cancelled",
          "type": "bool"
        }
      ],
      "payable": false,
      "stateMutability": "nonpayable",
      "type": "function"
    },
    {
      "constant": false,
      "inputs": [
        {
          "name": "hash",
          "type": "bytes32"
        },
        {
          "name": "signatures",
          "type": "bytes"
        }
      ],
      "name": "cancel",
      "outputs": [
        {
          "name": "cancelled",
          "type": "bool"
        }
      ],
      "payable": false,
      "stateMutability": "nonpayable",
      "type": "function"
    },
    {
      "constant": true,
      "inputs": [
        {
          "name": "to",
          "type": "address"
        },
        {
          "name": "value",
          "type": "uint256"
        },
        {
          "name": "data",
          "type": "bytes"
        },
        {
          "name": "period",
          "type": "uint8"
        },
        {
          "name": "startDate",
          "type": "uint256"
        },
        {
          "name": "endDate",
          "type": "uint256"
        },
        {
          "name": "unique",
          "type": "uint256"
        }
      ],
      "name": "getHash",
      "outputs": [
        {
          "name": "",
          "type": "bytes32"
        }
      ],
      "payable": false,
      "stateMutability": "view",
      "type": "function"
    },
    {
      "constant": true,
      "inputs": [
        {
          "name": "hash",
          "type": "bytes32"
        },
        {
          "name": "action",
          "type": "string"
        }
      ],
      "name": "getActionhash",
      "outputs": [
        {
          "name": "",
          "type": "bytes32"
        }
      ],
      "payable": false,
      "stateMutability": "view",
      "type": "function"
    },
    {
      "constant": true,
      "inputs": [
        {
          "name": "to",
          "type": "address"
        },
        {
          "name": "value",
          "type": "uint256"
        },
        {
          "name": "data",
          "type": "bytes"
        },
        {
          "name": "period",
          "type": "uint8"
        },
        {
          "name": "startDate",
          "type": "uint256"
        },
        {
          "name": "endDate",
          "type": "uint256"
        },
        {
          "name": "unique",
          "type": "uint256"
        }
      ],
      "name": "encodeSubscriptionData",
      "outputs": [
        {
          "name": "",
          "type": "bytes"
        }
      ],
      "payable": false,
      "stateMutability": "view",
      "type": "function"
    }
  ],
  "bytecode": "0x608060405234801561001057600080fd5b506137fe806100206000396000f3fe608060405234801561001057600080fd5b506004361061013e576000357c01000000000000000000000000000000000000000000000000000000009004806394259c6c116100ca578063c0a954d61161008e578063c0a954d614610aa4578063c6cc571614610ac2578063ca014e7f14610ae0578063f698da2514610ca0578063ffa1ad7414610cbe5761013e565b806394259c6c146106e4578063a3f4df7e14610742578063a5bbd586146107c5578063ba6821211461089e578063ba87525b146108e45761013e565b80634f309cb8116101115780634f309cb8146102d257806366d38203146103af5780637500ef6c146103f35780637de7edef146105175780638043c1991461055b5761013e565b80631db61b5414610143578063302bacf314610161578063481c6a751461023e5780634bb93ab114610288575b600080fd5b61014b610d41565b6040518082815260200191505060405180910390f35b6102246004803603604081101561017757600080fd5b81019080803590602001909291908035906020019064010000000081111561019e57600080fd5b8201836020820111156101b057600080fd5b803590602001918460018302840111640100000000831117156101d257600080fd5b91908080601f016020809104026020016040519081016040528093929190818152602001838380828437600081840152601f19601f820116905080830192505050505050509192919290505050610d68565b604051808215151515815260200191505060405180910390f35b610246610e1f565b604051808273ffffffffffffffffffffffffffffffffffffffff1673ffffffffffffffffffffffffffffffffffffffff16815260200191505060405180910390f35b610290610e45565b604051808273ffffffffffffffffffffffffffffffffffffffff1673ffffffffffffffffffffffffffffffffffffffff16815260200191505060405180910390f35b610395600480360360408110156102e857600080fd5b81019080803590602001909291908035906020019064010000000081111561030f57600080fd5b82018360208201111561032157600080fd5b8035906020019184600183028401116401000000008311171561034357600080fd5b91908080601f016020809104026020016040519081016040528093929190818152602001838380828437600081840152601f19601f820116905080830192505050505050509192919290505050610e6b565b604051808215151515815260200191505060405180910390f35b6103f1600480360360208110156103c557600080fd5b81019080803573ffffffffffffffffffffffffffffffffffffffff16906020019092919050505061101e565b005b610501600480360360e081101561040957600080fd5b81019080803573ffffffffffffffffffffffffffffffffffffffff169060200190929190803590602001909291908035906020019064010000000081111561045057600080fd5b82018360208201111561046257600080fd5b8035906020019184600183028401116401000000008311171561048457600080fd5b91908080601f016020809104026020016040519081016040528093929190818152602001838380828437600081840152601f19601f820116905080830192505050505050509192919290803560ff1690602001909291908035906020019092919080359060200190929190803590602001909291905050506111f7565b6040518082815260200191505060405180910390f35b6105596004803603602081101561052d57600080fd5b81019080803573ffffffffffffffffffffffffffffffffffffffff16906020019092919050505061121c565b005b610669600480360360e081101561057157600080fd5b81019080803573ffffffffffffffffffffffffffffffffffffffff16906020019092919080359060200190929190803590602001906401000000008111156105b857600080fd5b8201836020820111156105ca57600080fd5b803590602001918460018302840111640100000000831117156105ec57600080fd5b91908080601f016020809104026020016040519081016040528093929190818152602001838380828437600081840152601f19601f820116905080830192505050505050509192919290803560ff16906020019092919080359060200190929190803590602001909291908035906020019092919050505061138f565b6040518080602001828103825283818151815260200191508051906020019080838360005b838110156106a957808201518184015260208101905061068e565b50505050905090810190601f1680156106d65780820380516001836020036101000a031916815260200191505b509250505060405180910390f35b610710600480360360208110156106fa57600080fd5b8101908080359060200190929190505050611566565b6040518084600481111561072057fe5b60ff168152602001838152602001828152602001935050505060405180910390f35b61074a61159d565b6040518080602001828103825283818151815260200191508051906020019080838360005b8381101561078a57808201518184015260208101905061076f565b50505050905090810190601f1680156107b75780820380516001836020036101000a031916815260200191505b509250505060405180910390f35b610888600480360360408110156107db57600080fd5b81019080803590602001909291908035906020019064010000000081111561080257600080fd5b82018360208201111561081457600080fd5b8035906020019184600183028401116401000000008311171561083657600080fd5b91908080601f016020809104026020016040519081016040528093929190818152602001838380828437600081840152601f19601f8201169050808301925050505050505091929192905050506115d6565b6040518082815260200191505060405180910390f35b6108ca600480360360208110156108b457600080fd5b81019080803590602001909291905050506117c0565b604051808215151515815260200191505060405180910390f35b610a8a60048036036101008110156108fb57600080fd5b81019080803573ffffffffffffffffffffffffffffffffffffffff169060200190929190803590602001909291908035906020019064010000000081111561094257600080fd5b82018360208201111561095457600080fd5b8035906020019184600183028401116401000000008311171561097657600080fd5b91908080601f016020809104026020016040519081016040528093929190818152602001838380828437600081840152601f19601f820116905080830192505050505050509192919290803560ff16906020019092919080359060200190929190803590602001909291908035906020019092919080359060200190640100000000811115610a0457600080fd5b820183602082011115610a1657600080fd5b80359060200191846001830284011164010000000083111715610a3857600080fd5b91908080601f016020809104026020016040519081016040528093929190818152602001838380828437600081840152601f19601f82011690508083019250505050505050919291929050505061187a565b604051808215151515815260200191505060405180910390f35b610aac6119c5565b6040518082815260200191505060405180910390f35b610aca6119ec565b6040518082815260200191505060405180910390f35b610c866004803603610100811015610af757600080fd5b81019080803573ffffffffffffffffffffffffffffffffffffffff1690602001909291908035906020019092919080359060200190640100000000811115610b3e57600080fd5b820183602082011115610b5057600080fd5b80359060200191846001830284011164010000000083111715610b7257600080fd5b91908080601f016020809104026020016040519081016040528093929190818152602001838380828437600081840152601f19601f820116905080830192505050505050509192919290803560ff16906020019092919080359060200190929190803590602001909291908035906020019092919080359060200190640100000000811115610c0057600080fd5b820183602082011115610c1257600080fd5b80359060200191846001830284011164010000000083111715610c3457600080fd5b91908080601f016020809104026020016040519081016040528093929190818152602001838380828437600081840152601f19601f820116905080830192505050505050509192919290505050611a13565b604051808215151515815260200191505060405180910390f35b610ca8611ab6565b6040518082815260200191505060405180910390f35b610cc6611abc565b6040518080602001828103825283818151815260200191508051906020019080838360005b83811015610d06578082015181840152602081019050610ceb565b50505050905090810190601f168015610d335780820380516001836020036101000a031916815260200191505b509250505060405180910390f35b7f035aff83d86937d35b32e04f0ddc6ff469290eef2f1b692d8a815c89404d474960010281565b600080610daa846040805190810160405280600681526020017f63616e63656c00000000000000000000000000000000000000000000000000008152506115d6565b9050610db68184611af5565b1515610e0d576040517f08c379a00000000000000000000000000000000000000000000000000000000081526004018080602001828103825260488152602001806135436048913960600191505060405180910390fd5b610e1684611dd1565b91505092915050565b600160009054906101000a900473ffffffffffffffffffffffffffffffffffffffff1681565b600360009054906101000a900473ffffffffffffffffffffffffffffffffffffffff1681565b60008060046000858152602001908152602001600020905060006004811115610e9057fe5b8160000160009054906101000a900460ff166004811115610ead57fe5b1415610ec557610ebd8484611af5565b915050611018565b600480811115610ed157fe5b8160000160009054906101000a900460ff166004811115610eee57fe5b1480610f21575060036004811115610f0257fe5b8160000160009054906101000a900460ff166004811115610f1f57fe5b145b15610f95576000816002015414151515610f86576040517f08c379a00000000000000000000000000000000000000000000000000000000081526004018080602001828103825260368152602001806136c76036913960400191505060405180910390fd5b80600201544211159150611016565b60016004811115610fa257fe5b8160000160009054906101000a900460ff166004811115610fbf57fe5b148015610fd0575042816001015411155b80611002575060026004811115610fe357fe5b8160000160009054906101000a900460ff16600481111561100057fe5b145b156110105760019150611015565b600091505b5b505b92915050565b611026611f86565b6000600102600254141515611086576040517f08c379a000000000000000000000000000000000000000000000000000000000815260040180806020018281038252603e81526020018061358b603e913960400191505060405180910390fd5b7f035aff83d86937d35b32e04f0ddc6ff469290eef2f1b692d8a815c89404d474960010230604051602001808381526020018273ffffffffffffffffffffffffffffffffffffffff1673ffffffffffffffffffffffffffffffffffffffff1681526020019250505060405160208183030381529060405280519060200120600281905550600073ffffffffffffffffffffffffffffffffffffffff16600360009054906101000a900473ffffffffffffffffffffffffffffffffffffffff1673ffffffffffffffffffffffffffffffffffffffff161415156111b3576040517f08c379a000000000000000000000000000000000000000000000000000000000815260040180806020018281038252603d8152602001806136fd603d913960400191505060405180910390fd5b80600360006101000a81548173ffffffffffffffffffffffffffffffffffffffff021916908373ffffffffffffffffffffffffffffffffffffffff16021790555050565b60006112088888888888888861138f565b805190602001209050979650505050505050565b600160009054906101000a900473ffffffffffffffffffffffffffffffffffffffff1673ffffffffffffffffffffffffffffffffffffffff163373ffffffffffffffffffffffffffffffffffffffff161415156112c4576040517f08c379a00000000000000000000000000000000000000000000000000000000081526004018080602001828103825260268152602001806137ad6026913960400191505060405180910390fd5b600073ffffffffffffffffffffffffffffffffffffffff168173ffffffffffffffffffffffffffffffffffffffff161415151561134c576040517f08c379a00000000000000000000000000000000000000000000000000000000081526004018080602001828103825260248152602001806133396024913960400191505060405180910390fd5b806000806101000a81548173ffffffffffffffffffffffffffffffffffffffff021916908373ffffffffffffffffffffffffffffffffffffffff16021790555050565b606060007f5b2427a6a143d63fc84d73a2ad07e5058a013b12e476c04a97c43b86bbb2392b6001028989898051906020012089898989604051602001808981526020018873ffffffffffffffffffffffffffffffffffffffff1673ffffffffffffffffffffffffffffffffffffffff1681526020018781526020018681526020018560ff1660ff1681526020018481526020018381526020018281526020019850505050505050505060405160208183030381529060405280519060200120905060197f01000000000000000000000000000000000000000000000000000000000000000260017f0100000000000000000000000000000000000000000000000000000000000000026002548360405160200180857effffffffffffffffffffffffffffffffffffffffffffffffffffffffffffff19167effffffffffffffffffffffffffffffffffffffffffffffffffffffffffffff19168152600101847effffffffffffffffffffffffffffffffffffffffffffffffffffffffffffff19167effffffffffffffffffffffffffffffffffffffffffffffffffffffffffffff19168152600101838152602001828152602001945050505050604051602081830303815290604052915050979650505050505050565b60046020528060005260406000206000915090508060000160009054906101000a900460ff16908060010154908060020154905083565b6040805190810160405280600981526020017f47726f756e64686f67000000000000000000000000000000000000000000000081525081565b6000807f1c6d00adc347592e646f0e48a431169e705ca19f86f9a3849e50e8557a51005160010284846040516020018082805190602001908083835b6020831015156116375780518252602082019150602081019050602083039250611612565b6001836020036101000a0380198251168184511680821785525050505050509050019150506040516020818303038152906040528051906020012060405160200180848152602001838152602001828152602001935050505060405160208183030381529060405280519060200120905060197f01000000000000000000000000000000000000000000000000000000000000000260017f0100000000000000000000000000000000000000000000000000000000000000026002548360405160200180857effffffffffffffffffffffffffffffffffffffffffffffffffffffffffffff19167effffffffffffffffffffffffffffffffffffffffffffffffffffffffffffff19168152600101847effffffffffffffffffffffffffffffffffffffffffffffffffffffffffffff19167effffffffffffffffffffffffffffffffffffffffffffffffffffffffffffff191681526001018381526020018281526020019450505050506040516020818303038152906040528051906020012091505092915050565b6000600160009054906101000a900473ffffffffffffffffffffffffffffffffffffffff1673ffffffffffffffffffffffffffffffffffffffff163373ffffffffffffffffffffffffffffffffffffffff1614151561186a576040517f08c379a00000000000000000000000000000000000000000000000000000000081526004018080602001828103825260268152602001806137ad6026913960400191505060405180910390fd5b61187382611dd1565b9050919050565b6000606061188d8a8a8a8a8a8a8a61138f565b90506118a0818051906020012084611af5565b15156118f7576040517f08c379a000000000000000000000000000000000000000000000000000000000815260040180806020018281038252604b8152602001806133cd604b913960600191505060405180910390fd5b60008a905060008a141561191f576c01000000000000000000000000601060208b0101510490505b8073ffffffffffffffffffffffffffffffffffffffff163373ffffffffffffffffffffffffffffffffffffffff161415156119a5576040517f08c379a00000000000000000000000000000000000000000000000000000000081526004018080602001828103825260398152602001806133946039913960400191505060405180910390fd5b6119b58280519060200120611dd1565b9250505098975050505050505050565b7f1c6d00adc347592e646f0e48a431169e705ca19f86f9a3849e50e8557a51005160010281565b7f5b2427a6a143d63fc84d73a2ad07e5058a013b12e476c04a97c43b86bbb2392b60010281565b60006060611a268a8a8a8a8a8a8a61138f565b9050611a39818051906020012084611af5565b1515611a90576040517f08c379a000000000000000000000000000000000000000000000000000000000815260040180806020018281038252603e815260200180613480603e913960400191505060405180910390fd5b611aa78a8a8a84805190602001208b8b8b8b61208f565b91505098975050505050505050565b60025481565b6040805190810160405280600581526020017f302e312e3000000000000000000000000000000000000000000000000000000081525081565b600080600090506000806000600160009054906101000a900473ffffffffffffffffffffffffffffffffffffffff1673ffffffffffffffffffffffffffffffffffffffff1663e75235b86040518163ffffffff167c010000000000000000000000000000000000000000000000000000000002815260040160206040518083038186803b158015611b8557600080fd5b505afa158015611b99573d6000803e3d6000fd5b505050506040513d6020811015611baf57600080fd5b8101908080519060200190929190505050905060009450600091505b80821015611dc357611bde878784612502565b9250600160009054906101000a900473ffffffffffffffffffffffffffffffffffffffff1673ffffffffffffffffffffffffffffffffffffffff16632f54bf6e846040518263ffffffff167c0100000000000000000000000000000000000000000000000000000000028152600401808273ffffffffffffffffffffffffffffffffffffffff1673ffffffffffffffffffffffffffffffffffffffff16815260200191505060206040518083038186803b158015611c9b57600080fd5b505afa158015611caf573d6000803e3d6000fd5b505050506040513d6020811015611cc557600080fd5b81019080805190602001909291905050501515611d2d576040517f08c379a00000000000000000000000000000000000000000000000000000000081526004018080602001828103825260418152602001806132f86041913960600191505060405180910390fd5b8373ffffffffffffffffffffffffffffffffffffffff168373ffffffffffffffffffffffffffffffffffffffff16111515611db3576040517f08c379a00000000000000000000000000000000000000000000000000000000081526004018080602001828103825260418152602001806136036041913960600191505060405180910390fd5b8293508180600101925050611bcb565b600194505050505092915050565b60008060046000848152602001908152602001600020905060036004811115611df657fe5b8160000160009054906101000a900460ff166004811115611e1357fe5b14158015611e485750600480811115611e2857fe5b8160000160009054906101000a900460ff166004811115611e4557fe5b14155b1515611e9f576040517f08c379a00000000000000000000000000000000000000000000000000000000081526004018080602001828103825260368152602001806134186036913960400191505060405180910390fd5b827f4d7781468081641aba2c04c3349fcf5830b9fedac1b7aaffabc1f1dc6b8883fb8260000160009054906101000a900460ff16600360405180836004811115611ee557fe5b60ff168152602001826004811115611ef957fe5b60ff1681526020019250505060405180910390a260038160000160006101000a81548160ff02191690836004811115611f2e57fe5b021790555060006004811115611f4057fe5b8160000160009054906101000a900460ff166004811115611f5d57fe5b141515611f7257806001015481600201819055505b600081600101819055506001915050919050565b600073ffffffffffffffffffffffffffffffffffffffff16600160009054906101000a900473ffffffffffffffffffffffffffffffffffffffff1673ffffffffffffffffffffffffffffffffffffffff1614151561204c576040517f08c379a000000000000000000000000000000000000000000000000000000000815260040180806020018281038252601c8152602001807f4d616e616765722068617320616c7265616479206265656e207365740000000081525060200191505060405180910390fd5b33600160006101000a81548173ffffffffffffffffffffffffffffffffffffffff021916908373ffffffffffffffffffffffffffffffffffffffff160217905550565b600061209e8686868686612591565b905080156124f657600088141580156120b8575060208751145b1561231a576000808880602001905160208110156120d557600080fd5b810190808051906020019092919050505090506000600360009054906101000a900473ffffffffffffffffffffffffffffffffffffffff1673ffffffffffffffffffffffffffffffffffffffff1663ed2e5a97836040518263ffffffff167c01000000000000000000000000000000000000000000000000000000000281526004018082815260200191505060206040518083038186803b15801561217957600080fd5b505afa15801561218d573d6000803e3d6000fd5b505050506040513d60208110156121a357600080fd5b810190808051906020019092919050505090508060019004925060008314151515612219576040517f08c379a00000000000000000000000000000000000000000000000000000000081526004018080602001828103825260458152602001806136446045913960600191505060405180910390fd5b6040805190810160405280600281526020017f30780000000000000000000000000000000000000000000000000000000000008152509950670de0b6b3a76400008b1115156122b3576040517f08c379a000000000000000000000000000000000000000000000000000000000815260040180806020018281038252604a8152602001806134f9604a913960600191505060405180910390fd5b60006122c8848d612e3a90919063ffffffff16565b9050897fed5dfc8e1e6c04bfe2a63fe8a78c5d8481db03f1bb05782a390821c73d72a7bf8d868460405180848152602001838152602001828152602001935050505060405180910390a2809b50505050505b600160009054906101000a900473ffffffffffffffffffffffffffffffffffffffff1673ffffffffffffffffffffffffffffffffffffffff1663468721a78a8a8a60006040518563ffffffff167c0100000000000000000000000000000000000000000000000000000000028152600401808573ffffffffffffffffffffffffffffffffffffffff1673ffffffffffffffffffffffffffffffffffffffff168152602001848152602001806020018360028111156123d457fe5b60ff168152602001828103825284818151815260200191508051906020019080838360005b838110156124145780820151818401526020810190506123f9565b50505050905090810190601f1680156124415780820380516001836020036101000a031916815260200191505b5095505050505050602060405180830381600087803b15801561246357600080fd5b505af1158015612477573d6000803e3d6000fd5b505050506040513d602081101561248d57600080fd5b810190808051906020019092919050505015156124f5576040517f08c379a000000000000000000000000000000000000000000000000000000000815260040180806020018281038252603b815260200180613772603b913960400191505060405180910390fd5b5b98975050505050505050565b6000806000806125128686612e76565b80935081945082955050505060018784848460405160008152602001604052604051808581526020018460ff1660ff1681526020018381526020018281526020019450505050506020604051602081039080840390855afa15801561257b573d6000803e3d6000fd5b5050506020604051035193505050509392505050565b60008060006004600089815260200190815260200160002090506004808111156125b757fe5b8160000160009054906101000a900460ff1660048111156125d457fe5b1415801561260a5750600360048111156125ea57fe5b8160000160009054906101000a900460ff16600481111561260757fe5b14155b1515612661576040517f08c379a000000000000000000000000000000000000000000000000000000000815260040180806020018281038252603781526020018061335d6037913960400191505060405180910390fd5b6000600481111561266e57fe5b8160000160009054906101000a900460ff16600481111561268b57fe5b14156128ce57600085141515612700574285101515156126f6576040517f08c379a000000000000000000000000000000000000000000000000000000000815260040180806020018281038252603881526020018061373a6038913960400191505060405180910390fd5b8481600201819055505b60008614151561283c57428610151515612765576040517f08c379a000000000000000000000000000000000000000000000000000000000815260040180806020018281038252603a8152602001806135c9603a913960400191505060405180910390fd5b85816001018190555060018160000160006101000a81548160ff0219169083600481111561278f57fe5b0217905550877f4d7781468081641aba2c04c3349fcf5830b9fedac1b7aaffabc1f1dc6b8883fb60006001604051808360048111156127ca57fe5b60ff1681526020018260048111156127de57fe5b60ff1681526020019250505060405180910390a2877f19481afaadaa6d733156e570dc94fa706f8de4d0603045c9e74cd50e5881c8b782600101546040518082815260200191505060405180910390a2600092508292505050612e31565b42816001018190555060028160000160006101000a81548160ff0219169083600481111561286657fe5b0217905550877f4d7781468081641aba2c04c3349fcf5830b9fedac1b7aaffabc1f1dc6b8883fb60006002604051808360048111156128a157fe5b60ff1681526020018260048111156128b557fe5b60ff1681526020019250505060405180910390a26129e8565b600160048111156128db57fe5b8160000160009054906101000a900460ff1660048111156128f857fe5b14156129e757854210151515612959576040517f08c379a000000000000000000000000000000000000000000000000000000000815260040180806020018281038252603b8152602001806134be603b913960400191505060405180910390fd5b42816001018190555060028160000160006101000a81548160ff0219169083600481111561298357fe5b0217905550877f4d7781468081641aba2c04c3349fcf5830b9fedac1b7aaffabc1f1dc6b8883fb60016002604051808360048111156129be57fe5b60ff1681526020018260048111156129d257fe5b60ff1681526020019250505060405180910390a25b5b600260048111156129f557fe5b8160000160009054906101000a900460ff166004811115612a1257fe5b141515612a6a576040517f08c379a000000000000000000000000000000000000000000000000000000000815260040180806020018281038252603781526020018061335d6037913960400191505060405180910390fd5b80600101544210158015612a8357506000816001015414155b1515612ada576040517f08c379a000000000000000000000000000000000000000000000000000000000815260040180806020018281038252603e815260200180613689603e913960400191505060405180910390fd5b6002600c811115612ae757fe5b8760ff161415612b0757612b0081600101546001612ea5565b9150612d23565b6003600c811115612b1457fe5b8760ff161415612b3457612b2d81600101546001612ec4565b9150612d22565b6004600c811115612b4157fe5b8760ff161415612b6157612b5a81600101546001612ee4565b9150612d21565b6005600c811115612b6e57fe5b8760ff161415612b8e57612b8781600101546007612ee4565b9150612d20565b6006600c811115612b9b57fe5b8760ff161415612bbb57612bb48160010154600e612ee4565b9150612d1f565b6007600c811115612bc857fe5b8760ff161415612be857612be181600101546001612f05565b9150612d1e565b6008600c811115612bf557fe5b8760ff161415612c1557612c0e81600101546003612f05565b9150612d1d565b6009600c811115612c2257fe5b8760ff161415612c4257612c3b81600101546006612f05565b9150612d1c565b600a600c811115612c4f57fe5b8760ff161415612c6f57612c6881600101546001612fb1565b9150612d1b565b600b600c811115612c7c57fe5b8760ff161415612c9c57612c9581600101546002612fb1565b9150612d1a565b600c80811115612ca857fe5b8760ff161415612cc857612cc181600101546003612fb1565b9150612d19565b6040517f08c379a000000000000000000000000000000000000000000000000000000000815260040180806020018281038252603281526020018061344e6032913960400191505060405180910390fd5b5b5b5b5b5b5b5b5b5b5b6000816002015414158015612d3c575080600201548210155b15612de45760008160010181905550877f4d7781468081641aba2c04c3349fcf5830b9fedac1b7aaffabc1f1dc6b8883fb8260000160009054906101000a900460ff16600460405180836004811115612d9157fe5b60ff168152602001826004811115612da557fe5b60ff1681526020019250505060405180910390a260048160000160006101000a81548160ff02191690836004811115612dda57fe5b0217905550612dee565b8181600101819055505b877f19481afaadaa6d733156e570dc94fa706f8de4d0603045c9e74cd50e5881c8b782600101546040518082815260200191505060405180910390a26001925050505b95945050505050565b600081612e64612e5285670de0b6b3a7640000613034565b600285811515612e5e57fe5b04613064565b811515612e6d57fe5b04905092915050565b60008060008360410260208101860151925060408101860151915060ff60418201870151169350509250925092565b6000603c820283019050828110151515612ebe57600080fd5b92915050565b6000610e10820283019050828110151515612ede57600080fd5b92915050565b600062015180820283019050828110151515612eff57600080fd5b92915050565b600080600080612f226201518087811515612f1c57fe5b04613080565b8093508194508295505050508482019150600c60018303811515612f4257fe5b04830192506001600c60018403811515612f5857fe5b060191506000612f688484613162565b905080821115612f76578091505b6201518087811515612f8457fe5b0662015180612f948686866131ef565b02019450868510151515612fa757600080fd5b5050505092915050565b600080600080612fce6201518087811515612fc857fe5b04613080565b80935081945082955050505084830192506000612feb8484613162565b905080821115612ff9578091505b620151808781151561300757fe5b06620151806130178686866131ef565b0201945086851015151561302a57600080fd5b5050505092915050565b6000808214806130535750828283850292508281151561305057fe5b04145b151561305e57600080fd5b92915050565b6000828284019150811015151561307a57600080fd5b92915050565b600080600080849050600062253d8c62010bd98301019050600062023ab1826004028115156130ab57fe5b059050600460038262023ab102018115156130c257fe5b0582039150600062164b0960018401610fa0028115156130de57fe5b059050601f6004826105b5028115156130f357fe5b058403019250600061098f8460500281151561310b57fe5b059050600060508261098f0281151561312057fe5b0585039050600b8281151561313157fe5b05945084600c0260028301039150848360318603606402010192508298508197508096505050505050509193909250565b600060018214806131735750600382145b8061317e5750600582145b806131895750600782145b806131945750600882145b8061319f5750600a82145b806131aa5750600c82145b156131b857601f90506131e9565b6002821415156131cb57601e90506131e8565b6131d4836132ae565b6131df57601c6131e2565b601d5b60ff1690505b5b92915050565b60006107b2841015151561320257600080fd5b600084905060008490506000849050600062253d8c60046064600c600e870381151561322a57fe5b0561132488010181151561323a57fe5b0560030281151561324757fe5b05600c80600c600e880381151561325a57fe5b0502600287030361016f0281151561326e57fe5b056004600c600e880381151561328057fe5b056112c08901016105b50281151561329457fe5b05617d4b8603010103039050809450505050509392505050565b6000806004838115156132bd57fe5b061480156132d8575060006064838115156132d457fe5b0614155b806132f057506000610190838115156132ed57fe5b06145b905091905056fe537562736372697074696f6e4d6f64756c653a3a5f636865636b686173683a20494e56414c49445f444154413a205349474e41545552455f4e4f545f4f574e4552496e76616c6964206d617374657220636f707920616464726573732070726f7669646564537562736372697074696f6e4d6f64756c653a3a5f70726f636573733a20494e56414c49445f53544154453a205355425f535441545553537562736372697074696f6e4d6f64756c653a3a6973526563697069656e743a204d53475f53454e4445525f4e4f545f524543495049454e54537562736372697074696f6e4d6f64756c653a3a63616e63656c537562736372697074696f6e4173526563697069656e743a20494e56414c49445f444154413a205349474e415455524553537562736372697074696f6e4d6f64756c653a3a5f63616e63656c3a20494e56414c49445f53544154453a205355425f535441545553537562736372697074696f6e4d6f64756c653a3a5f70726f636573733a20494e56414c49445f444154413a20504552494f44537562736372697074696f6e4d6f64756c653a3a65786563537562736372697074696f6e3a20494e56414c49445f444154413a205349474e415455524553537562736372697074696f6e4d6f64756c653a3a5f70726f636573733a20494e56414c49445f53544154453a205355425f53544152545f44415445537562736372697074696f6e4d6f64756c653a3a5f706179537562736372697074696f6e3a20494e56414c49445f464f524d41543a2044594e414d49435f50524943455f464f524d4154537562736372697074696f6e4d6f64756c653a3a63616e63656c537562736372697074696f6e3a20494e56414c49445f444154413a205349474e4154555245535f494e56414c4944537562736372697074696f6e4d6f64756c653a3a73657475703a20494e56414c49445f53544154453a20444f4d41494e5f534550415241544f525f534554537562736372697074696f6e4d6f64756c653a3a5f70726f636573733a20494e56414c49445f444154413a205355425f53544152545f44415445537562736372697074696f6e4d6f64756c653a3a5f636865636b686173683a20494e56414c49445f444154413a205349474e41545552455f4f55545f4f52444552537562736372697074696f6e4d6f64756c653a3a5f706179537562736372697074696f6e3a20494e56414c49445f464f524d41543a20434f4e56455253494f4e5f52415445537562736372697074696f6e4d6f64756c653a3a5f70726f636573733a20494e56414c49445f53544154453a205355425f4e4558545f5749544844524157537562736372697074696f6e4d6f64756c653a3a697356616c69643a20494e56414c49445f53544154453a205355425f535441545553537562736372697074696f6e4d6f64756c653a3a73657475703a20494e56414c49445f53544154453a204f5241434c455f52454749535452595f534554537562736372697074696f6e4d6f64756c653a3a5f70726f636573733a20494e56414c49445f444154413a205355425f454e445f44415445537562736372697074696f6e4d6f64756c653a3a5f706179537562736372697074696f6e3a20494e56414c49445f455845433a205041595f5355424d6574686f642063616e206f6e6c792062652063616c6c65642066726f6d206d616e61676572a165627a7a72305820f07896097c4dc628ecdc18315fdc90305af829b1574b2205f235ded8efd0e7ab0029",
  "source": "pragma solidity ^0.5.0;\n\nimport \"../base/Module.sol\";\nimport \"../base/OwnerManager.sol\";\nimport \"../common/GEnum.sol\";\nimport \"../common/SignatureDecoder.sol\";\nimport \"../external/BokkyPooBahsDateTimeLibrary.sol\";\nimport \"../external/Math.sol\";\nimport \"../interfaces/OracleRegistryI.sol\";\n\n/// @title SubscriptionModule - A module with support for Subscription Payments\n/// @author Andrew Redden - <andrew@groundhog.network>\ncontract SubscriptionModule is Module, SignatureDecoder {\n\n\n    using BokkyPooBahsDateTimeLibrary for uint256;\n    using DSMath for uint256;\n\n    string public constant NAME = \"Groundhog\";\n    string public constant VERSION = \"0.1.0\";\n\n    bytes32 public domainSeparator;\n    address public oracleRegistry;\n\n    //keccak256(\n    //    \"EIP712Domain(address verifyingContract)\"\n    //);\n    bytes32 public constant DOMAIN_SEPARATOR_TYPEHASH = 0x035aff83d86937d35b32e04f0ddc6ff469290eef2f1b692d8a815c89404d4749;\n\n    //keccak256(\n    //  \"EIP1337Execute(address to,uint256 value,bytes data,uint8 period,uint256 startDate,uint256 endDate,uint256 unique)\"\n    //)\n    bytes32 public constant EIP1337_TYPEHASH = 0x5b2427a6a143d63fc84d73a2ad07e5058a013b12e476c04a97c43b86bbb2392b;\n\n    //keccak256(\n    //  \"EIP1337Action(bytes32 hash,string action)\"\n    //)\n    bytes32 public constant EIP1337_ACTION_TYPEHASH = 0x1c6d00adc347592e646f0e48a431169e705ca19f86f9a3849e50e8557a510051;\n\n    mapping(bytes32 => Meta) public subscriptions;\n\n    struct Meta {\n        GEnum.Status status;\n        uint256 nextWithdraw;\n        uint256 endDate;\n    }\n\n    event NextPayment(\n        bytes32 indexed hash,\n        uint256 nextWithdraw\n    );\n\n    event OraclizedDenomination(\n        bytes32 indexed hash,\n        uint256 dynPriceFormat,\n        uint256 conversionRate,\n        uint256 paymentTotal\n    );\n    event StatusChanged(\n        bytes32 indexed hash,\n        GEnum.Status prev,\n        GEnum.Status next\n    );\n\n    /// @dev Setup function sets manager\n    function setup(\n        address _oracleRegistry\n    )\n    public\n    {\n        setManager();\n\n        require(\n            domainSeparator == 0,\n            \"SubscriptionModule::setup: INVALID_STATE: DOMAIN_SEPARATOR_SET\"\n        );\n\n        domainSeparator = keccak256(\n            abi.encode(\n                DOMAIN_SEPARATOR_TYPEHASH,\n                address(this)\n            )\n        );\n\n        require(\n            oracleRegistry == address(0),\n            \"SubscriptionModule::setup: INVALID_STATE: ORACLE_REGISTRY_SET\"\n        );\n\n        oracleRegistry = _oracleRegistry;\n    }\n\n    /// @dev Allows to execute a Safe transaction confirmed by required number of owners and then pays the account that submitted the transaction.\n    ///      Note: The fees are always transferred, even if the user transaction fails.\n    /// @param to Destination address of Safe transaction.\n    /// @param value Ether value of Safe transaction.\n    /// @param data Data payload of Safe transaction.\n    /// @param period uint256\n    /// @param unique uint256\n    /// @param startDate uint256\n    /// @param endDate uint256\n    /// @param signatures Packed signature data ({bytes32 r}{bytes32 s}{uint256 v})\n    /// @return success boolean value of execution\n    function execute(\n        address to,\n        uint256 value,\n        bytes memory data,\n        uint8 period,\n        uint256 startDate,\n        uint256 endDate,\n        uint256 unique,\n        bytes memory signatures\n    )\n    public\n    returns\n    (\n        bool paid\n    )\n    {\n\n        bytes memory subhashData = encodeSubscriptionData(\n            to,\n            value,\n            data,\n            period,\n            startDate,\n            endDate,\n            unique\n        );\n\n        require(\n            _checkhash(\n                keccak256(subhashData),\n                signatures\n            ),\n            \"SubscriptionModule::execSubscription: INVALID_DATA: SIGNATURES\"\n        );\n\n        paid = _paySubscription(\n            to,\n            value,\n            data,\n            keccak256(subhashData),\n            period,\n            startDate,\n            endDate,\n            unique\n        );\n    }\n\n    /// @dev internal method to execution the actual payment\n    function _paySubscription(\n        address to,\n        uint256 value,\n        bytes memory data,\n        bytes32 hash,\n        uint8 period,\n        uint256 startDate,\n        uint256 endDate,\n        uint256 unique\n    )\n    internal\n    returns (bool processPayment)\n    {\n\n\n        processPayment = _process(\n            hash,\n            period,\n            startDate,\n            endDate,\n            unique\n        );\n\n        if (processPayment) {\n\n            if (value != 0 && (data.length == 32)) {//find a better type identifier to show these, first x bytes are something\n                //if its 32 exactly, its likely just the one uint256, which means this is not a function call\n                uint256 conversionRate;\n\n                uint256 oracleFeed = abi.decode(\n                    data, (uint)\n                );\n\n                bytes32 rate = OracleRegistryI(oracleRegistry).read(\n                    oracleFeed\n                );\n\n                conversionRate = uint256(rate);\n\n                require(\n                    conversionRate != uint(0),\n                    \"SubscriptionModule::_paySubscription: INVALID_FORMAT: CONVERSION_RATE\"\n                );\n                data = \"0x\";\n\n\n                //when in priceFeed format, price feeds are denominated in Ether but converted to the feed pairing\n                //ETHUSD, WBTC/USD\n                require(\n                    value > 1.00 ether,\n                    \"SubscriptionModule::_paySubscription: INVALID_FORMAT: DYNAMIC_PRICE_FORMAT\"\n                );\n\n                uint256 payment = value.wdiv(\n                    conversionRate\n                );\n\n                emit OraclizedDenomination(\n                    hash,\n                    value,\n                    conversionRate,\n                    payment\n                );\n\n                value = payment;\n            }\n\n            require(\n                manager.execTransactionFromModule(to, value, data, Enum.Operation.Call),\n                \"SubscriptionModule::_paySubscription: INVALID_EXEC: PAY_SUB\"\n            );\n        }\n    }\n\n    /// @dev hash check function, to verify that owners have signed the incoming signature\n    function _checkhash(\n        bytes32 hash,\n        bytes memory signatures\n    )\n    internal\n    view\n    returns (\n        bool valid\n    )\n    {\n        // There cannot be an owner with address 0.\n        address lastOwner = address(0);\n        address currentOwner;\n        uint256 i;\n        uint256 threshold = OwnerManager(address(manager)).getThreshold();\n        // Validate threshold is reached.\n        valid = false;\n\n        for (i = 0; i < threshold; i++) {\n\n            currentOwner = recoverKey(\n                hash,\n                signatures, i\n            );\n\n            require(\n                OwnerManager(address(manager)).isOwner(currentOwner),\n                \"SubscriptionModule::_checkhash: INVALID_DATA: SIGNATURE_NOT_OWNER\"\n            );\n\n            require(\n                currentOwner > lastOwner,\n                \"SubscriptionModule::_checkhash: INVALID_DATA: SIGNATURE_OUT_ORDER\"\n            );\n\n            lastOwner = currentOwner;\n        }\n\n        valid = true;\n    }\n\n    /// @dev Allows to execute a Safe transaction confirmed by required number of owners and then pays the account that submitted the transaction.\n    ///      Note: The fees are always transferred, even if the user transaction fails.\n    /// @param hash bytes32 hash of on chain sub\n    /// @return bool valid returns the validity of the subscription\n    function isValid(\n        bytes32 hash,\n        bytes memory signatures\n    )\n    public\n    view\n    returns (bool valid)\n    {\n\n        Meta storage sub = subscriptions[hash];\n\n        //exit early if we can\n        if (sub.status == GEnum.Status.INIT) {\n            return _checkhash(\n                hash,\n                signatures\n            );\n        }\n\n        if (sub.status == GEnum.Status.EXPIRED || sub.status == GEnum.Status.CANCELLED) {\n\n            require(\n                sub.endDate != 0,\n                \"SubscriptionModule::isValid: INVALID_STATE: SUB_STATUS\"\n            );\n\n            valid = (now <= sub.endDate);\n        } else if (\n            (sub.status == GEnum.Status.TRIAL && sub.nextWithdraw <= now)\n            ||\n            (sub.status == GEnum.Status.VALID)\n        ) {\n            valid = true;\n        } else {\n            valid = false;\n        }\n    }\n\n    //cancel subscription as a gnosis safe txn\n    function cancelAsManager(\n        bytes32 hash\n    )\n    authorized\n    public\n    returns (bool success) {\n\n        success = _cancel(hash);\n    }\n\n    /// @dev cancel the subscription as the recipient of the subscription, in cases where a merchant wants to\n    /// cancel and prevent further payment\n    function cancelAsRecipient(\n        address to,\n        uint256 value,\n        bytes memory data,\n        uint8 period,\n        uint256 startDate,\n        uint256 endDate,\n        uint256 unique,\n        bytes memory signatures\n    )\n    public\n    returns (bool cancelled) {\n\n        bytes memory subhashData = encodeSubscriptionData(\n            to,\n            value,\n            data,\n            period,\n            startDate,\n            endDate,\n            unique\n        );\n\n        require(\n            _checkhash(keccak256(subhashData), signatures),\n            \"SubscriptionModule::cancelSubscriptionAsRecipient: INVALID_DATA: SIGNATURES\"\n        );\n\n        address recipient = to;\n        //        if no value, assume its an ERC20 token, remove the to argument from the data\n        if (value == uint(0)) {\n\n            // solium-disable-next-line security/no-inline-assembly\n            assembly {\n                recipient := div(mload(add(add(data, 0x20), 16)), 0x1000000000000000000000000)\n            }\n        }\n\n        require(msg.sender == recipient, \"SubscriptionModule::isRecipient: MSG_SENDER_NOT_RECIPIENT\");\n\n        cancelled = _cancel(keccak256(subhashData));\n\n    }\n\n\n    /// @dev Allows to execute a Safe transaction confirmed by required number of owners and then pays the account that\n    /// submitted the transaction.\n    /// @return bool hash of on sub to revoke or cancel\n    function cancel(\n        bytes32 hash,\n        bytes memory signatures\n    )\n    public\n    returns (bool cancelled)\n    {\n\n        bytes32 cancelhash = getActionhash(hash, \"cancel\");\n\n        require(\n            _checkhash(cancelhash, signatures),\n            \"SubscriptionModule::cancelSubscription: INVALID_DATA: SIGNATURES_INVALID\"\n        );\n\n        cancelled = _cancel(hash);\n\n    }\n\n\n    /// @dev the internal function that cancels the subscription\n    function _cancel(\n        bytes32 hash\n    )\n    internal\n    returns (bool cancelled)\n    {\n\n        Meta storage sub = subscriptions[hash];\n\n\n        require(\n            (sub.status != GEnum.Status.CANCELLED && sub.status != GEnum.Status.EXPIRED),\n            \"SubscriptionModule::_cancel: INVALID_STATE: SUB_STATUS\"\n        );\n\n        emit StatusChanged(\n            hash,\n            sub.status,\n            GEnum.Status.CANCELLED\n        );\n\n        sub.status = GEnum.Status.CANCELLED;\n\n        if (sub.status != GEnum.Status.INIT) {\n            sub.endDate = sub.nextWithdraw;\n        }\n\n        sub.nextWithdraw = 0;\n\n        cancelled = true;\n    }\n\n    /// @dev used to help mitigate stack issues\n    /// @return bool\n    function _process(\n        bytes32 hash,\n        uint8 period,\n        uint256 startDate,\n        uint256 endDate,\n        uint256 unique\n    )\n    internal\n    returns (bool processPayment)\n    {\n        uint256 withdrawHolder;\n        Meta storage sub = subscriptions[hash];\n\n        require(\n            (sub.status != GEnum.Status.EXPIRED && sub.status != GEnum.Status.CANCELLED),\n            \"SubscriptionModule::_process: INVALID_STATE: SUB_STATUS\"\n        );\n\n\n        if (sub.status == GEnum.Status.INIT) {\n\n            if (endDate != 0) {\n\n                require(\n                    endDate >= now,\n                    \"SubscriptionModule::_process: INVALID_DATA: SUB_END_DATE\"\n                );\n                sub.endDate = endDate;\n            }\n\n            if (startDate != 0) {\n\n                require(\n                    startDate >= now,\n                    \"SubscriptionModule::_process: INVALID_DATA: SUB_START_DATE\"\n                );\n                sub.nextWithdraw = startDate;\n                sub.status = GEnum.Status.TRIAL;\n\n                emit StatusChanged(\n                    hash,\n                    GEnum.Status.INIT,\n                    GEnum.Status.TRIAL\n                );\n                //emit here because of early method exit after trial setup\n                emit NextPayment(\n                    hash,\n                    sub.nextWithdraw\n                );\n\n                //early exit to let trial period start\n                processPayment = false;\n                return processPayment;\n            } else {\n\n                sub.nextWithdraw = now;\n                sub.status = GEnum.Status.VALID;\n                emit StatusChanged(\n                    hash,\n                    GEnum.Status.INIT,\n                    GEnum.Status.VALID\n                );\n            }\n\n        } else if (sub.status == GEnum.Status.TRIAL) {\n\n            require(\n                now >= startDate,\n                \"SubscriptionModule::_process: INVALID_STATE: SUB_START_DATE\"\n            );\n            sub.nextWithdraw = now;\n            sub.status = GEnum.Status.VALID;\n\n            emit StatusChanged(\n                hash,\n                GEnum.Status.TRIAL,\n                GEnum.Status.VALID\n            );\n        }\n\n        require(\n            sub.status == GEnum.Status.VALID,\n            \"SubscriptionModule::_process: INVALID_STATE: SUB_STATUS\"\n        );\n\n        require(\n            now >= sub.nextWithdraw && sub.nextWithdraw != 0,\n            \"SubscriptionModule::_process: INVALID_STATE: SUB_NEXT_WITHDRAW\"\n        );\n\n        if (\n            period == uint256(GEnum.Period.MINUTE)\n        ) {\n            withdrawHolder = BokkyPooBahsDateTimeLibrary.addMinutes(sub.nextWithdraw, 1);\n        } else if (\n            period == uint256(GEnum.Period.HOUR)\n        ) {\n            withdrawHolder = BokkyPooBahsDateTimeLibrary.addHours(sub.nextWithdraw, 1);\n        } else if (\n            period == uint256(GEnum.Period.DAY)\n        ) {\n            withdrawHolder = BokkyPooBahsDateTimeLibrary.addDays(sub.nextWithdraw, 1);\n        } else if (\n            period == uint256(GEnum.Period.WEEK)\n        ) {\n            withdrawHolder = BokkyPooBahsDateTimeLibrary.addDays(sub.nextWithdraw, 7);\n        } else if (\n            period == uint256(GEnum.Period.BI_WEEKLY)\n        ) {\n            withdrawHolder = BokkyPooBahsDateTimeLibrary.addDays(sub.nextWithdraw, 14);\n        } else if (\n            period == uint256(GEnum.Period.MONTH)\n        ) {\n            withdrawHolder = BokkyPooBahsDateTimeLibrary.addMonths(sub.nextWithdraw, 1);\n        } else if (\n            period == uint256(GEnum.Period.THREE_MONTH)\n        ) {\n            withdrawHolder = BokkyPooBahsDateTimeLibrary.addMonths(sub.nextWithdraw, 3);\n\n        } else if (\n            period == uint256(GEnum.Period.SIX_MONTH)\n        ) {\n            withdrawHolder = BokkyPooBahsDateTimeLibrary.addMonths(sub.nextWithdraw, 6);\n\n        } else if (\n            period == uint256(GEnum.Period.YEAR)\n        ) {\n            withdrawHolder = BokkyPooBahsDateTimeLibrary.addYears(sub.nextWithdraw, 1);\n        } else if (\n            period == uint256(GEnum.Period.TWO_YEAR)\n        ) {\n            withdrawHolder = BokkyPooBahsDateTimeLibrary.addYears(sub.nextWithdraw, 2);\n\n        } else if (\n            period == uint256(GEnum.Period.THREE_YEAR)\n        ) {\n            withdrawHolder = BokkyPooBahsDateTimeLibrary.addYears(sub.nextWithdraw, 3);\n\n        } else {\n            revert(\"SubscriptionModule::_process: INVALID_DATA: PERIOD\");\n        }\n\n        //if a subscription is expiring and its next withdraw timeline is beyond hte time of the expiration\n        //modify the status\n        if (sub.endDate != 0 && withdrawHolder >= sub.endDate) {\n\n            sub.nextWithdraw = 0;\n            emit StatusChanged(\n                hash,\n                sub.status,\n                GEnum.Status.EXPIRED\n            );\n            sub.status = GEnum.Status.EXPIRED;\n        } else {\n            sub.nextWithdraw = withdrawHolder;\n        }\n\n        emit NextPayment(\n            hash,\n            sub.nextWithdraw\n        );\n        processPayment = true;\n    }\n\n    /// @dev Returns hash to be signed by owners.\n    /// @param to Destination address.\n    /// @return Subscription hash.\n    function getHash(\n        address to,\n        uint256 value,\n        bytes memory data,\n        uint8 period,\n        uint256 startDate,\n        uint256 endDate,\n        uint256 unique\n    )\n    public\n    view\n    returns (bytes32)\n    {\n        return keccak256(\n            encodeSubscriptionData(\n                to,\n                value,\n                data,\n                period,\n                startDate,\n                endDate,\n                unique\n            )\n        );\n    }\n\n    /// @dev Returns hash to be signed by owners for cancelling a subscription\n    function getActionhash(\n        bytes32 hash,\n        string memory action\n    )\n    public\n    view\n    returns (bytes32)\n    {\n\n        bytes32 eip1337Actionhash = keccak256(\n            abi.encode(\n                EIP1337_ACTION_TYPEHASH,\n                hash,\n                keccak256(abi.encodePacked(action))\n            )\n        );\n\n        return keccak256(\n            abi.encodePacked(\n                byte(0x19),\n                byte(0x01),\n                domainSeparator,\n                eip1337Actionhash\n            )\n        );\n    }\n\n\n    /// @dev Returns the bytes that are hashed to be signed by owners.\n    /// @param to Destination address.\n    /// @param value Ether value.\n    /// @param data Data payload.\n    /// @return Subscription hash bytes.\n    function encodeSubscriptionData(\n        address to,\n        uint256 value,\n        bytes memory data,\n        uint8 period,\n        uint256 startDate,\n        uint256 endDate,\n        uint256 unique\n    )\n    public\n    view\n    returns (bytes memory)\n    {\n        bytes32 eip1337Txhash = keccak256(\n            abi.encode(\n                EIP1337_TYPEHASH,\n                to,\n                value,\n                keccak256(data),\n                period,\n                startDate,\n                endDate,\n                unique\n            )\n        );\n\n        return abi.encodePacked(\n            byte(0x19),\n            byte(0x01),\n            domainSeparator,\n            eip1337Txhash\n        );\n    }\n}\n",
  "sourcePath": "/Users/andrewredden/Development/gh/safe-contracts/contracts/modules/SubscriptionModule.sol",
  "compiler": {
    "name": "solc",
    "version": "0.5.3+commit.10d17f24.Emscripten.clang"
  },
  "schemaVersion": "3.0.0-beta.2",
  "updatedAt": "2019-02-27T21:47:53.590Z",
  "devdoc": {
    "author": "Andrew Redden - <andrew@groundhog.network>",
    "methods": {
      "cancel(bytes32,bytes)": {
        "details": "Allows to execute a Safe transaction confirmed by required number of owners and then pays the account that submitted the transaction.",
        "return": "bool hash of on sub to revoke or cancel"
      },
      "cancelAsRecipient(address,uint256,bytes,uint8,uint256,uint256,uint256,bytes)": {
        "details": "cancel the subscription as the recipient of the subscription, in cases where a merchant wants to cancel and prevent further payment"
      },
      "changeMasterCopy(address)": {
        "details": "Allows to upgrade the contract. This can only be done via a Safe transaction.",
        "params": {
          "_masterCopy": "New contract address."
        }
      },
      "encodeSubscriptionData(address,uint256,bytes,uint8,uint256,uint256,uint256)": {
        "details": "Returns the bytes that are hashed to be signed by owners.",
        "params": {
          "data": "Data payload.",
          "to": "Destination address.",
          "value": "Ether value."
        },
        "return": "Subscription hash bytes."
      },
      "execute(address,uint256,bytes,uint8,uint256,uint256,uint256,bytes)": {
        "details": "Allows to execute a Safe transaction confirmed by required number of owners and then pays the account that submitted the transaction.      Note: The fees are always transferred, even if the user transaction fails.",
        "params": {
          "data": "Data payload of Safe transaction.",
          "endDate": "uint256",
          "period": "uint256",
          "signatures": "Packed signature data ({bytes32 r}{bytes32 s}{uint256 v})",
          "startDate": "uint256",
          "to": "Destination address of Safe transaction.",
          "unique": "uint256",
          "value": "Ether value of Safe transaction."
        },
        "return": "success boolean value of execution"
      },
      "getActionhash(bytes32,string)": {
        "details": "Returns hash to be signed by owners for cancelling a subscription"
      },
      "getHash(address,uint256,bytes,uint8,uint256,uint256,uint256)": {
        "details": "Returns hash to be signed by owners.",
        "params": {
          "to": "Destination address."
        },
        "return": "Subscription hash."
      },
      "isValid(bytes32,bytes)": {
        "details": "Allows to execute a Safe transaction confirmed by required number of owners and then pays the account that submitted the transaction.      Note: The fees are always transferred, even if the user transaction fails.",
        "params": {
          "hash": "bytes32 hash of on chain sub"
        },
        "return": "bool valid returns the validity of the subscription"
      },
      "setup(address)": {
        "details": "Setup function sets manager"
      }
    },
    "title": "SubscriptionModule - A module with support for Subscription Payments"
  },
  "userdoc": {
    "methods": {}
  }
}